{
  "_format": "hh-sol-artifact-1",
  "contractName": "EventCreation",
  "sourceName": "contracts/EventCreation.sol",
  "abi": [
    {
      "inputs": [
        {
          "internalType": "uint256",
          "name": "eventId",
          "type": "uint256"
        }
      ],
      "name": "NotFromExtraContract",
      "type": "error"
    },
    {
      "inputs": [
        {
          "internalType": "uint256",
          "name": "eventId",
          "type": "uint256"
        }
      ],
      "name": "NotTheAdmin",
      "type": "error"
    },
    {
      "anonymous": false,
      "inputs": [
        {
          "indexed": true,
          "internalType": "uint256",
          "name": "eventId",
          "type": "uint256"
        },
        {
          "indexed": false,
          "internalType": "string",
          "name": "newDescription",
          "type": "string"
        }
      ],
      "name": "DescriptionChanged",
      "type": "event"
    },
    {
      "anonymous": false,
      "inputs": [
        {
          "indexed": true,
          "internalType": "uint256",
          "name": "eventId",
          "type": "uint256"
        },
        {
          "indexed": false,
          "internalType": "uint256",
          "name": "newEndTime",
          "type": "uint256"
        }
      ],
      "name": "EndTimeChanged",
      "type": "event"
    },
    {
      "anonymous": false,
      "inputs": [
        {
          "components": [
            {
              "internalType": "uint256",
              "name": "id",
              "type": "uint256"
            },
            {
              "internalType": "string",
              "name": "name",
              "type": "string"
            },
            {
              "internalType": "string",
              "name": "description",
              "type": "string"
            },
            {
              "internalType": "string",
              "name": "location",
              "type": "string"
            },
            {
              "internalType": "string",
              "name": "logoUrl",
              "type": "string"
            },
            {
              "internalType": "address",
              "name": "admin",
              "type": "address"
            },
            {
              "internalType": "uint256",
              "name": "numberOfTickets",
              "type": "uint256"
            },
            {
              "internalType": "uint256",
              "name": "startTime",
              "type": "uint256"
            },
            {
              "internalType": "uint256",
              "name": "endTime",
              "type": "uint256"
            },
            {
              "internalType": "bool",
              "name": "isActive",
              "type": "bool"
            }
          ],
          "indexed": false,
          "internalType": "struct EventCreation.Event",
          "name": "createdEvent",
          "type": "tuple"
        }
      ],
      "name": "EventCreated",
      "type": "event"
    },
    {
      "anonymous": false,
      "inputs": [
        {
          "indexed": true,
          "internalType": "uint256",
          "name": "eventId",
          "type": "uint256"
        }
      ],
      "name": "EventDeleted",
      "type": "event"
    },
    {
      "anonymous": false,
      "inputs": [
        {
          "indexed": true,
          "internalType": "uint256",
          "name": "eventId",
          "type": "uint256"
        }
      ],
      "name": "EventReactivated",
      "type": "event"
    },
    {
      "anonymous": false,
      "inputs": [
        {
          "indexed": true,
          "internalType": "uint256",
          "name": "eventId",
          "type": "uint256"
        },
        {
          "indexed": false,
          "internalType": "string",
          "name": "newLocation",
          "type": "string"
        }
      ],
      "name": "LocationChanged",
      "type": "event"
    },
    {
      "anonymous": false,
      "inputs": [
        {
          "indexed": true,
          "internalType": "uint256",
          "name": "eventId",
          "type": "uint256"
        },
        {
          "indexed": false,
          "internalType": "string",
          "name": "newLogoUrl",
          "type": "string"
        }
      ],
      "name": "LogoUrlChanged",
      "type": "event"
    },
    {
      "anonymous": false,
      "inputs": [
        {
          "indexed": true,
          "internalType": "uint256",
          "name": "eventId",
          "type": "uint256"
        },
        {
          "indexed": false,
          "internalType": "uint256",
          "name": "newNumberOfTickets",
          "type": "uint256"
        }
      ],
      "name": "NumberOfTicketsChanged",
      "type": "event"
    },
    {
      "anonymous": false,
      "inputs": [
        {
          "indexed": true,
          "internalType": "uint256",
          "name": "eventId",
          "type": "uint256"
        },
        {
          "indexed": false,
          "internalType": "uint256",
          "name": "newStartTime",
          "type": "uint256"
        }
      ],
      "name": "StartTimeChanged",
      "type": "event"
    },
    {
      "inputs": [
        {
          "internalType": "address",
          "name": "allowedAddress",
          "type": "address"
        },
        {
          "internalType": "uint256",
          "name": "eventId",
          "type": "uint256"
        }
      ],
      "name": "addAllowedAddress",
      "outputs": [],
      "stateMutability": "nonpayable",
      "type": "function"
    },
    {
      "inputs": [
        {
          "internalType": "uint256",
          "name": "eventId",
          "type": "uint256"
        },
        {
          "internalType": "address",
          "name": "participant",
          "type": "address"
        },
        {
          "internalType": "address",
          "name": "extraAddress",
          "type": "address"
        }
      ],
      "name": "addParticipantWithTicket",
      "outputs": [],
      "stateMutability": "nonpayable",
      "type": "function"
    },
    {
      "inputs": [
        {
          "internalType": "uint256",
          "name": "",
          "type": "uint256"
        },
        {
          "internalType": "address",
          "name": "",
          "type": "address"
        }
      ],
      "name": "allowedList",
      "outputs": [
        {
          "internalType": "bool",
          "name": "",
          "type": "bool"
        }
      ],
      "stateMutability": "view",
      "type": "function"
    },
    {
      "inputs": [
        {
          "internalType": "uint256",
          "name": "",
          "type": "uint256"
        },
        {
          "internalType": "uint256",
          "name": "",
          "type": "uint256"
        }
      ],
      "name": "bundles",
      "outputs": [
        {
          "internalType": "address",
          "name": "",
          "type": "address"
        }
      ],
      "stateMutability": "view",
      "type": "function"
    },
    {
      "inputs": [
        {
          "internalType": "uint256",
          "name": "",
          "type": "uint256"
        },
        {
          "internalType": "address",
          "name": "",
          "type": "address"
        }
      ],
      "name": "bundlesMapping",
      "outputs": [
        {
          "internalType": "bool",
          "name": "",
          "type": "bool"
        }
      ],
      "stateMutability": "view",
      "type": "function"
    },
    {
      "inputs": [
        {
          "internalType": "string",
          "name": "newDescription",
          "type": "string"
        },
        {
          "internalType": "uint256",
          "name": "eventId",
          "type": "uint256"
        }
      ],
      "name": "changeDescription",
      "outputs": [],
      "stateMutability": "nonpayable",
      "type": "function"
    },
    {
      "inputs": [
        {
          "internalType": "uint256",
          "name": "newEndTime",
          "type": "uint256"
        },
        {
          "internalType": "uint256",
          "name": "eventId",
          "type": "uint256"
        }
      ],
      "name": "changeEndTime",
      "outputs": [],
      "stateMutability": "nonpayable",
      "type": "function"
    },
    {
      "inputs": [
        {
          "internalType": "string",
          "name": "newLocation",
          "type": "string"
        },
        {
          "internalType": "uint256",
          "name": "eventId",
          "type": "uint256"
        }
      ],
      "name": "changeLocation",
      "outputs": [],
      "stateMutability": "nonpayable",
      "type": "function"
    },
    {
      "inputs": [
        {
          "internalType": "string",
          "name": "newLogoUrl",
          "type": "string"
        },
        {
          "internalType": "uint256",
          "name": "eventId",
          "type": "uint256"
        }
      ],
      "name": "changeLogo",
      "outputs": [],
      "stateMutability": "nonpayable",
      "type": "function"
    },
    {
      "inputs": [
        {
          "internalType": "uint256",
          "name": "newNumberOfTickets",
          "type": "uint256"
        },
        {
          "internalType": "uint256",
          "name": "eventId",
          "type": "uint256"
        }
      ],
      "name": "changeNumberOfTickets",
      "outputs": [],
      "stateMutability": "nonpayable",
      "type": "function"
    },
    {
      "inputs": [
        {
          "internalType": "uint256",
          "name": "newStartTime",
          "type": "uint256"
        },
        {
          "internalType": "uint256",
          "name": "eventId",
          "type": "uint256"
        }
      ],
      "name": "changeStartTime",
      "outputs": [],
      "stateMutability": "nonpayable",
      "type": "function"
    },
    {
      "inputs": [
        {
          "internalType": "string",
          "name": "_name",
          "type": "string"
        },
        {
          "internalType": "uint256",
          "name": "_price",
          "type": "uint256"
        },
        {
          "internalType": "uint256",
          "name": "_eventId",
          "type": "uint256"
        },
        {
          "internalType": "address",
          "name": "_priceFeedHandlerAddress",
          "type": "address"
        }
      ],
      "name": "createAndRegisterBundle",
      "outputs": [],
      "stateMutability": "nonpayable",
      "type": "function"
    },
    {
      "inputs": [
        {
          "internalType": "string",
          "name": "name",
          "type": "string"
        },
        {
          "internalType": "string",
          "name": "symbol",
          "type": "string"
        },
        {
          "internalType": "string",
          "name": "uri",
          "type": "string"
        },
        {
          "internalType": "uint256",
          "name": "extraType",
          "type": "uint256"
        },
        {
          "internalType": "uint256",
          "name": "price",
          "type": "uint256"
        },
        {
          "internalType": "uint256",
          "name": "eventId",
          "type": "uint256"
        },
        {
          "internalType": "address",
          "name": "priceFeedHandlerAddress",
          "type": "address"
        }
      ],
      "name": "createAndRegisterExtra",
      "outputs": [],
      "stateMutability": "nonpayable",
      "type": "function"
    },
    {
      "inputs": [
        {
          "internalType": "string",
          "name": "name",
          "type": "string"
        },
        {
          "internalType": "string",
          "name": "description",
          "type": "string"
        },
        {
          "internalType": "string",
          "name": "location",
          "type": "string"
        },
        {
          "internalType": "string",
          "name": "logoUrl",
          "type": "string"
        },
        {
          "internalType": "uint256",
          "name": "numberOfTickets",
          "type": "uint256"
        },
        {
          "internalType": "uint256",
          "name": "startTime",
          "type": "uint256"
        },
        {
          "internalType": "uint256",
          "name": "endTime",
          "type": "uint256"
        }
      ],
      "name": "createEvent",
      "outputs": [],
      "stateMutability": "nonpayable",
      "type": "function"
    },
    {
      "inputs": [
        {
          "internalType": "uint256",
          "name": "eventId",
          "type": "uint256"
        }
      ],
      "name": "deleteEvent",
      "outputs": [],
      "stateMutability": "nonpayable",
      "type": "function"
    },
    {
      "inputs": [],
      "name": "eventCounter",
      "outputs": [
        {
          "internalType": "uint256",
          "name": "",
          "type": "uint256"
        }
      ],
      "stateMutability": "view",
      "type": "function"
    },
    {
      "inputs": [
        {
          "internalType": "uint256",
          "name": "",
          "type": "uint256"
        }
      ],
      "name": "events",
      "outputs": [
        {
          "internalType": "uint256",
          "name": "id",
          "type": "uint256"
        },
        {
          "internalType": "string",
          "name": "name",
          "type": "string"
        },
        {
          "internalType": "string",
          "name": "description",
          "type": "string"
        },
        {
          "internalType": "string",
          "name": "location",
          "type": "string"
        },
        {
          "internalType": "string",
          "name": "logoUrl",
          "type": "string"
        },
        {
          "internalType": "address",
          "name": "admin",
          "type": "address"
        },
        {
          "internalType": "uint256",
          "name": "numberOfTickets",
          "type": "uint256"
        },
        {
          "internalType": "uint256",
          "name": "startTime",
          "type": "uint256"
        },
        {
          "internalType": "uint256",
          "name": "endTime",
          "type": "uint256"
        },
        {
          "internalType": "bool",
          "name": "isActive",
          "type": "bool"
        }
      ],
      "stateMutability": "view",
      "type": "function"
    },
    {
      "inputs": [
        {
          "internalType": "uint256",
          "name": "",
          "type": "uint256"
        },
        {
          "internalType": "uint256",
          "name": "",
          "type": "uint256"
        }
      ],
      "name": "extras",
      "outputs": [
        {
          "internalType": "address",
          "name": "",
          "type": "address"
        }
      ],
      "stateMutability": "view",
      "type": "function"
    },
    {
      "inputs": [
        {
          "internalType": "uint256",
          "name": "eventId",
          "type": "uint256"
        }
      ],
      "name": "getAdmin",
      "outputs": [
        {
          "internalType": "address",
          "name": "",
          "type": "address"
        }
      ],
      "stateMutability": "view",
      "type": "function"
    },
    {
      "inputs": [
        {
          "internalType": "uint256",
          "name": "eventId",
          "type": "uint256"
        }
      ],
      "name": "getExtras",
      "outputs": [
        {
          "internalType": "address[]",
          "name": "",
          "type": "address[]"
        }
      ],
      "stateMutability": "view",
      "type": "function"
    },
    {
      "inputs": [
        {
          "internalType": "uint256",
          "name": "eventId",
          "type": "uint256"
        }
      ],
      "name": "getMintedTickets",
      "outputs": [
        {
          "internalType": "uint256",
          "name": "",
          "type": "uint256"
        }
      ],
      "stateMutability": "view",
      "type": "function"
    },
    {
      "inputs": [
        {
          "internalType": "uint256",
          "name": "eventId",
          "type": "uint256"
        }
      ],
      "name": "getNumberOfParticipants",
      "outputs": [
        {
          "internalType": "uint256",
          "name": "",
          "type": "uint256"
        }
      ],
      "stateMutability": "view",
      "type": "function"
    },
    {
      "inputs": [
        {
          "internalType": "uint256",
          "name": "eventId",
          "type": "uint256"
        }
      ],
      "name": "getNumberOfTickets",
      "outputs": [
        {
          "internalType": "uint256",
          "name": "",
          "type": "uint256"
        }
      ],
      "stateMutability": "view",
      "type": "function"
    },
    {
      "inputs": [
        {
          "internalType": "address",
          "name": "participantAddress",
          "type": "address"
        }
      ],
      "name": "getReedemedTicketsOfParticipant",
      "outputs": [
        {
          "internalType": "address[]",
          "name": "",
          "type": "address[]"
        }
      ],
      "stateMutability": "view",
      "type": "function"
    },
    {
      "inputs": [
        {
          "internalType": "uint256",
          "name": "eventId",
          "type": "uint256"
        }
      ],
      "name": "increaseMintedTickets",
      "outputs": [],
      "stateMutability": "nonpayable",
      "type": "function"
    },
    {
      "inputs": [
        {
          "internalType": "uint256",
          "name": "eventId",
          "type": "uint256"
        },
        {
          "internalType": "address",
          "name": "addressToCheck",
          "type": "address"
        }
      ],
      "name": "isAllowed",
      "outputs": [
        {
          "internalType": "bool",
          "name": "",
          "type": "bool"
        }
      ],
      "stateMutability": "view",
      "type": "function"
    },
    {
      "inputs": [
        {
          "internalType": "uint256",
          "name": "_eventId",
          "type": "uint256"
        },
        {
          "internalType": "address",
          "name": "_address",
          "type": "address"
        }
      ],
      "name": "isBundleContractPartOfEvent",
      "outputs": [
        {
          "internalType": "bool",
          "name": "",
          "type": "bool"
        }
      ],
      "stateMutability": "view",
      "type": "function"
    },
    {
      "inputs": [
        {
          "internalType": "uint256",
          "name": "",
          "type": "uint256"
        }
      ],
      "name": "mintedTickets",
      "outputs": [
        {
          "internalType": "uint256",
          "name": "",
          "type": "uint256"
        }
      ],
      "stateMutability": "view",
      "type": "function"
    },
    {
      "inputs": [
        {
          "internalType": "uint256",
          "name": "",
          "type": "uint256"
        },
        {
          "internalType": "uint256",
          "name": "",
          "type": "uint256"
        }
      ],
      "name": "participants",
      "outputs": [
        {
          "internalType": "address",
          "name": "",
          "type": "address"
        }
      ],
      "stateMutability": "view",
      "type": "function"
    },
    {
      "inputs": [
        {
          "internalType": "address",
          "name": "",
          "type": "address"
        },
        {
          "internalType": "uint256",
          "name": "",
          "type": "uint256"
        }
      ],
      "name": "participantsTickets",
      "outputs": [
        {
          "internalType": "address",
          "name": "",
          "type": "address"
        }
      ],
      "stateMutability": "view",
      "type": "function"
    },
    {
      "inputs": [
        {
          "internalType": "uint256",
          "name": "eventId",
          "type": "uint256"
        }
      ],
      "name": "reactivateEvent",
      "outputs": [],
      "stateMutability": "nonpayable",
      "type": "function"
    }
  ],
  "bytecode": "0x608060405234801561001057600080fd5b50615f97806100206000396000f3fe60806040523480156200001157600080fd5b50600436106200020d5760003560e01c80636e59b1ad1162000125578063b8956cd411620000af578063e26c2c6b116200007a578063e26c2c6b1462000592578063e27923bc14620005a9578063e6b5849914620005cf578063f8749a5814620005e657600080fd5b8063b8956cd4146200052a578063be2523861462000541578063cd710ada1462000558578063cf6e1d11146200057b57600080fd5b8063832a47dd11620000f0578063832a47dd14620004a9578063975aeb8214620004c05780639bc1463714620004fc578063b3be7f01146200051357600080fd5b80636e59b1ad146200043e57806378db9cd714620004645780637a69e2da146200047b57806381fb1fb4146200049257600080fd5b806341466b2811620001a75780635d19cea611620001725780635d19cea614620003b15780635faa299a14620003c857806364ead1eb14620004045780636e143abb146200042757600080fd5b806341466b28146200031d5780635115eec2146200035f57806352c55db9146200039057806358528aa5146200039a57600080fd5b8063111fd88b11620001e8578063111fd88b146200028e5780632c48a9b014620002bd5780632e29b30e14620002ef578063381ee22d146200030657600080fd5b8063098b16cb14620002125780630b79143014620002465780630d4b90c71462000275575b600080fd5b620002296200022336600462001591565b620005fd565b6040516001600160a01b0390911681526020015b60405180910390f35b6200025d62000257366004620015b4565b62000636565b6040516200023d9a9998979695949392919062001616565b6200028c6200028636600462001591565b620008d1565b005b620002296200029f366004620015b4565b6000908152602081905260409020600501546001600160a01b031690565b620002e0620002ce366004620015b4565b60009081526004602052604090205490565b6040519081526020016200023d565b6200028c6200030036600462001591565b62000964565b6200028c62000317366004620016fb565b620009eb565b6200034e6200032e36600462001768565b600360209081526000928352604080842090915290825290205460ff1681565b60405190151581526020016200023d565b6200034e6200037036600462001768565b600660209081526000928352604080842090915290825290205460ff1681565b620002e060095481565b6200028c620003ab366004620016fb565b62000a8d565b62000229620003c236600462001797565b62000b21565b6200034e620003d936600462001768565b60009182526003602090815260408084206001600160a01b0393909316845291905290205460ff1690565b620002e062000415366004620015b4565b60009081526007602052604090205490565b6200028c620004383660046200186f565b62000b3e565b620002e06200044f366004620015b4565b60009081526020819052604090206006015490565b6200028c6200047536600462001931565b62000c3d565b6200028c6200048c36600462001972565b62000d1c565b62000229620004a336600462001591565b62000db9565b6200028c620004ba366004620015b4565b62000dd6565b6200034e620004d136600462001768565b60009182526006602090815260408084206001600160a01b0393909316845291905290205460ff1690565b6200028c6200050d36600462001797565b62000e5e565b6200028c62000524366004620019df565b62000ecf565b6200028c6200053b366004620016fb565b6200112a565b6200028c62000552366004620015b4565b620011be565b620002e062000569366004620015b4565b60046020526000908152604090205481565b620002296200058c36600462001591565b6200122a565b6200028c620005a336600462001591565b62001247565b620005c0620005ba366004620015b4565b620012ce565b6040516200023d919062001acd565b620005c0620005e036600462001b1c565b6200133c565b6200028c620005f7366004620015b4565b620013b2565b600160205281600052604060002081815481106200061a57600080fd5b6000918252602090912001546001600160a01b03169150829050565b600060208190529081526040902080546001820180549192916200065a9062001b41565b80601f0160208091040260200160405190810160405280929190818152602001828054620006889062001b41565b8015620006d95780601f10620006ad57610100808354040283529160200191620006d9565b820191906000526020600020905b815481529060010190602001808311620006bb57829003601f168201915b505050505090806002018054620006f09062001b41565b80601f01602080910402602001604051908101604052809291908181526020018280546200071e9062001b41565b80156200076f5780601f1062000743576101008083540402835291602001916200076f565b820191906000526020600020905b8154815290600101906020018083116200075157829003601f168201915b505050505090806003018054620007869062001b41565b80601f0160208091040260200160405190810160405280929190818152602001828054620007b49062001b41565b8015620008055780601f10620007d95761010080835404028352916020019162000805565b820191906000526020600020905b815481529060010190602001808311620007e757829003601f168201915b5050505050908060040180546200081c9062001b41565b80601f01602080910402602001604051908101604052809291908181526020018280546200084a9062001b41565b80156200089b5780601f106200086f576101008083540402835291602001916200089b565b820191906000526020600020905b8154815290600101906020018083116200087d57829003601f168201915b505050600584015460068501546007860154600887015460099097015495966001600160a01b0390931695919450925060ff168a565b60008181526020819052604090206005015481906001600160a01b031633146200091657604051632762d31160e01b8152600481018290526024015b60405180910390fd5b60008281526020818152604091829020600801859055905184815283917f6cdad8629a6fd97b72424fa66d4b88752e2dfb2eb667e5d2b609a6544441aa3a91015b60405180910390a2505050565b60008181526020819052604090206005015481906001600160a01b03163314620009a557604051632762d31160e01b8152600481018290526024016200090d565b60008281526020818152604091829020600701859055905184815283917fbefe8e3983c0dc663c4ba451fc82d4ff7eb2e4ccc4b944874abea1ecc841feae910162000957565b60008181526020819052604090206005015481906001600160a01b0316331462000a2c57604051632762d31160e01b8152600481018290526024016200090d565b600082815260208190526040902060030162000a4a84868362001bd0565b50817fc966a534f9ea8b5fa4b2d19a749446e4735b139324b0422bfbd6dea32940c277858560405162000a7f92919062001cc7565b60405180910390a250505050565b60008181526020819052604090206005015481906001600160a01b0316331462000ace57604051632762d31160e01b8152600481018290526024016200090d565b600082815260208190526040902060040162000aec84868362001bd0565b50817f50dc1995455850d4421eba1f9a31a69b14e1d2a1e25d9d3a9c91e4af1f0d1f6b858560405162000a7f92919062001cc7565b600860205281600052604060002081815481106200061a57600080fd5b60008281526020819052604090206005015482906001600160a01b0316331462000b7f57604051632762d31160e01b8152600481018290526024016200090d565b6000888888888830898960405162000b979062001575565b62000baa98979695949392919062001ce5565b604051809103906000f08015801562000bc7573d6000803e3d6000fd5b5060405163f2fde38b60e01b81523360048201529091506001600160a01b0382169063f2fde38b90602401600060405180830381600087803b15801562000c0d57600080fd5b505af115801562000c22573d6000803e3d6000fd5b5050505062000c32818562001437565b505050505050505050565b6000838152600260209081526040808320338452909152812054849160ff9091161515900362000c845760405163935aa0e960e01b8152600481018290526024016200090d565b6001600160a01b038316600090815260086020526040812054900362000cdc5760008481526007602090815260408220805460018101825590835291200180546001600160a01b0319166001600160a01b0385161790555b506001600160a01b0391821660009081526008602090815260408220805460018101825590835291200180546001600160a01b0319169190921617905550565b60008281526020819052604090206005015482906001600160a01b0316331462000d5d57604051632762d31160e01b8152600481018290526024016200090d565b600030838589898960405162000d739062001583565b62000d849695949392919062001d5f565b604051809103906000f08015801562000da1573d6000803e3d6000fd5b50905062000db08185620014d4565b50505050505050565b600760205281600052604060002081815481106200061a57600080fd5b60008181526020819052604090206005015481906001600160a01b0316331462000e1757604051632762d31160e01b8152600481018290526024016200090d565b600082815260208190526040808220600901805460ff191660011790555183917f5f8f608bcaab1e48c138f71ca0f381b01519122d0ffe27c0595c98db798aa97091a25050565b60008181526020819052604090206005015481906001600160a01b0316331462000e9f57604051632762d31160e01b8152600481018290526024016200090d565b5060009081526003602090815260408083206001600160a01b03909416835292905220805460ff19166001179055565b600980546000918262000ee28362001da8565b9190505590506040518061014001604052808281526020018d8d8080601f016020809104026020016040519081016040528093929190818152602001838380828437600092019190915250505090825250604080516020601f8e018190048102820181019092528c815291810191908d908d9081908401838280828437600092019190915250505090825250604080516020601f8c018190048102820181019092528a815291810191908b908b9081908401838280828437600092019190915250505090825250604080516020601f8a0181900481028201810190925288815291810191908990899081908401838280828437600092018290525093855250503360208085019190915260408085018a90526060850189905260808501889052600160a0909501859052868452838252909220845181559184015191928301916200102f91508262001dd0565b506040820151600282019062001046908262001dd0565b50606082015160038201906200105d908262001dd0565b506080820151600482019062001074908262001dd0565b5060a08201516005820180546001600160a01b0319166001600160a01b0390921691909117905560c0820151600682015560e082015160078201556101008201516008820155610120909101516009909101805460ff19169115159190911790556000818152602081905260409081902090517ff36aa47ef76210dd80bc48b615ea0bc4c4a6f1dacd0f3c3f7e7698b99fe3a29391620011149162001f22565b60405180910390a1505050505050505050505050565b60008181526020819052604090206005015481906001600160a01b031633146200116b57604051632762d31160e01b8152600481018290526024016200090d565b60008281526020819052604090206002016200118984868362001bd0565b50817ff2da8d33c1b28dc862c3260e93659ab53e6453f33919b9c86c39070dee2389ca858560405162000a7f92919062001cc7565b6000818152600260209081526040808320338452909152812054829160ff90911615159003620012055760405163935aa0e960e01b8152600481018290526024016200090d565b6000828152600460205260408120805491620012218362001da8565b91905055505050565b600560205281600052604060002081815481106200061a57600080fd5b60008181526020819052604090206005015481906001600160a01b031633146200128857604051632762d31160e01b8152600481018290526024016200090d565b60008281526020818152604091829020600601859055905184815283917fa39b234224babfe908d053ed40d3e630df1b4159a79dafa984f21ef0f395f07c910162000957565b6000818152600160209081526040918290208054835181840281018401909452808452606093928301828280156200133057602002820191906000526020600020905b81546001600160a01b0316815260019091019060200180831162001311575b50505050509050919050565b6001600160a01b03811660009081526008602090815260409182902080548351818402810184019094528084526060939283018282801562001330576020028201919060005260206000209081546001600160a01b03168152600190910190602001808311620013115750505050509050919050565b60008181526020819052604090206005015481906001600160a01b03163314620013f357604051632762d31160e01b8152600481018290526024016200090d565b600082815260208190526040808220600901805460ff191690555183917f24089da2b94d456671c6e08e154081718367fe1b3eb2bf048f9ded0b2ce2270a91a25050565b60008181526020819052604090206005015481906001600160a01b031633146200147857604051632762d31160e01b8152600481018290526024016200090d565b506000818152600160208181526040808420805480850182559085528285200180546001600160a01b039097166001600160a01b031990971687179055938352600281528383209483529390935220805460ff19169091179055565b60008181526020819052604090206005015481906001600160a01b031633146200151557604051632762d31160e01b8152600481018290526024016200090d565b5060008181526005602090815260408083208054600181810183559185528385200180546001600160a01b039097166001600160a01b0319909716871790559383526006825280832094835293905291909120805460ff19169091179055565b61317f8062001ff983390190565b610dea806200517883390190565b60008060408385031215620015a557600080fd5b50508035926020909101359150565b600060208284031215620015c757600080fd5b5035919050565b6000815180845260005b81811015620015f657602081850181015186830182015201620015d8565b506000602082860101526020601f19601f83011685010191505092915050565b60006101408c8352806020840152620016328184018d620015ce565b9050828103604084015262001648818c620015ce565b905082810360608401526200165e818b620015ce565b9050828103608084015262001674818a620015ce565b6001600160a01b039890981660a0840152505060c081019490945260e084019290925261010083015215156101209091015295945050505050565b60008083601f840112620016c257600080fd5b50813567ffffffffffffffff811115620016db57600080fd5b602083019150836020828501011115620016f457600080fd5b9250929050565b6000806000604084860312156200171157600080fd5b833567ffffffffffffffff8111156200172957600080fd5b6200173786828701620016af565b909790965060209590950135949350505050565b80356001600160a01b03811681146200176357600080fd5b919050565b600080604083850312156200177c57600080fd5b823591506200178e602084016200174b565b90509250929050565b60008060408385031215620017ab57600080fd5b620017b6836200174b565b946020939093013593505050565b634e487b7160e01b600052604160045260246000fd5b600082601f830112620017ec57600080fd5b813567ffffffffffffffff808211156200180a576200180a620017c4565b604051601f8301601f19908116603f01168101908282118183101715620018355762001835620017c4565b816040528381528660208588010111156200184f57600080fd5b836020870160208301376000602085830101528094505050505092915050565b600080600080600080600060e0888a0312156200188b57600080fd5b873567ffffffffffffffff80821115620018a457600080fd5b620018b28b838c01620017da565b985060208a0135915080821115620018c957600080fd5b620018d78b838c01620017da565b975060408a0135915080821115620018ee57600080fd5b50620018fd8a828b01620017da565b955050606088013593506080880135925060a088013591506200192360c089016200174b565b905092959891949750929550565b6000806000606084860312156200194757600080fd5b8335925062001959602085016200174b565b915062001969604085016200174b565b90509250925092565b6000806000806000608086880312156200198b57600080fd5b853567ffffffffffffffff811115620019a357600080fd5b620019b188828901620016af565b9096509450506020860135925060408601359150620019d3606087016200174b565b90509295509295909350565b600080600080600080600080600080600060e08c8e03121562001a0157600080fd5b67ffffffffffffffff808d35111562001a1957600080fd5b62001a288e8e358f01620016af565b909c509a5060208d013581101562001a3f57600080fd5b62001a518e60208f01358f01620016af565b909a50985060408d013581101562001a6857600080fd5b62001a7a8e60408f01358f01620016af565b909850965060608d013581101562001a9157600080fd5b5062001aa48d60608e01358e01620016af565b9b9e9a9d50989b979a969995989760808101359660a0820135965060c090910135945092505050565b6020808252825182820181905260009190848201906040850190845b8181101562001b105783516001600160a01b03168352928401929184019160010162001ae9565b50909695505050505050565b60006020828403121562001b2f57600080fd5b62001b3a826200174b565b9392505050565b600181811c9082168062001b5657607f821691505b60208210810362001b7757634e487b7160e01b600052602260045260246000fd5b50919050565b601f82111562001bcb57600081815260208120601f850160051c8101602086101562001ba65750805b601f850160051c820191505b8181101562001bc75782815560010162001bb2565b5050505b505050565b67ffffffffffffffff83111562001beb5762001beb620017c4565b62001c038362001bfc835462001b41565b8362001b7d565b6000601f84116001811462001c3a576000851562001c215750838201355b600019600387901b1c1916600186901b17835562001c97565b600083815260209020601f19861690835b8281101562001c6d578685013582556020948501946001909201910162001c4b565b508682101562001c8b5760001960f88860031b161c19848701351681555b505060018560011b0183555b5050505050565b81835281816020850137506000828201602090810191909152601f909101601f19169091010190565b60208152600062001cdd60208301848662001c9e565b949350505050565b600061010080835262001cfb8184018c620015ce565b9050828103602084015262001d11818b620015ce565b9050828103604084015262001d27818a620015ce565b6060840198909852505060808101949094526001600160a01b0392831660a085015260c08401919091521660e0909101529392505050565b6001600160a01b038781168252861660208201526040810185905260a06060820181905260009062001d95908301858762001c9e565b9050826080830152979650505050505050565b60006001820162001dc957634e487b7160e01b600052601160045260246000fd5b5060010190565b815167ffffffffffffffff81111562001ded5762001ded620017c4565b62001e058162001dfe845462001b41565b8462001b7d565b602080601f83116001811462001e3d576000841562001e245750858301515b600019600386901b1c1916600185901b17855562001bc7565b600085815260208120601f198616915b8281101562001e6e5788860151825594840194600190910190840162001e4d565b508582101562001e8d5787850151600019600388901b60f8161c191681555b5050505050600190811b01905550565b6000815462001eac8162001b41565b80855260206001838116801562001ecc576001811462001ee75762001f17565b60ff1985168884015283151560051b88018301955062001f17565b866000528260002060005b8581101562001f0f5781548a820186015290830190840162001ef2565b890184019650505b505050505092915050565b6020815281546020820152600061014080604084015262001f4b61016084016001860162001e9d565b601f198085830301606086015262001f67826002880162001e9d565b91508085830301608086015262001f82826003880162001e9d565b9150808583030160a08601525062001f9e816004870162001e9d565b905062001fb560058601546001600160a01b031690565b6001600160a01b031660c0850152600685015460e08501526007850154610100850152600885015461012085015260099094015460ff161515920191909152509056fe60a06040526000196013553480156200001757600080fd5b506040516200317f3803806200317f8339810160408190526200003a9162000324565b33888860006200004b838262000487565b5060016200005a828262000487565b50506007805460ff19169055506001600160a01b0381166200009757604051631e4fbdf760e01b8152600060048201526024015b60405180910390fd5b620000a2816200010f565b50600d80546001600160a01b0319166001600160a01b038516179055601182905560108490556012620000d6878262000487565b506080859052600e80546001600160a01b0319166001600160a01b0383161790556200010162000161565b505050505050505062000553565b600c80546001600160a01b038381166001600160a01b0319831681179093556040519116919082907f8be0079c531659141344cd1fd0a4f28419497f9722a3daafe3b4186f6b6457e090600090a35050565b600c546001600160a01b031633148015906200019257503360009081526014602052604090205460ff161515600114155b15620001b45760405163118cdaa760e01b81523360048201526024016200008e565b620001be620001c0565b565b620001ca6200021d565b6007805460ff191660011790557f62e78cea01bee320cd4e420270b5ea74000d11b0c9f74754ebdbfc544b05a258620002003390565b6040516001600160a01b03909116815260200160405180910390a1565b60075460ff1615620001be5760405163d93c066560e01b815260040160405180910390fd5b634e487b7160e01b600052604160045260246000fd5b600082601f8301126200026a57600080fd5b81516001600160401b038082111562000287576200028762000242565b604051601f8301601f19908116603f01168101908282118183101715620002b257620002b262000242565b81604052838152602092508683858801011115620002cf57600080fd5b600091505b83821015620002f35785820183015181830184015290820190620002d4565b600093810190920192909252949350505050565b80516001600160a01b03811681146200031f57600080fd5b919050565b600080600080600080600080610100898b0312156200034257600080fd5b88516001600160401b03808211156200035a57600080fd5b620003688c838d0162000258565b995060208b01519150808211156200037f57600080fd5b6200038d8c838d0162000258565b985060408b0151915080821115620003a457600080fd5b50620003b38b828c0162000258565b9650506060890151945060808901519350620003d260a08a0162000307565b925060c08901519150620003e960e08a0162000307565b90509295985092959890939650565b600181811c908216806200040d57607f821691505b6020821081036200042e57634e487b7160e01b600052602260045260246000fd5b50919050565b601f8211156200048257600081815260208120601f850160051c810160208610156200045d5750805b601f850160051c820191505b818110156200047e5782815560010162000469565b5050505b505050565b81516001600160401b03811115620004a357620004a362000242565b620004bb81620004b48454620003f8565b8462000434565b602080601f831160018114620004f35760008415620004da5750858301515b600019600386901b1c1916600185901b1785556200047e565b600085815260208120601f198616915b82811015620005245788860151825594840194600190910190840162000503565b5085821015620005435787850151600019600388901b60f8161c191681555b5050505050600190811b01905550565b608051612bf46200058b600039600081816105da01528181610f82015281816111e00152818161149b01526118ae0152612bf46000f3fe6080604052600436106102515760003560e01c80638456cb5911610139578063a22cb465116100b6578063c87b56dd1161007a578063c87b56dd146106d5578063db006a75146106f5578063e01d55c514610715578063e985e9c514610735578063eac989f814610755578063f2fde38b1461076a57600080fd5b8063a22cb46514610625578063b587544b14610645578063b88d4fde14610665578063bdae0c6b14610685578063c6e047cf146106b557600080fd5b806396c38b0a116100fd57806396c38b0a14610582578063996517cf146105b25780639a008faa146105c8578063a035b1fe146105fc578063a14481941461061257600080fd5b80638456cb59146104ea5780638d6cc56d146104ff5780638da5cb5b1461051f5780638faece051461053d57806395d89b411461056d57600080fd5b80633ccfd60b116101d25780635c975abb116101965780635c975abb1461043d5780635f2ec20c146104555780636352211e1461047557806370a0823114610495578063715018a6146104b55780637a7e3c12146104ca57600080fd5b80633ccfd60b146103c05780633f4ba83a146103c857806342842e0e146103dd5780634f6ccce7146103fd578063570b3c6a1461041d57600080fd5b806318160ddd1161021957806318160ddd1461032b57806323b872dd146103405780632f745c591461036057806330b98701146103805780633b446bc2146103a057600080fd5b806301ffc9a71461025657806306fdde031461028b578063081812fc146102ad578063089cdd0c146102e5578063095ea7b314610309575b600080fd5b34801561026257600080fd5b50610276610271366004612555565b61078a565b60405190151581526020015b60405180910390f35b34801561029757600080fd5b506102a061079b565b60405161028291906125c2565b3480156102b957600080fd5b506102cd6102c83660046125d5565b61082d565b6040516001600160a01b039091168152602001610282565b3480156102f157600080fd5b506102fb60115481565b604051908152602001610282565b34801561031557600080fd5b5061032961032436600461260a565b610856565b005b34801561033757600080fd5b50600a546102fb565b34801561034c57600080fd5b5061032961035b366004612634565b610865565b34801561036c57600080fd5b506102fb61037b36600461260a565b6108f5565b34801561038c57600080fd5b5061032961039b36600461260a565b610908565b3480156103ac57600080fd5b506102fb6103bb366004612670565b610a63565b610329610acc565b3480156103d457600080fd5b50610329610bb1565b3480156103e957600080fd5b506103296103f8366004612634565b610c17565b34801561040957600080fd5b506102fb6104183660046125d5565b610c37565b34801561042957600080fd5b5061032961043836600461268b565b610c90565b34801561044957600080fd5b5060075460ff16610276565b34801561046157600080fd5b50610329610470366004612670565b610cd8565b34801561048157600080fd5b506102cd6104903660046125d5565b610d04565b3480156104a157600080fd5b506102fb6104b0366004612670565b610d21565b3480156104c157600080fd5b50610329610d69565b3480156104d657600080fd5b506103296104e536600461260a565b610d7b565b3480156104f657600080fd5b50610329610e32565b34801561050b57600080fd5b5061032961051a3660046125d5565b610e75565b34801561052b57600080fd5b50600c546001600160a01b03166102cd565b34801561054957600080fd5b506102766105583660046125d5565b60156020526000908152604090205460ff1681565b34801561057957600080fd5b506102a0610eb5565b34801561058e57600080fd5b5061027661059d366004612670565b60146020526000908152604090205460ff1681565b3480156105be57600080fd5b506102fb60135481565b3480156105d457600080fd5b506102fb7f000000000000000000000000000000000000000000000000000000000000000081565b34801561060857600080fd5b506102fb60105481565b61032961062036600461260a565b610ec4565b34801561063157600080fd5b5061032961064036600461270b565b611128565b34801561065157600080fd5b5061032961066036600461260a565b611133565b34801561067157600080fd5b50610329610680366004612758565b611383565b34801561069157600080fd5b506102766106a0366004612670565b60166020526000908152604090205460ff1681565b3480156106c157600080fd5b50600e546102cd906001600160a01b031681565b3480156106e157600080fd5b506102a06106f03660046125d5565b61139a565b34801561070157600080fd5b506103296107103660046125d5565b6113a5565b34801561072157600080fd5b506103296107303660046125d5565b611542565b34801561074157600080fd5b50610276610750366004612834565b611582565b34801561076157600080fd5b506102a06115b0565b34801561077657600080fd5b50610329610785366004612670565b61163e565b60006107958261167c565b92915050565b6060600080546107aa90612867565b80601f01602080910402602001604051908101604052809291908181526020018280546107d690612867565b80156108235780601f106107f857610100808354040283529160200191610823565b820191906000526020600020905b81548152906001019060200180831161080657829003601f168201915b5050505050905090565b6000610838826116a1565b506000828152600460205260409020546001600160a01b0316610795565b6108618282336116da565b5050565b6001600160a01b03821661089457604051633250574960e11b8152600060048201526024015b60405180910390fd5b60006108a18383336116e7565b9050836001600160a01b0316816001600160a01b0316146108ef576040516364283d7b60e01b81526001600160a01b038086166004830152602482018490528216604482015260640161088b565b50505050565b600061090183836116fc565b9392505050565b601154600d54604051632fd514cd60e11b8152600481018390523360248201526001600160a01b0390911690635faa299a90604401602060405180830381865afa15801561095a573d6000803e3d6000fd5b505050506040513d601f19601f8201168201806040525081019061097e91906128a1565b15156000036109ad57601154604051636af785e360e11b8152600481019190915233602482015260440161088b565b8282806109b983610a63565b10156109e35760405163352a3b5f60e21b81526001600160a01b038316600482015260240161088b565b6000806109ef87610d21565b905060005b818111610a595786831015610a47576000610a0f89836108f5565b60008181526015602052604081205491925060ff90911615159003610a4557610a37816113a5565b83610a41816128d4565b9450505b505b80610a51816128d4565b9150506109f4565b5050505050505050565b60008060005b610a7284610d21565b811015610ac5576000610a8585836108f5565b60008181526015602052604081205491925060ff90911615159003610ab25782610aae816128d4565b9350505b5080610abd816128d4565b915050610a69565b5092915050565b610ad4611761565b4780610b225760405162461bcd60e51b815260206004820152601960248201527f4e6f206574686572206c65667420746f20776974686472617700000000000000604482015260640161088b565b604051600090339083908381818185875af1925050503d8060008114610b64576040519150601f19603f3d011682016040523d82523d6000602084013e610b69565b606091505b50509050806108615760405162461bcd60e51b81526020600482015260146024820152732330b4b632b2103a379039b2b7321022ba3432b960611b604482015260640161088b565b600c546001600160a01b03163314801590610be157503360009081526014602052604090205460ff161515600114155b15610c0d57335b60405163118cdaa760e01b81526001600160a01b03909116600482015260240161088b565b610c15611779565b565b610c3283838360405180602001604052806000815250611383565b505050565b6000610c42600a5490565b8210610c6b5760405163295f44f760e21b8152600060048201526024810183905260440161088b565b600a8281548110610c7e57610c7e6128ed565b90600052602060002001549050919050565b600c546001600160a01b03163314801590610cc057503360009081526014602052604090205460ff161515600114155b15610ccb5733610be8565b6012610c32828483612949565b610ce0611761565b6001600160a01b03166000908152601460205260409020805460ff19166001179055565b6000818152600260205260408120546001600160a01b0316610795565b60006001600160a01b038216610d4d576040516322718ad960e21b81526000600482015260240161088b565b506001600160a01b031660009081526003602052604090205490565b610d71611761565b610c1560006117cb565b338180610d8783610a63565b1015610db15760405163352a3b5f60e21b81526001600160a01b038316600482015260240161088b565b600080610dbd33610d21565b905060005b818111610e295785831015610e17576000610ddd33836108f5565b60008181526015602052604081205491925060ff90911615159003610e1557610e07338983610865565b83610e11816128d4565b9450505b505b80610e21816128d4565b915050610dc2565b50505050505050565b600c546001600160a01b03163314801590610e6257503360009081526014602052604090205460ff161515600114155b15610e6d5733610be8565b610c1561181d565b600c546001600160a01b03163314801590610ea557503360009081526014602052604090205460ff161515600114155b15610eb05733610be8565b601055565b6060600180546107aa90612867565b600e54601054604051638542bdff60e01b81526004810191909152349183916000916001600160a01b031690638542bdff90602401602060405180830381865afa158015610f16573d6000803e3d6000fd5b505050506040513d601f19601f82011682018060405250810190610f3a9190612a09565b9050610f468282612a22565b831015610f74576010546040516324299e4f60e21b815261088b918591600401918252602082015260400190565b610f7c61185a565b601154847f000000000000000000000000000000000000000000000000000000000000000015801561108f5750600d54604051636e59b1ad60e01b8152600481018490526001600160a01b0390911690636e59b1ad90602401602060405180830381865afa158015610ff2573d6000803e3d6000fd5b505050506040513d601f19601f820116820180604052508101906110169190612a09565b600d546040516302c48a9b60e41b81526004810185905283916001600160a01b031690632c48a9b090602401602060405180830381865afa15801561105f573d6000803e3d6000fd5b505050506040513d601f19601f820116820180604052508101906110839190612a09565b61108d9190612a39565b115b156110b0576040516349a94ec760e01b81526004810183905260240161088b565b8560135481600f546110c29190612a39565b1180156110d3575060001960135414155b156110f757600f5460405163059949f560e51b815260040161088b91815260200190565b60005b8781101561111d5761110b8961187e565b80611115816128d4565b9150506110fa565b505050505050505050565b6108613383836119d9565b600d54601154604051634bad75c160e11b815260048101919091523360248201526001600160a01b039091169063975aeb8290604401602060405180830381865afa158015611186573d6000803e3d6000fd5b505050506040513d601f19601f820116820180604052508101906111aa91906128a1565b15156000036111d257601154604051632ad8218d60e21b815260040161088b91815260200190565b6111da61185a565b601154817f00000000000000000000000000000000000000000000000000000000000000001580156112ed5750600d54604051636e59b1ad60e01b8152600481018490526001600160a01b0390911690636e59b1ad90602401602060405180830381865afa158015611250573d6000803e3d6000fd5b505050506040513d601f19601f820116820180604052508101906112749190612a09565b600d546040516302c48a9b60e41b81526004810185905283916001600160a01b031690632c48a9b090602401602060405180830381865afa1580156112bd573d6000803e3d6000fd5b505050506040513d601f19601f820116820180604052508101906112e19190612a09565b6112eb9190612a39565b115b1561130e576040516349a94ec760e01b81526004810183905260240161088b565b8260135481600f546113209190612a39565b118015611331575060001960135414155b1561135557600f5460405163059949f560e51b815260040161088b91815260200190565b60005b8481101561137b576113698661187e565b80611373816128d4565b915050611358565b505050505050565b61138e848484610865565b6108ef84848484611a78565b606061079582611ba1565b601154600d54604051632fd514cd60e11b8152600481018390523360248201526001600160a01b0390911690635faa299a90604401602060405180830381865afa1580156113f7573d6000803e3d6000fd5b505050506040513d601f19601f8201168201806040525081019061141b91906128a1565b151560000361144a57601154604051636af785e360e11b8152600481019190915233602482015260440161088b565b81600061145682610d04565b6001600160a01b0316036114805760405163995996d560e01b81526004810182905260240161088b565b6000838152601560205260408120805460ff191660011790557f00000000000000000000000000000000000000000000000000000000000000009003610c3257600d546011546001600160a01b03909116906378db9cd7906114e186610d04565b6040516001600160e01b031960e085901b16815260048101929092526001600160a01b03166024820152306044820152606401600060405180830381600087803b15801561152e57600080fd5b505af1158015610e29573d6000803e3d6000fd5b600c546001600160a01b0316331480159061157257503360009081526014602052604090205460ff161515600114155b1561157d5733610be8565b601355565b6001600160a01b03918216600090815260056020908152604080832093909416825291909152205460ff1690565b601280546115bd90612867565b80601f01602080910402602001604051908101604052809291908181526020018280546115e990612867565b80156116365780601f1061160b57610100808354040283529160200191611636565b820191906000526020600020905b81548152906001019060200180831161161957829003601f168201915b505050505081565b611646611761565b6001600160a01b03811661167057604051631e4fbdf760e01b81526000600482015260240161088b565b611679816117cb565b50565b60006001600160e01b0319821663780e9d6360e01b1480610795575061079582611caa565b6000818152600260205260408120546001600160a01b03168061079557604051637e27328960e01b81526004810184905260240161088b565b610c328383836001611ccf565b60006116f4848484611dd5565b949350505050565b600061170783610d21565b82106117385760405163295f44f760e21b81526001600160a01b03841660048201526024810183905260440161088b565b506001600160a01b03919091166000908152600860209081526040808320938352929052205490565b600c546001600160a01b03163314610c155733610be8565b611781611ea2565b6007805460ff191690557f5db9ee0a495bf2e6ff9c91a7834c1ba4fdd244a5e8aa4e537bd38aeae4b073aa335b6040516001600160a01b03909116815260200160405180910390a1565b600c80546001600160a01b038381166001600160a01b0319831681179093556040519116919082907f8be0079c531659141344cd1fd0a4f28419497f9722a3daafe3b4186f6b6457e090600090a35050565b61182561185a565b6007805460ff191660011790557f62e78cea01bee320cd4e420270b5ea74000d11b0c9f74754ebdbfc544b05a2586117ae3390565b60075460ff1615610c155760405163d93c066560e01b815260040160405180910390fd5b600f80546000918261188f836128d4565b909155506000818152601560205260408120805460ff191690559091507f0000000000000000000000000000000000000000000000000000000000000000900361193b57600d54601154604051635f1291c360e11b81526001600160a01b039092169163be252386916119089160040190815260200190565b600060405180830381600087803b15801561192257600080fd5b505af1158015611936573d6000803e3d6000fd5b505050505b6119458282611ec5565b610861816012805461195690612867565b80601f016020809104026020016040519081016040528092919081815260200182805461198290612867565b80156119cf5780601f106119a4576101008083540402835291602001916119cf565b820191906000526020600020905b8154815290600101906020018083116119b257829003601f168201915b5050505050611edf565b6001600160a01b038216611a0b57604051630b61174360e31b81526001600160a01b038316600482015260240161088b565b6001600160a01b03838116600081815260056020908152604080832094871680845294825291829020805460ff191686151590811790915591519182527f17307eab39ab6107e8899845ad3d59bd9653f200f220920489ca2b5937696c31910160405180910390a3505050565b6001600160a01b0383163b156108ef57604051630a85bd0160e11b81526001600160a01b0384169063150b7a0290611aba903390889087908790600401612a4c565b6020604051808303816000875af1925050508015611af5575060408051601f3d908101601f19168201909252611af291810190612a89565b60015b611b5e573d808015611b23576040519150601f19603f3d011682016040523d82523d6000602084013e611b28565b606091505b508051600003611b5657604051633250574960e11b81526001600160a01b038516600482015260240161088b565b805181602001fd5b6001600160e01b03198116630a85bd0160e11b14611b9a57604051633250574960e11b81526001600160a01b038516600482015260240161088b565b5050505050565b6060611bac826116a1565b5060008281526006602052604081208054611bc690612867565b80601f0160208091040260200160405190810160405280929190818152602001828054611bf290612867565b8015611c3f5780601f10611c1457610100808354040283529160200191611c3f565b820191906000526020600020905b815481529060010190602001808311611c2257829003601f168201915b505050505090506000611c5d60408051602081019091526000815290565b90508051600003611c6f575092915050565b815115611ca1578082604051602001611c89929190612aa6565b60405160208183030381529060405292505050919050565b6116f484611f2f565b60006001600160e01b03198216632483248360e11b1480610795575061079582611fa3565b8080611ce357506001600160a01b03821615155b15611da5576000611cf3846116a1565b90506001600160a01b03831615801590611d1f5750826001600160a01b0316816001600160a01b031614155b8015611d325750611d308184611582565b155b15611d5b5760405163a9fbf51f60e01b81526001600160a01b038416600482015260240161088b565b8115611da35783856001600160a01b0316826001600160a01b03167f8c5be1e5ebec7d5bd14f71427d1e84f3dd0314c0f7b2291e5b200ac8c7c3b92560405160405180910390a45b505b5050600090815260046020526040902080546001600160a01b0319166001600160a01b0392909216919091179055565b600080611de3858585611ff3565b90506001600160a01b038116611e4057611e3b84600a80546000838152600b60205260408120829055600182018355919091527fc65a7bb8d6351c1cf70c95a316cc6a92839c986682d98bc35f958f4883f9d2a80155565b611e63565b846001600160a01b0316816001600160a01b031614611e6357611e638185612008565b6001600160a01b038516611e7f57611e7a84612099565b6116f4565b846001600160a01b0316816001600160a01b0316146116f4576116f48585612148565b60075460ff16610c1557604051638dfc202b60e01b815260040160405180910390fd5b610861828260405180602001604052806000815250612198565b6000828152600660205260409020611ef78282612ad5565b506040518281527ff8e1a15aba9398e019f0b49df1a4fde98ee17ae345cb5f6b5e2c27f5033e8ce79060200160405180910390a15050565b6060611f3a826116a1565b506000611f5260408051602081019091526000815290565b90506000815111611f725760405180602001604052806000815250610901565b80611f7c846121af565b604051602001611f8d929190612aa6565b6040516020818303038152906040529392505050565b60006001600160e01b031982166380ac58cd60e01b1480611fd457506001600160e01b03198216635b5e139f60e01b145b8061079557506301ffc9a760e01b6001600160e01b0319831614610795565b6000611ffd61185a565b6116f4848484612242565b600061201383610d21565b600083815260096020526040902054909150808214612066576001600160a01b03841660009081526008602090815260408083208584528252808320548484528184208190558352600990915290208190555b5060009182526009602090815260408084208490556001600160a01b039094168352600881528383209183525290812055565b600a546000906120ab90600190612b95565b6000838152600b6020526040812054600a80549394509092849081106120d3576120d36128ed565b9060005260206000200154905080600a83815481106120f4576120f46128ed565b6000918252602080832090910192909255828152600b9091526040808220849055858252812055600a80548061212c5761212c612ba8565b6001900381819060005260206000200160009055905550505050565b6000600161215584610d21565b61215f9190612b95565b6001600160a01b039093166000908152600860209081526040808320868452825280832085905593825260099052919091209190915550565b6121a2838361233b565b610c326000848484611a78565b606060006121bc836123a0565b600101905060008167ffffffffffffffff8111156121dc576121dc612742565b6040519080825280601f01601f191660200182016040528015612206576020820181803683370190505b5090508181016020015b600019016f181899199a1a9b1b9c1cb0b131b232b360811b600a86061a8153600a850494508461221057509392505050565b6000828152600260205260408120546001600160a01b039081169083161561226f5761226f818486612478565b6001600160a01b038116156122ad5761228c600085600080611ccf565b6001600160a01b038116600090815260036020526040902080546000190190555b6001600160a01b038516156122dc576001600160a01b0385166000908152600360205260409020805460010190555b60008481526002602052604080822080546001600160a01b0319166001600160a01b0389811691821790925591518793918516917fddf252ad1be2c89b69c2b068fc378daa952ba7f163c4a11628f55a4df523b3ef91a4949350505050565b6001600160a01b03821661236557604051633250574960e11b81526000600482015260240161088b565b6000612373838360006116e7565b90506001600160a01b03811615610c32576040516339e3563760e11b81526000600482015260240161088b565b60008072184f03e93ff9f4daa797ed6e38ed64bf6a1f0160401b83106123df5772184f03e93ff9f4daa797ed6e38ed64bf6a1f0160401b830492506040015b6d04ee2d6d415b85acef8100000000831061240b576d04ee2d6d415b85acef8100000000830492506020015b662386f26fc10000831061242957662386f26fc10000830492506010015b6305f5e1008310612441576305f5e100830492506008015b612710831061245557612710830492506004015b60648310612467576064830492506002015b600a83106107955760010192915050565b6124838383836124dc565b610c32576001600160a01b0383166124b157604051637e27328960e01b81526004810182905260240161088b565b60405163177e802f60e01b81526001600160a01b03831660048201526024810182905260440161088b565b60006001600160a01b038316158015906116f45750826001600160a01b0316846001600160a01b0316148061251657506125168484611582565b806116f45750506000908152600460205260409020546001600160a01b03908116911614919050565b6001600160e01b03198116811461167957600080fd5b60006020828403121561256757600080fd5b81356109018161253f565b60005b8381101561258d578181015183820152602001612575565b50506000910152565b600081518084526125ae816020860160208601612572565b601f01601f19169290920160200192915050565b6020815260006109016020830184612596565b6000602082840312156125e757600080fd5b5035919050565b80356001600160a01b038116811461260557600080fd5b919050565b6000806040838503121561261d57600080fd5b612626836125ee565b946020939093013593505050565b60008060006060848603121561264957600080fd5b612652846125ee565b9250612660602085016125ee565b9150604084013590509250925092565b60006020828403121561268257600080fd5b610901826125ee565b6000806020838503121561269e57600080fd5b823567ffffffffffffffff808211156126b657600080fd5b818501915085601f8301126126ca57600080fd5b8135818111156126d957600080fd5b8660208285010111156126eb57600080fd5b60209290920196919550909350505050565b801515811461167957600080fd5b6000806040838503121561271e57600080fd5b612727836125ee565b91506020830135612737816126fd565b809150509250929050565b634e487b7160e01b600052604160045260246000fd5b6000806000806080858703121561276e57600080fd5b612777856125ee565b9350612785602086016125ee565b925060408501359150606085013567ffffffffffffffff808211156127a957600080fd5b818701915087601f8301126127bd57600080fd5b8135818111156127cf576127cf612742565b604051601f8201601f19908116603f011681019083821181831017156127f7576127f7612742565b816040528281528a602084870101111561281057600080fd5b82602086016020830137600060208483010152809550505050505092959194509250565b6000806040838503121561284757600080fd5b612850836125ee565b915061285e602084016125ee565b90509250929050565b600181811c9082168061287b57607f821691505b60208210810361289b57634e487b7160e01b600052602260045260246000fd5b50919050565b6000602082840312156128b357600080fd5b8151610901816126fd565b634e487b7160e01b600052601160045260246000fd5b6000600182016128e6576128e66128be565b5060010190565b634e487b7160e01b600052603260045260246000fd5b601f821115610c3257600081815260208120601f850160051c8101602086101561292a5750805b601f850160051c820191505b8181101561137b57828155600101612936565b67ffffffffffffffff83111561296157612961612742565b6129758361296f8354612867565b83612903565b6000601f8411600181146129a957600085156129915750838201355b600019600387901b1c1916600186901b178355611b9a565b600083815260209020601f19861690835b828110156129da57868501358255602094850194600190920191016129ba565b50868210156129f75760001960f88860031b161c19848701351681555b505060018560011b0183555050505050565b600060208284031215612a1b57600080fd5b5051919050565b8082028115828204841417610795576107956128be565b80820180821115610795576107956128be565b6001600160a01b0385811682528416602082015260408101839052608060608201819052600090612a7f90830184612596565b9695505050505050565b600060208284031215612a9b57600080fd5b81516109018161253f565b60008351612ab8818460208801612572565b835190830190612acc818360208801612572565b01949350505050565b815167ffffffffffffffff811115612aef57612aef612742565b612b0381612afd8454612867565b84612903565b602080601f831160018114612b385760008415612b205750858301515b600019600386901b1c1916600185901b17855561137b565b600085815260208120601f198616915b82811015612b6757888601518255948401946001909101908401612b48565b5085821015612b855787850151600019600388901b60f8161c191681555b5050505050600190811b01905550565b81810381811115610795576107956128be565b634e487b7160e01b600052603160045260246000fdfea264697066735822122084d9b7055e319998cc1b80790e5a4a52fc77c6a70b05c1376692dfbb1a32236464736f6c6343000814003360806040523480156200001157600080fd5b5060405162000dea38038062000dea8339810160408190526200003491620000c3565b600080546001600160a01b038088166001600160a01b03199283161790925560018054928716929091169190911790556006839055600262000077838262000260565b5060055550506007805460ff19169055506200032c9050565b80516001600160a01b0381168114620000a857600080fd5b919050565b634e487b7160e01b600052604160045260246000fd5b600080600080600060a08688031215620000dc57600080fd5b620000e78662000090565b94506020620000f881880162000090565b6040880151606089015191965094506001600160401b03808211156200011d57600080fd5b818901915089601f8301126200013257600080fd5b815181811115620001475762000147620000ad565b604051601f8201601f19908116603f01168101908382118183101715620001725762000172620000ad565b816040528281528c868487010111156200018b57600080fd5b600093505b82841015620001af578484018601518185018701529285019262000190565b6000868483010152809750505050505050608086015190509295509295909350565b600181811c90821680620001e657607f821691505b6020821081036200020757634e487b7160e01b600052602260045260246000fd5b50919050565b601f8211156200025b57600081815260208120601f850160051c81016020861015620002365750805b601f850160051c820191505b81811015620002575782815560010162000242565b5050505b505050565b81516001600160401b038111156200027c576200027c620000ad565b62000294816200028d8454620001d1565b846200020d565b602080601f831160018114620002cc5760008415620002b35750858301515b600019600386901b1c1916600185901b17855562000257565b600085815260208120601f198616915b82811015620002fd57888601518255948401946001909101908401620002dc565b50858210156200031c5787850151600019600388901b60f8161c191681555b5050505050600190811b01905550565b610aae806200033c6000396000f3fe60806040526004361061009c5760003560e01c80633ccfd60b116100645780633ccfd60b1461015e57806351b42b00146101735780635468bc2f146101885780636d3a9016146101c05780638ee1f07a146101e0578063a035b1fe146101f357600080fd5b806306fdde03146100a1578063089cdd0c146100cc5780630f15f4c0146100f05780631c72ff921461010757806322f3e2d414610134575b600080fd5b3480156100ad57600080fd5b506100b6610209565b6040516100c391906108fc565b60405180910390f35b3480156100d857600080fd5b506100e260065481565b6040519081526020016100c3565b3480156100fc57600080fd5b50610105610297565b005b34801561011357600080fd5b506100e2610122366004610962565b60046020526000908152604090205481565b34801561014057600080fd5b5060075461014e9060ff1681565b60405190151581526020016100c3565b34801561016a57600080fd5b5061010561038a565b34801561017f57600080fd5b506101056104b7565b34801561019457600080fd5b506101a86101a3366004610986565b61061c565b6040516001600160a01b0390911681526020016100c3565b3480156101cc57600080fd5b506101056101db36600461099f565b610646565b6101056101ee366004610962565b610768565b3480156101ff57600080fd5b506100e260055481565b60028054610216906109cb565b80601f0160208091040260200160405190810160405280929190818152602001828054610242906109cb565b801561028f5780601f106102645761010080835404028352916020019161028f565b820191906000526020600020905b81548152906001019060200180831161027257829003601f168201915b505050505081565b60065460005460405163111fd88b60e01b81526004810183905233916001600160a01b03169063111fd88b90602401602060405180830381865afa1580156102e3573d6000803e3d6000fd5b505050506040513d601f19601f820116820180604052508101906103079190610a05565b6001600160a01b03161461033657604051632762d31160e01b8152600481018290526024015b60405180910390fd5b60075460ff161561037a5760405162461bcd60e51b815260206004820152600e60248201526d416c72656164792061637469766560901b604482015260640161032d565b506007805460ff19166001179055565b60065460005460405163111fd88b60e01b81526004810183905233916001600160a01b03169063111fd88b90602401602060405180830381865afa1580156103d6573d6000803e3d6000fd5b505050506040513d601f19601f820116820180604052508101906103fa9190610a05565b6001600160a01b03161461042457604051632762d31160e01b81526004810182905260240161032d565b604051600090339047908381818185875af1925050503d8060008114610466576040519150601f19603f3d011682016040523d82523d6000602084013e61046b565b606091505b50509050806104b35760405162461bcd60e51b81526020600482015260146024820152732330b4b632b2103a379039b2b7321022ba3432b960611b604482015260640161032d565b5050565b60065460005460405163111fd88b60e01b81526004810183905233916001600160a01b03169063111fd88b90602401602060405180830381865afa158015610503573d6000803e3d6000fd5b505050506040513d601f19601f820116820180604052508101906105279190610a05565b6001600160a01b03161461055157604051632762d31160e01b81526004810182905260240161032d565b60065460005460405163111fd88b60e01b81526004810183905233916001600160a01b03169063111fd88b90602401602060405180830381865afa15801561059d573d6000803e3d6000fd5b505050506040513d601f19601f820116820180604052508101906105c19190610a05565b6001600160a01b0316146105eb57604051632762d31160e01b81526004810182905260240161032d565b60075460ff1661060e5760405163037c597f60e01b815260040160405180910390fd5b50506007805460ff19169055565b6003818154811061062c57600080fd5b6000918252602090912001546001600160a01b0316905081565b60065460005460405163111fd88b60e01b81526004810183905233916001600160a01b03169063111fd88b90602401602060405180830381865afa158015610692573d6000803e3d6000fd5b505050506040513d601f19601f820116820180604052508101906106b69190610a05565b6001600160a01b0316146106e057604051632762d31160e01b81526004810182905260240161032d565b6001600160a01b038316600090815260046020526040812054900361074b57600380546001810182556000919091527fc2575a0e9e593c00f959f8c92f12db2869c3395a3b0502d05e2516446f71f85b0180546001600160a01b0319166001600160a01b0385161790555b506001600160a01b03909116600090815260046020526040902055565b600554600154604051638542bdff60e01b8152600481018390523492916000916001600160a01b0390911690638542bdff90602401602060405180830381865afa1580156107ba573d6000803e3d6000fd5b505050506040513d601f19601f820116820180604052508101906107de9190610a22565b90508083101561080b576040516324299e4f60e21b8152600481018490526024810183905260440161032d565b60075460ff1661082e5760405163037c597f60e01b815260040160405180910390fd5b60005b6003548110156108f55760006003828154811061085057610850610a3b565b60009182526020808320909101546001600160a01b031680835260049182905260409283902054925163b587544b60e01b8152909350839263b587544b926108af928b9291016001600160a01b03929092168252602082015260400190565b600060405180830381600087803b1580156108c957600080fd5b505af11580156108dd573d6000803e3d6000fd5b505050505080806108ed90610a51565b915050610831565b5050505050565b600060208083528351808285015260005b818110156109295785810183015185820160400152820161090d565b506000604082860101526040601f19601f8301168501019250505092915050565b6001600160a01b038116811461095f57600080fd5b50565b60006020828403121561097457600080fd5b813561097f8161094a565b9392505050565b60006020828403121561099857600080fd5b5035919050565b600080604083850312156109b257600080fd5b82356109bd8161094a565b946020939093013593505050565b600181811c908216806109df57607f821691505b6020821081036109ff57634e487b7160e01b600052602260045260246000fd5b50919050565b600060208284031215610a1757600080fd5b815161097f8161094a565b600060208284031215610a3457600080fd5b5051919050565b634e487b7160e01b600052603260045260246000fd5b600060018201610a7157634e487b7160e01b600052601160045260246000fd5b506001019056fea26469706673582212201ecfd829e2de08bb5245559a48314abf93f0185dab700c0f8001c9bf3b961f8264736f6c63430008140033a2646970667358221220ef22153e260ba52ce834c8022424766144b031fb8e89b47b0477a2c7d965ecb864736f6c63430008140033",
  "linkReferences": {},
  "deployedLinkReferences": {}
}