{
  "_format": "hh-sol-artifact-1",
  "contractName": "EventCreation",
  "sourceName": "contracts/EventCreation.sol",
  "abi": [
    {
      "inputs": [
        {
          "internalType": "uint256",
          "name": "eventId",
          "type": "uint256"
        }
      ],
      "name": "NotFromExtraContract",
      "type": "error"
    },
    {
      "inputs": [
        {
          "internalType": "uint256",
          "name": "eventId",
          "type": "uint256"
        }
      ],
      "name": "NotTheAdmin",
      "type": "error"
    },
    {
      "anonymous": false,
      "inputs": [
        {
          "indexed": true,
          "internalType": "uint256",
          "name": "eventId",
          "type": "uint256"
        },
        {
          "indexed": false,
          "internalType": "string",
          "name": "newDescription",
          "type": "string"
        }
      ],
      "name": "DescriptionChanged",
      "type": "event"
    },
    {
      "anonymous": false,
      "inputs": [
        {
          "indexed": true,
          "internalType": "uint256",
          "name": "eventId",
          "type": "uint256"
        },
        {
          "indexed": false,
          "internalType": "uint256",
          "name": "newEndTime",
          "type": "uint256"
        }
      ],
      "name": "EndTimeChanged",
      "type": "event"
    },
    {
      "anonymous": false,
      "inputs": [
        {
          "components": [
            {
              "internalType": "uint256",
              "name": "id",
              "type": "uint256"
            },
            {
              "internalType": "string",
              "name": "name",
              "type": "string"
            },
            {
              "internalType": "string",
              "name": "description",
              "type": "string"
            },
            {
              "internalType": "string",
              "name": "location",
              "type": "string"
            },
            {
              "internalType": "string",
              "name": "logoUrl",
              "type": "string"
            },
            {
              "internalType": "address",
              "name": "admin",
              "type": "address"
            },
            {
              "internalType": "uint256",
              "name": "numberOfTickets",
              "type": "uint256"
            },
            {
              "internalType": "uint256",
              "name": "startTime",
              "type": "uint256"
            },
            {
              "internalType": "uint256",
              "name": "endTime",
              "type": "uint256"
            },
            {
              "internalType": "bool",
              "name": "isActive",
              "type": "bool"
            }
          ],
          "indexed": false,
          "internalType": "struct EventCreation.Event",
          "name": "createdEvent",
          "type": "tuple"
        }
      ],
      "name": "EventCreated",
      "type": "event"
    },
    {
      "anonymous": false,
      "inputs": [
        {
          "indexed": true,
          "internalType": "uint256",
          "name": "eventId",
          "type": "uint256"
        }
      ],
      "name": "EventDeleted",
      "type": "event"
    },
    {
      "anonymous": false,
      "inputs": [
        {
          "indexed": true,
          "internalType": "uint256",
          "name": "eventId",
          "type": "uint256"
        }
      ],
      "name": "EventReactivated",
      "type": "event"
    },
    {
      "anonymous": false,
      "inputs": [
        {
          "indexed": true,
          "internalType": "uint256",
          "name": "eventId",
          "type": "uint256"
        },
        {
          "indexed": false,
          "internalType": "string",
          "name": "newLocation",
          "type": "string"
        }
      ],
      "name": "LocationChanged",
      "type": "event"
    },
    {
      "anonymous": false,
      "inputs": [
        {
          "indexed": true,
          "internalType": "uint256",
          "name": "eventId",
          "type": "uint256"
        },
        {
          "indexed": false,
          "internalType": "string",
          "name": "newLogoUrl",
          "type": "string"
        }
      ],
      "name": "LogoUrlChanged",
      "type": "event"
    },
    {
      "anonymous": false,
      "inputs": [
        {
          "indexed": true,
          "internalType": "uint256",
          "name": "eventId",
          "type": "uint256"
        },
        {
          "indexed": false,
          "internalType": "uint256",
          "name": "newNumberOfTickets",
          "type": "uint256"
        }
      ],
      "name": "NumberOfTicketsChanged",
      "type": "event"
    },
    {
      "anonymous": false,
      "inputs": [
        {
          "indexed": true,
          "internalType": "uint256",
          "name": "eventId",
          "type": "uint256"
        },
        {
          "indexed": false,
          "internalType": "uint256",
          "name": "newStartTime",
          "type": "uint256"
        }
      ],
      "name": "StartTimeChanged",
      "type": "event"
    },
    {
      "inputs": [
        {
          "internalType": "address",
          "name": "allowedAddress",
          "type": "address"
        },
        {
          "internalType": "uint256",
          "name": "eventId",
          "type": "uint256"
        }
      ],
      "name": "addAllowedAddress",
      "outputs": [],
      "stateMutability": "nonpayable",
      "type": "function"
    },
    {
      "inputs": [
        {
          "internalType": "uint256",
          "name": "",
          "type": "uint256"
        },
        {
          "internalType": "address",
          "name": "",
          "type": "address"
        }
      ],
      "name": "allowedList",
      "outputs": [
        {
          "internalType": "bool",
          "name": "",
          "type": "bool"
        }
      ],
      "stateMutability": "view",
      "type": "function"
    },
    {
      "inputs": [
        {
          "internalType": "uint256",
          "name": "",
          "type": "uint256"
        },
        {
          "internalType": "uint256",
          "name": "",
          "type": "uint256"
        }
      ],
      "name": "bundles",
      "outputs": [
        {
          "internalType": "address",
          "name": "",
          "type": "address"
        }
      ],
      "stateMutability": "view",
      "type": "function"
    },
    {
      "inputs": [
        {
          "internalType": "string",
          "name": "newDescription",
          "type": "string"
        },
        {
          "internalType": "uint256",
          "name": "eventId",
          "type": "uint256"
        }
      ],
      "name": "changeDescription",
      "outputs": [],
      "stateMutability": "nonpayable",
      "type": "function"
    },
    {
      "inputs": [
        {
          "internalType": "uint256",
          "name": "newEndTime",
          "type": "uint256"
        },
        {
          "internalType": "uint256",
          "name": "eventId",
          "type": "uint256"
        }
      ],
      "name": "changeEndTime",
      "outputs": [],
      "stateMutability": "nonpayable",
      "type": "function"
    },
    {
      "inputs": [
        {
          "internalType": "string",
          "name": "newLocation",
          "type": "string"
        },
        {
          "internalType": "uint256",
          "name": "eventId",
          "type": "uint256"
        }
      ],
      "name": "changeLocation",
      "outputs": [],
      "stateMutability": "nonpayable",
      "type": "function"
    },
    {
      "inputs": [
        {
          "internalType": "string",
          "name": "newLogoUrl",
          "type": "string"
        },
        {
          "internalType": "uint256",
          "name": "eventId",
          "type": "uint256"
        }
      ],
      "name": "changeLogo",
      "outputs": [],
      "stateMutability": "nonpayable",
      "type": "function"
    },
    {
      "inputs": [
        {
          "internalType": "uint256",
          "name": "newNumberOfTickets",
          "type": "uint256"
        },
        {
          "internalType": "uint256",
          "name": "eventId",
          "type": "uint256"
        }
      ],
      "name": "changeNumberOfTickets",
      "outputs": [],
      "stateMutability": "nonpayable",
      "type": "function"
    },
    {
      "inputs": [
        {
          "internalType": "uint256",
          "name": "newStartTime",
          "type": "uint256"
        },
        {
          "internalType": "uint256",
          "name": "eventId",
          "type": "uint256"
        }
      ],
      "name": "changeStartTime",
      "outputs": [],
      "stateMutability": "nonpayable",
      "type": "function"
    },
    {
      "inputs": [
        {
          "internalType": "string",
          "name": "_name",
          "type": "string"
        },
        {
          "internalType": "uint256",
          "name": "_price",
          "type": "uint256"
        },
        {
          "internalType": "uint256",
          "name": "_eventId",
          "type": "uint256"
        },
        {
          "internalType": "address",
          "name": "_priceFeedHandlerAddress",
          "type": "address"
        }
      ],
      "name": "createAndRegisterBundle",
      "outputs": [],
      "stateMutability": "nonpayable",
      "type": "function"
    },
    {
      "inputs": [
        {
          "internalType": "string",
          "name": "name",
          "type": "string"
        },
        {
          "internalType": "string",
          "name": "symbol",
          "type": "string"
        },
        {
          "internalType": "string",
          "name": "uri",
          "type": "string"
        },
        {
          "internalType": "uint256",
          "name": "extraType",
          "type": "uint256"
        },
        {
          "internalType": "uint256",
          "name": "price",
          "type": "uint256"
        },
        {
          "internalType": "uint256",
          "name": "eventId",
          "type": "uint256"
        },
        {
          "internalType": "address",
          "name": "priceFeedHandlerAddress",
          "type": "address"
        },
        {
          "internalType": "address",
          "name": "participantsContractAddress",
          "type": "address"
        }
      ],
      "name": "createAndRegisterExtra",
      "outputs": [],
      "stateMutability": "nonpayable",
      "type": "function"
    },
    {
      "inputs": [
        {
          "internalType": "string",
          "name": "name",
          "type": "string"
        },
        {
          "internalType": "string",
          "name": "description",
          "type": "string"
        },
        {
          "internalType": "string",
          "name": "location",
          "type": "string"
        },
        {
          "internalType": "string",
          "name": "logoUrl",
          "type": "string"
        },
        {
          "internalType": "uint256",
          "name": "numberOfTickets",
          "type": "uint256"
        },
        {
          "internalType": "uint256",
          "name": "startTime",
          "type": "uint256"
        },
        {
          "internalType": "uint256",
          "name": "endTime",
          "type": "uint256"
        }
      ],
      "name": "createEvent",
      "outputs": [],
      "stateMutability": "nonpayable",
      "type": "function"
    },
    {
      "inputs": [
        {
          "internalType": "uint256",
          "name": "eventId",
          "type": "uint256"
        }
      ],
      "name": "deleteEvent",
      "outputs": [],
      "stateMutability": "nonpayable",
      "type": "function"
    },
    {
      "inputs": [],
      "name": "eventCounter",
      "outputs": [
        {
          "internalType": "uint256",
          "name": "",
          "type": "uint256"
        }
      ],
      "stateMutability": "view",
      "type": "function"
    },
    {
      "inputs": [
        {
          "internalType": "uint256",
          "name": "",
          "type": "uint256"
        }
      ],
      "name": "events",
      "outputs": [
        {
          "internalType": "uint256",
          "name": "id",
          "type": "uint256"
        },
        {
          "internalType": "string",
          "name": "name",
          "type": "string"
        },
        {
          "internalType": "string",
          "name": "description",
          "type": "string"
        },
        {
          "internalType": "string",
          "name": "location",
          "type": "string"
        },
        {
          "internalType": "string",
          "name": "logoUrl",
          "type": "string"
        },
        {
          "internalType": "address",
          "name": "admin",
          "type": "address"
        },
        {
          "internalType": "uint256",
          "name": "numberOfTickets",
          "type": "uint256"
        },
        {
          "internalType": "uint256",
          "name": "startTime",
          "type": "uint256"
        },
        {
          "internalType": "uint256",
          "name": "endTime",
          "type": "uint256"
        },
        {
          "internalType": "bool",
          "name": "isActive",
          "type": "bool"
        }
      ],
      "stateMutability": "view",
      "type": "function"
    },
    {
      "inputs": [
        {
          "internalType": "uint256",
          "name": "",
          "type": "uint256"
        },
        {
          "internalType": "uint256",
          "name": "",
          "type": "uint256"
        }
      ],
      "name": "extras",
      "outputs": [
        {
          "internalType": "address",
          "name": "",
          "type": "address"
        }
      ],
      "stateMutability": "view",
      "type": "function"
    },
    {
      "inputs": [
        {
          "internalType": "uint256",
          "name": "eventId",
          "type": "uint256"
        }
      ],
      "name": "getAdmin",
      "outputs": [
        {
          "internalType": "address",
          "name": "",
          "type": "address"
        }
      ],
      "stateMutability": "view",
      "type": "function"
    },
    {
      "inputs": [
        {
          "internalType": "uint256",
          "name": "eventId",
          "type": "uint256"
        }
      ],
      "name": "getBundles",
      "outputs": [
        {
          "internalType": "address[]",
          "name": "",
          "type": "address[]"
        }
      ],
      "stateMutability": "view",
      "type": "function"
    },
    {
      "inputs": [
        {
          "internalType": "uint256",
          "name": "eventId",
          "type": "uint256"
        }
      ],
      "name": "getExtras",
      "outputs": [
        {
          "internalType": "address[]",
          "name": "",
          "type": "address[]"
        }
      ],
      "stateMutability": "view",
      "type": "function"
    },
    {
      "inputs": [
        {
          "internalType": "uint256",
          "name": "eventId",
          "type": "uint256"
        }
      ],
      "name": "getMintedTickets",
      "outputs": [
        {
          "internalType": "uint256",
          "name": "",
          "type": "uint256"
        }
      ],
      "stateMutability": "view",
      "type": "function"
    },
    {
      "inputs": [
        {
          "internalType": "uint256",
          "name": "eventId",
          "type": "uint256"
        }
      ],
      "name": "getNumberOfTickets",
      "outputs": [
        {
          "internalType": "uint256",
          "name": "",
          "type": "uint256"
        }
      ],
      "stateMutability": "view",
      "type": "function"
    },
    {
      "inputs": [
        {
          "internalType": "uint256",
          "name": "eventId",
          "type": "uint256"
        }
      ],
      "name": "increaseMintedTickets",
      "outputs": [],
      "stateMutability": "nonpayable",
      "type": "function"
    },
    {
      "inputs": [
        {
          "internalType": "uint256",
          "name": "eventId",
          "type": "uint256"
        },
        {
          "internalType": "address",
          "name": "addressToCheck",
          "type": "address"
        }
      ],
      "name": "isAllowed",
      "outputs": [
        {
          "internalType": "bool",
          "name": "",
          "type": "bool"
        }
      ],
      "stateMutability": "view",
      "type": "function"
    },
    {
      "inputs": [
        {
          "internalType": "uint256",
          "name": "_eventId",
          "type": "uint256"
        },
        {
          "internalType": "address",
          "name": "_address",
          "type": "address"
        }
      ],
      "name": "isBundleContractPartOfEvent",
      "outputs": [
        {
          "internalType": "bool",
          "name": "",
          "type": "bool"
        }
      ],
      "stateMutability": "view",
      "type": "function"
    },
    {
      "inputs": [
        {
          "internalType": "uint256",
          "name": "_eventId",
          "type": "uint256"
        },
        {
          "internalType": "address",
          "name": "_address",
          "type": "address"
        }
      ],
      "name": "isExtraPartOfEvent",
      "outputs": [
        {
          "internalType": "bool",
          "name": "",
          "type": "bool"
        }
      ],
      "stateMutability": "view",
      "type": "function"
    },
    {
      "inputs": [
        {
          "internalType": "uint256",
          "name": "",
          "type": "uint256"
        }
      ],
      "name": "mintedTickets",
      "outputs": [
        {
          "internalType": "uint256",
          "name": "",
          "type": "uint256"
        }
      ],
      "stateMutability": "view",
      "type": "function"
    },
    {
      "inputs": [
        {
          "internalType": "uint256",
          "name": "eventId",
          "type": "uint256"
        }
      ],
      "name": "reactivateEvent",
      "outputs": [],
      "stateMutability": "nonpayable",
      "type": "function"
    }
  ],
  "bytecode": "0x608060405234801561001057600080fd5b50615e1b806100206000396000f3fe60806040523480156200001157600080fd5b5060043610620001cc5760003560e01c80637a69e2da116200010d578063cd710ada11620000a3578063e26c2c6b116200007a578063e26c2c6b14620004f4578063e27923bc146200050b578063f8749a581462000531578063fcd50077146200054857600080fd5b8063cd710ada146200047e578063cf6e1d1114620004a1578063d6920c8f14620004b857600080fd5b80639bc1463711620000e45780639bc146371462000422578063b3be7f011462000439578063b8956cd41462000450578063be252386146200046757600080fd5b80637a69e2da14620003b8578063832a47dd14620003cf578063975aeb8214620003e657600080fd5b80632e29b30e116200018357806352c55db9116200015a57806352c55db9146200033557806358528aa5146200033f5780635faa299a14620003565780636e59b1ad146200039257600080fd5b80632e29b30e14620002c5578063381ee22d14620002dc57806341466b2814620002f357600080fd5b8063098b16cb14620001d15780630b79143014620002055780630d4b90c71462000234578063111fd88b146200024d5780631e0b027f146200027c5780632c48a9b01462000293575b600080fd5b620001e8620001e2366004620013d3565b6200055f565b6040516001600160a01b0390911681526020015b60405180910390f35b6200021c62000216366004620013f6565b62000598565b604051620001fc9a9998979695949392919062001458565b6200024b62000245366004620013d3565b62000833565b005b620001e86200025e366004620013f6565b6000908152602081905260409020600501546001600160a01b031690565b6200024b6200028d366004620015b9565b620008c6565b620002b6620002a4366004620013f6565b60009081526004602052604090205490565b604051908152602001620001fc565b6200024b620002d6366004620013d3565b620009c8565b6200024b620002ed366004620016da565b62000a4f565b62000324620003043660046200172a565b600360209081526000928352604080842090915290825290205460ff1681565b6040519015158152602001620001fc565b620002b660075481565b6200024b62000350366004620016da565b62000af1565b62000324620003673660046200172a565b60009182526003602090815260408084206001600160a01b0393909316845291905290205460ff1690565b620002b6620003a3366004620013f6565b60009081526020819052604090206006015490565b6200024b620003c936600462001759565b62000b85565b6200024b620003e0366004620013f6565b62000c22565b62000324620003f73660046200172a565b60009182526006602090815260408084206001600160a01b0393909316845291905290205460ff1690565b6200024b62000433366004620017c6565b62000caa565b6200024b6200044a366004620017f3565b62000d1b565b6200024b62000461366004620016da565b62000f76565b6200024b62000478366004620013f6565b6200100a565b620002b66200048f366004620013f6565b60046020526000908152604090205481565b620001e8620004b2366004620013d3565b62001076565b62000324620004c93660046200172a565b60009182526002602090815260408084206001600160a01b0393909316845291905290205460ff1690565b6200024b62000505366004620013d3565b62001093565b620005226200051c366004620013f6565b6200111a565b604051620001fc9190620018e1565b6200024b62000542366004620013f6565b62001188565b6200052262000559366004620013f6565b6200120d565b600160205281600052604060002081815481106200057c57600080fd5b6000918252602090912001546001600160a01b03169150829050565b60006020819052908152604090208054600182018054919291620005bc9062001930565b80601f0160208091040260200160405190810160405280929190818152602001828054620005ea9062001930565b80156200063b5780601f106200060f576101008083540402835291602001916200063b565b820191906000526020600020905b8154815290600101906020018083116200061d57829003601f168201915b505050505090806002018054620006529062001930565b80601f0160208091040260200160405190810160405280929190818152602001828054620006809062001930565b8015620006d15780601f10620006a557610100808354040283529160200191620006d1565b820191906000526020600020905b815481529060010190602001808311620006b357829003601f168201915b505050505090806003018054620006e89062001930565b80601f0160208091040260200160405190810160405280929190818152602001828054620007169062001930565b8015620007675780601f106200073b5761010080835404028352916020019162000767565b820191906000526020600020905b8154815290600101906020018083116200074957829003601f168201915b5050505050908060040180546200077e9062001930565b80601f0160208091040260200160405190810160405280929190818152602001828054620007ac9062001930565b8015620007fd5780601f10620007d157610100808354040283529160200191620007fd565b820191906000526020600020905b815481529060010190602001808311620007df57829003601f168201915b505050600584015460068501546007860154600887015460099097015495966001600160a01b0390931695919450925060ff168a565b60008181526020819052604090206005015481906001600160a01b031633146200087857604051632762d31160e01b8152600481018290526024015b60405180910390fd5b60008281526020818152604091829020600801859055905184815283917f6cdad8629a6fd97b72424fa66d4b88752e2dfb2eb667e5d2b609a6544441aa3a91015b60405180910390a2505050565b60008381526020819052604090206005015483906001600160a01b031633146200090757604051632762d31160e01b8152600481018290526024016200086f565b60008989898989308a8a8a6040516200092090620013b7565b62000934999897969594939291906200196c565b604051809103906000f08015801562000951573d6000803e3d6000fd5b5060405163f2fde38b60e01b81523360048201529091506001600160a01b0382169063f2fde38b90602401600060405180830381600087803b1580156200099757600080fd5b505af1158015620009ac573d6000803e3d6000fd5b50505050620009bc818662001279565b50505050505050505050565b60008181526020819052604090206005015481906001600160a01b0316331462000a0957604051632762d31160e01b8152600481018290526024016200086f565b60008281526020818152604091829020600701859055905184815283917fbefe8e3983c0dc663c4ba451fc82d4ff7eb2e4ccc4b944874abea1ecc841feae9101620008b9565b60008181526020819052604090206005015481906001600160a01b0316331462000a9057604051632762d31160e01b8152600481018290526024016200086f565b600082815260208190526040902060030162000aae84868362001a41565b50817fc966a534f9ea8b5fa4b2d19a749446e4735b139324b0422bfbd6dea32940c277858560405162000ae392919062001b38565b60405180910390a250505050565b60008181526020819052604090206005015481906001600160a01b0316331462000b3257604051632762d31160e01b8152600481018290526024016200086f565b600082815260208190526040902060040162000b5084868362001a41565b50817f50dc1995455850d4421eba1f9a31a69b14e1d2a1e25d9d3a9c91e4af1f0d1f6b858560405162000ae392919062001b38565b60008281526020819052604090206005015482906001600160a01b0316331462000bc657604051632762d31160e01b8152600481018290526024016200086f565b600030838589898960405162000bdc90620013c5565b62000bed9695949392919062001b56565b604051809103906000f08015801562000c0a573d6000803e3d6000fd5b50905062000c19818562001316565b50505050505050565b60008181526020819052604090206005015481906001600160a01b0316331462000c6357604051632762d31160e01b8152600481018290526024016200086f565b600082815260208190526040808220600901805460ff191660011790555183917f5f8f608bcaab1e48c138f71ca0f381b01519122d0ffe27c0595c98db798aa97091a25050565b60008181526020819052604090206005015481906001600160a01b0316331462000ceb57604051632762d31160e01b8152600481018290526024016200086f565b5060009081526003602090815260408083206001600160a01b03909416835292905220805460ff19166001179055565b600780546000918262000d2e8362001b9f565b9190505590506040518061014001604052808281526020018d8d8080601f016020809104026020016040519081016040528093929190818152602001838380828437600092019190915250505090825250604080516020601f8e018190048102820181019092528c815291810191908d908d9081908401838280828437600092019190915250505090825250604080516020601f8c018190048102820181019092528a815291810191908b908b9081908401838280828437600092019190915250505090825250604080516020601f8a0181900481028201810190925288815291810191908990899081908401838280828437600092018290525093855250503360208085019190915260408085018a90526060850189905260808501889052600160a09095018590528684528382529092208451815591840151919283019162000e7b91508262001bc7565b506040820151600282019062000e92908262001bc7565b506060820151600382019062000ea9908262001bc7565b506080820151600482019062000ec0908262001bc7565b5060a08201516005820180546001600160a01b0319166001600160a01b0390921691909117905560c0820151600682015560e082015160078201556101008201516008820155610120909101516009909101805460ff19169115159190911790556000818152602081905260409081902090517ff36aa47ef76210dd80bc48b615ea0bc4c4a6f1dacd0f3c3f7e7698b99fe3a2939162000f609162001d19565b60405180910390a1505050505050505050505050565b60008181526020819052604090206005015481906001600160a01b0316331462000fb757604051632762d31160e01b8152600481018290526024016200086f565b600082815260208190526040902060020162000fd584868362001a41565b50817ff2da8d33c1b28dc862c3260e93659ab53e6453f33919b9c86c39070dee2389ca858560405162000ae392919062001b38565b6000818152600260209081526040808320338452909152812054829160ff90911615159003620010515760405163935aa0e960e01b8152600481018290526024016200086f565b60008281526004602052604081208054916200106d8362001b9f565b91905055505050565b600560205281600052604060002081815481106200057c57600080fd5b60008181526020819052604090206005015481906001600160a01b03163314620010d457604051632762d31160e01b8152600481018290526024016200086f565b60008281526020818152604091829020600601859055905184815283917fa39b234224babfe908d053ed40d3e630df1b4159a79dafa984f21ef0f395f07c9101620008b9565b6000818152600160209081526040918290208054835181840281018401909452808452606093928301828280156200117c57602002820191906000526020600020905b81546001600160a01b031681526001909101906020018083116200115d575b50505050509050919050565b60008181526020819052604090206005015481906001600160a01b03163314620011c957604051632762d31160e01b8152600481018290526024016200086f565b600082815260208190526040808220600901805460ff191690555183917f24089da2b94d456671c6e08e154081718367fe1b3eb2bf048f9ded0b2ce2270a91a25050565b6000818152600560209081526040918290208054835181840281018401909452808452606093928301828280156200117c576020028201919060005260206000209081546001600160a01b031681526001909101906020018083116200115d5750505050509050919050565b60008181526020819052604090206005015481906001600160a01b03163314620012ba57604051632762d31160e01b8152600481018290526024016200086f565b506000818152600160208181526040808420805480850182559085528285200180546001600160a01b039097166001600160a01b031990971687179055938352600281528383209483529390935220805460ff19169091179055565b60008181526020819052604090206005015481906001600160a01b031633146200135757604051632762d31160e01b8152600481018290526024016200086f565b5060008181526005602090815260408083208054600181810183559185528385200180546001600160a01b039097166001600160a01b0319909716871790559383526006825280832094835293905291909120805460ff19169091179055565b6131a88062001df083390190565b610e4e8062004f9883390190565b60008060408385031215620013e757600080fd5b50508035926020909101359150565b6000602082840312156200140957600080fd5b5035919050565b6000815180845260005b8181101562001438576020818501810151868301820152016200141a565b506000602082860101526020601f19601f83011685010191505092915050565b60006101408c8352806020840152620014748184018d62001410565b905082810360408401526200148a818c62001410565b90508281036060840152620014a0818b62001410565b90508281036080840152620014b6818a62001410565b6001600160a01b039890981660a0840152505060c081019490945260e084019290925261010083015215156101209091015295945050505050565b634e487b7160e01b600052604160045260246000fd5b600082601f8301126200151957600080fd5b813567ffffffffffffffff80821115620015375762001537620014f1565b604051601f8301601f19908116603f01168101908282118183101715620015625762001562620014f1565b816040528381528660208588010111156200157c57600080fd5b836020870160208301376000602085830101528094505050505092915050565b80356001600160a01b0381168114620015b457600080fd5b919050565b600080600080600080600080610100898b031215620015d757600080fd5b883567ffffffffffffffff80821115620015f057600080fd5b620015fe8c838d0162001507565b995060208b01359150808211156200161557600080fd5b620016238c838d0162001507565b985060408b01359150808211156200163a57600080fd5b50620016498b828c0162001507565b965050606089013594506080890135935060a089013592506200166f60c08a016200159c565b91506200167f60e08a016200159c565b90509295985092959890939650565b60008083601f840112620016a157600080fd5b50813567ffffffffffffffff811115620016ba57600080fd5b602083019150836020828501011115620016d357600080fd5b9250929050565b600080600060408486031215620016f057600080fd5b833567ffffffffffffffff8111156200170857600080fd5b62001716868287016200168e565b909790965060209590950135949350505050565b600080604083850312156200173e57600080fd5b8235915062001750602084016200159c565b90509250929050565b6000806000806000608086880312156200177257600080fd5b853567ffffffffffffffff8111156200178a57600080fd5b62001798888289016200168e565b9096509450506020860135925060408601359150620017ba606087016200159c565b90509295509295909350565b60008060408385031215620017da57600080fd5b620017e5836200159c565b946020939093013593505050565b600080600080600080600080600080600060e08c8e0312156200181557600080fd5b67ffffffffffffffff808d3511156200182d57600080fd5b6200183c8e8e358f016200168e565b909c509a5060208d01358110156200185357600080fd5b620018658e60208f01358f016200168e565b909a50985060408d01358110156200187c57600080fd5b6200188e8e60408f01358f016200168e565b909850965060608d0135811015620018a557600080fd5b50620018b88d60608e01358e016200168e565b9b9e9a9d50989b979a969995989760808101359660a0820135965060c090910135945092505050565b6020808252825182820181905260009190848201906040850190845b81811015620019245783516001600160a01b031683529284019291840191600101620018fd565b50909695505050505050565b600181811c908216806200194557607f821691505b6020821081036200196657634e487b7160e01b600052602260045260246000fd5b50919050565b6000610120808352620019828184018d62001410565b9050828103602084015262001998818c62001410565b90508281036040840152620019ae818b62001410565b6060840199909952505060808101959095526001600160a01b0393841660a086015260c0850192909252821660e084015216610100909101529392505050565b601f82111562001a3c57600081815260208120601f850160051c8101602086101562001a175750805b601f850160051c820191505b8181101562001a385782815560010162001a23565b5050505b505050565b67ffffffffffffffff83111562001a5c5762001a5c620014f1565b62001a748362001a6d835462001930565b83620019ee565b6000601f84116001811462001aab576000851562001a925750838201355b600019600387901b1c1916600186901b17835562001b08565b600083815260209020601f19861690835b8281101562001ade578685013582556020948501946001909201910162001abc565b508682101562001afc5760001960f88860031b161c19848701351681555b505060018560011b0183555b5050505050565b81835281816020850137506000828201602090810191909152601f909101601f19169091010190565b60208152600062001b4e60208301848662001b0f565b949350505050565b6001600160a01b038781168252861660208201526040810185905260a06060820181905260009062001b8c908301858762001b0f565b9050826080830152979650505050505050565b60006001820162001bc057634e487b7160e01b600052601160045260246000fd5b5060010190565b815167ffffffffffffffff81111562001be45762001be4620014f1565b62001bfc8162001bf5845462001930565b84620019ee565b602080601f83116001811462001c34576000841562001c1b5750858301515b600019600386901b1c1916600185901b17855562001a38565b600085815260208120601f198616915b8281101562001c655788860151825594840194600190910190840162001c44565b508582101562001c845787850151600019600388901b60f8161c191681555b5050505050600190811b01905550565b6000815462001ca38162001930565b80855260206001838116801562001cc3576001811462001cde5762001d0e565b60ff1985168884015283151560051b88018301955062001d0e565b866000528260002060005b8581101562001d065781548a820186015290830190840162001ce9565b890184019650505b505050505092915050565b6020815281546020820152600061014080604084015262001d4261016084016001860162001c94565b601f198085830301606086015262001d5e826002880162001c94565b91508085830301608086015262001d79826003880162001c94565b9150808583030160a08601525062001d95816004870162001c94565b905062001dac60058601546001600160a01b031690565b6001600160a01b031660c0850152600685015460e08501526007850154610100850152600885015461012085015260099094015460ff161515920191909152509056fe60a06040526000196014553480156200001757600080fd5b50604051620031a8380380620031a88339810160408190526200003a916200033a565b33898960006200004b8382620004b0565b5060016200005a8282620004b0565b50506007805460ff19169055506001600160a01b0381166200009757604051631e4fbdf760e01b8152600060048201526024015b60405180910390fd5b620000a28162000125565b50600d80546001600160a01b0319166001600160a01b038616179055601283905560118590556013620000d68882620004b0565b506080869052600f80546001600160a01b038085166001600160a01b031992831617909255600e8054928416929091169190911790556200011662000177565b5050505050505050506200057c565b600c80546001600160a01b038381166001600160a01b0319831681179093556040519116919082907f8be0079c531659141344cd1fd0a4f28419497f9722a3daafe3b4186f6b6457e090600090a35050565b600c546001600160a01b03163314801590620001a857503360009081526015602052604090205460ff161515600114155b15620001ca5760405163118cdaa760e01b81523360048201526024016200008e565b620001d4620001d6565b565b620001e062000233565b6007805460ff191660011790557f62e78cea01bee320cd4e420270b5ea74000d11b0c9f74754ebdbfc544b05a258620002163390565b6040516001600160a01b03909116815260200160405180910390a1565b60075460ff1615620001d45760405163d93c066560e01b815260040160405180910390fd5b634e487b7160e01b600052604160045260246000fd5b600082601f8301126200028057600080fd5b81516001600160401b03808211156200029d576200029d62000258565b604051601f8301601f19908116603f01168101908282118183101715620002c857620002c862000258565b81604052838152602092508683858801011115620002e557600080fd5b600091505b83821015620003095785820183015181830184015290820190620002ea565b600093810190920192909252949350505050565b80516001600160a01b03811681146200033557600080fd5b919050565b60008060008060008060008060006101208a8c0312156200035a57600080fd5b89516001600160401b03808211156200037257600080fd5b620003808d838e016200026e565b9a5060208c01519150808211156200039757600080fd5b620003a58d838e016200026e565b995060408c0151915080821115620003bc57600080fd5b50620003cb8c828d016200026e565b97505060608a0151955060808a01519450620003ea60a08b016200031d565b935060c08a015192506200040160e08b016200031d565b9150620004126101008b016200031d565b90509295985092959850929598565b600181811c908216806200043657607f821691505b6020821081036200045757634e487b7160e01b600052602260045260246000fd5b50919050565b601f821115620004ab57600081815260208120601f850160051c81016020861015620004865750805b601f850160051c820191505b81811015620004a75782815560010162000492565b5050505b505050565b81516001600160401b03811115620004cc57620004cc62000258565b620004e481620004dd845462000421565b846200045d565b602080601f8311600181146200051c5760008415620005035750858301515b600019600386901b1c1916600185901b178555620004a7565b600085815260208120601f198616915b828110156200054d578886015182559484019460019091019084016200052c565b50858210156200056c5787850151600019600388901b60f8161c191681555b5050505050600190811b01905550565b608051612bf4620005b4600039600081816105da01528181610f82015281816111e00152818161149b01526118ae0152612bf46000f3fe6080604052600436106102515760003560e01c80638456cb5911610139578063a22cb465116100b6578063c87b56dd1161007a578063c87b56dd146106d5578063db006a75146106f5578063e01d55c514610715578063e985e9c514610735578063eac989f814610755578063f2fde38b1461076a57600080fd5b8063a22cb46514610625578063b587544b14610645578063b88d4fde14610665578063bdae0c6b14610685578063c6e047cf146106b557600080fd5b806396c38b0a116100fd57806396c38b0a14610582578063996517cf146105b25780639a008faa146105c8578063a035b1fe146105fc578063a14481941461061257600080fd5b80638456cb59146104ea5780638d6cc56d146104ff5780638da5cb5b1461051f5780638faece051461053d57806395d89b411461056d57600080fd5b80633ccfd60b116101d25780635c975abb116101965780635c975abb1461043d5780635f2ec20c146104555780636352211e1461047557806370a0823114610495578063715018a6146104b55780637a7e3c12146104ca57600080fd5b80633ccfd60b146103c05780633f4ba83a146103c857806342842e0e146103dd5780634f6ccce7146103fd578063570b3c6a1461041d57600080fd5b806318160ddd1161021957806318160ddd1461032b57806323b872dd146103405780632f745c591461036057806330b98701146103805780633b446bc2146103a057600080fd5b806301ffc9a71461025657806306fdde031461028b578063081812fc146102ad578063089cdd0c146102e5578063095ea7b314610309575b600080fd5b34801561026257600080fd5b50610276610271366004612555565b61078a565b60405190151581526020015b60405180910390f35b34801561029757600080fd5b506102a061079b565b60405161028291906125c2565b3480156102b957600080fd5b506102cd6102c83660046125d5565b61082d565b6040516001600160a01b039091168152602001610282565b3480156102f157600080fd5b506102fb60125481565b604051908152602001610282565b34801561031557600080fd5b5061032961032436600461260a565b610856565b005b34801561033757600080fd5b50600a546102fb565b34801561034c57600080fd5b5061032961035b366004612634565b610865565b34801561036c57600080fd5b506102fb61037b36600461260a565b6108f5565b34801561038c57600080fd5b5061032961039b36600461260a565b610908565b3480156103ac57600080fd5b506102fb6103bb366004612670565b610a63565b610329610acc565b3480156103d457600080fd5b50610329610bb1565b3480156103e957600080fd5b506103296103f8366004612634565b610c17565b34801561040957600080fd5b506102fb6104183660046125d5565b610c37565b34801561042957600080fd5b5061032961043836600461268b565b610c90565b34801561044957600080fd5b5060075460ff16610276565b34801561046157600080fd5b50610329610470366004612670565b610cd8565b34801561048157600080fd5b506102cd6104903660046125d5565b610d04565b3480156104a157600080fd5b506102fb6104b0366004612670565b610d21565b3480156104c157600080fd5b50610329610d69565b3480156104d657600080fd5b506103296104e536600461260a565b610d7b565b3480156104f657600080fd5b50610329610e32565b34801561050b57600080fd5b5061032961051a3660046125d5565b610e75565b34801561052b57600080fd5b50600c546001600160a01b03166102cd565b34801561054957600080fd5b506102766105583660046125d5565b60166020526000908152604090205460ff1681565b34801561057957600080fd5b506102a0610eb5565b34801561058e57600080fd5b5061027661059d366004612670565b60156020526000908152604090205460ff1681565b3480156105be57600080fd5b506102fb60145481565b3480156105d457600080fd5b506102fb7f000000000000000000000000000000000000000000000000000000000000000081565b34801561060857600080fd5b506102fb60115481565b61032961062036600461260a565b610ec4565b34801561063157600080fd5b5061032961064036600461270b565b611128565b34801561065157600080fd5b5061032961066036600461260a565b611133565b34801561067157600080fd5b50610329610680366004612758565b611383565b34801561069157600080fd5b506102766106a0366004612670565b60176020526000908152604090205460ff1681565b3480156106c157600080fd5b50600f546102cd906001600160a01b031681565b3480156106e157600080fd5b506102a06106f03660046125d5565b61139a565b34801561070157600080fd5b506103296107103660046125d5565b6113a5565b34801561072157600080fd5b506103296107303660046125d5565b611542565b34801561074157600080fd5b50610276610750366004612834565b611582565b34801561076157600080fd5b506102a06115b0565b34801561077657600080fd5b50610329610785366004612670565b61163e565b60006107958261167c565b92915050565b6060600080546107aa90612867565b80601f01602080910402602001604051908101604052809291908181526020018280546107d690612867565b80156108235780601f106107f857610100808354040283529160200191610823565b820191906000526020600020905b81548152906001019060200180831161080657829003601f168201915b5050505050905090565b6000610838826116a1565b506000828152600460205260409020546001600160a01b0316610795565b6108618282336116da565b5050565b6001600160a01b03821661089457604051633250574960e11b8152600060048201526024015b60405180910390fd5b60006108a18383336116e7565b9050836001600160a01b0316816001600160a01b0316146108ef576040516364283d7b60e01b81526001600160a01b038086166004830152602482018490528216604482015260640161088b565b50505050565b600061090183836116fc565b9392505050565b601254600d54604051632fd514cd60e11b8152600481018390523360248201526001600160a01b0390911690635faa299a90604401602060405180830381865afa15801561095a573d6000803e3d6000fd5b505050506040513d601f19601f8201168201806040525081019061097e91906128a1565b15156000036109ad57601254604051636af785e360e11b8152600481019190915233602482015260440161088b565b8282806109b983610a63565b10156109e35760405163352a3b5f60e21b81526001600160a01b038316600482015260240161088b565b6000806109ef87610d21565b905060005b818111610a595786831015610a47576000610a0f89836108f5565b60008181526016602052604081205491925060ff90911615159003610a4557610a37816113a5565b83610a41816128d4565b9450505b505b80610a51816128d4565b9150506109f4565b5050505050505050565b60008060005b610a7284610d21565b811015610ac5576000610a8585836108f5565b60008181526016602052604081205491925060ff90911615159003610ab25782610aae816128d4565b9350505b5080610abd816128d4565b915050610a69565b5092915050565b610ad4611761565b4780610b225760405162461bcd60e51b815260206004820152601960248201527f4e6f206574686572206c65667420746f20776974686472617700000000000000604482015260640161088b565b604051600090339083908381818185875af1925050503d8060008114610b64576040519150601f19603f3d011682016040523d82523d6000602084013e610b69565b606091505b50509050806108615760405162461bcd60e51b81526020600482015260146024820152732330b4b632b2103a379039b2b7321022ba3432b960611b604482015260640161088b565b600c546001600160a01b03163314801590610be157503360009081526015602052604090205460ff161515600114155b15610c0d57335b60405163118cdaa760e01b81526001600160a01b03909116600482015260240161088b565b610c15611779565b565b610c3283838360405180602001604052806000815250611383565b505050565b6000610c42600a5490565b8210610c6b5760405163295f44f760e21b8152600060048201526024810183905260440161088b565b600a8281548110610c7e57610c7e6128ed565b90600052602060002001549050919050565b600c546001600160a01b03163314801590610cc057503360009081526015602052604090205460ff161515600114155b15610ccb5733610be8565b6013610c32828483612949565b610ce0611761565b6001600160a01b03166000908152601560205260409020805460ff19166001179055565b6000818152600260205260408120546001600160a01b0316610795565b60006001600160a01b038216610d4d576040516322718ad960e21b81526000600482015260240161088b565b506001600160a01b031660009081526003602052604090205490565b610d71611761565b610c1560006117cb565b338180610d8783610a63565b1015610db15760405163352a3b5f60e21b81526001600160a01b038316600482015260240161088b565b600080610dbd33610d21565b905060005b818111610e295785831015610e17576000610ddd33836108f5565b60008181526016602052604081205491925060ff90911615159003610e1557610e07338983610865565b83610e11816128d4565b9450505b505b80610e21816128d4565b915050610dc2565b50505050505050565b600c546001600160a01b03163314801590610e6257503360009081526015602052604090205460ff161515600114155b15610e6d5733610be8565b610c1561181d565b600c546001600160a01b03163314801590610ea557503360009081526015602052604090205460ff161515600114155b15610eb05733610be8565b601155565b6060600180546107aa90612867565b600f54601154604051638542bdff60e01b81526004810191909152349183916000916001600160a01b031690638542bdff90602401602060405180830381865afa158015610f16573d6000803e3d6000fd5b505050506040513d601f19601f82011682018060405250810190610f3a9190612a09565b9050610f468282612a22565b831015610f74576011546040516324299e4f60e21b815261088b918591600401918252602082015260400190565b610f7c61185a565b601254847f000000000000000000000000000000000000000000000000000000000000000015801561108f5750600d54604051636e59b1ad60e01b8152600481018490526001600160a01b0390911690636e59b1ad90602401602060405180830381865afa158015610ff2573d6000803e3d6000fd5b505050506040513d601f19601f820116820180604052508101906110169190612a09565b600d546040516302c48a9b60e41b81526004810185905283916001600160a01b031690632c48a9b090602401602060405180830381865afa15801561105f573d6000803e3d6000fd5b505050506040513d601f19601f820116820180604052508101906110839190612a09565b61108d9190612a39565b115b156110b0576040516349a94ec760e01b81526004810183905260240161088b565b85601454816010546110c29190612a39565b1180156110d3575060001960145414155b156110f75760105460405163059949f560e51b815260040161088b91815260200190565b60005b8781101561111d5761110b8961187e565b80611115816128d4565b9150506110fa565b505050505050505050565b6108613383836119d9565b600d54601254604051634bad75c160e11b815260048101919091523360248201526001600160a01b039091169063975aeb8290604401602060405180830381865afa158015611186573d6000803e3d6000fd5b505050506040513d601f19601f820116820180604052508101906111aa91906128a1565b15156000036111d257601254604051632ad8218d60e21b815260040161088b91815260200190565b6111da61185a565b601254817f00000000000000000000000000000000000000000000000000000000000000001580156112ed5750600d54604051636e59b1ad60e01b8152600481018490526001600160a01b0390911690636e59b1ad90602401602060405180830381865afa158015611250573d6000803e3d6000fd5b505050506040513d601f19601f820116820180604052508101906112749190612a09565b600d546040516302c48a9b60e41b81526004810185905283916001600160a01b031690632c48a9b090602401602060405180830381865afa1580156112bd573d6000803e3d6000fd5b505050506040513d601f19601f820116820180604052508101906112e19190612a09565b6112eb9190612a39565b115b1561130e576040516349a94ec760e01b81526004810183905260240161088b565b82601454816010546113209190612a39565b118015611331575060001960145414155b156113555760105460405163059949f560e51b815260040161088b91815260200190565b60005b8481101561137b576113698661187e565b80611373816128d4565b915050611358565b505050505050565b61138e848484610865565b6108ef84848484611a78565b606061079582611ba1565b601254600d54604051632fd514cd60e11b8152600481018390523360248201526001600160a01b0390911690635faa299a90604401602060405180830381865afa1580156113f7573d6000803e3d6000fd5b505050506040513d601f19601f8201168201806040525081019061141b91906128a1565b151560000361144a57601254604051636af785e360e11b8152600481019190915233602482015260440161088b565b81600061145682610d04565b6001600160a01b0316036114805760405163995996d560e01b81526004810182905260240161088b565b6000838152601660205260408120805460ff191660011790557f00000000000000000000000000000000000000000000000000000000000000009003610c3257600e546012546001600160a01b03909116906378db9cd7906114e186610d04565b6040516001600160e01b031960e085901b16815260048101929092526001600160a01b03166024820152306044820152606401600060405180830381600087803b15801561152e57600080fd5b505af1158015610e29573d6000803e3d6000fd5b600c546001600160a01b0316331480159061157257503360009081526015602052604090205460ff161515600114155b1561157d5733610be8565b601455565b6001600160a01b03918216600090815260056020908152604080832093909416825291909152205460ff1690565b601380546115bd90612867565b80601f01602080910402602001604051908101604052809291908181526020018280546115e990612867565b80156116365780601f1061160b57610100808354040283529160200191611636565b820191906000526020600020905b81548152906001019060200180831161161957829003601f168201915b505050505081565b611646611761565b6001600160a01b03811661167057604051631e4fbdf760e01b81526000600482015260240161088b565b611679816117cb565b50565b60006001600160e01b0319821663780e9d6360e01b1480610795575061079582611caa565b6000818152600260205260408120546001600160a01b03168061079557604051637e27328960e01b81526004810184905260240161088b565b610c328383836001611ccf565b60006116f4848484611dd5565b949350505050565b600061170783610d21565b82106117385760405163295f44f760e21b81526001600160a01b03841660048201526024810183905260440161088b565b506001600160a01b03919091166000908152600860209081526040808320938352929052205490565b600c546001600160a01b03163314610c155733610be8565b611781611ea2565b6007805460ff191690557f5db9ee0a495bf2e6ff9c91a7834c1ba4fdd244a5e8aa4e537bd38aeae4b073aa335b6040516001600160a01b03909116815260200160405180910390a1565b600c80546001600160a01b038381166001600160a01b0319831681179093556040519116919082907f8be0079c531659141344cd1fd0a4f28419497f9722a3daafe3b4186f6b6457e090600090a35050565b61182561185a565b6007805460ff191660011790557f62e78cea01bee320cd4e420270b5ea74000d11b0c9f74754ebdbfc544b05a2586117ae3390565b60075460ff1615610c155760405163d93c066560e01b815260040160405180910390fd5b601080546000918261188f836128d4565b909155506000818152601660205260408120805460ff191690559091507f0000000000000000000000000000000000000000000000000000000000000000900361193b57600d54601254604051635f1291c360e11b81526001600160a01b039092169163be252386916119089160040190815260200190565b600060405180830381600087803b15801561192257600080fd5b505af1158015611936573d6000803e3d6000fd5b505050505b6119458282611ec5565b610861816013805461195690612867565b80601f016020809104026020016040519081016040528092919081815260200182805461198290612867565b80156119cf5780601f106119a4576101008083540402835291602001916119cf565b820191906000526020600020905b8154815290600101906020018083116119b257829003601f168201915b5050505050611edf565b6001600160a01b038216611a0b57604051630b61174360e31b81526001600160a01b038316600482015260240161088b565b6001600160a01b03838116600081815260056020908152604080832094871680845294825291829020805460ff191686151590811790915591519182527f17307eab39ab6107e8899845ad3d59bd9653f200f220920489ca2b5937696c31910160405180910390a3505050565b6001600160a01b0383163b156108ef57604051630a85bd0160e11b81526001600160a01b0384169063150b7a0290611aba903390889087908790600401612a4c565b6020604051808303816000875af1925050508015611af5575060408051601f3d908101601f19168201909252611af291810190612a89565b60015b611b5e573d808015611b23576040519150601f19603f3d011682016040523d82523d6000602084013e611b28565b606091505b508051600003611b5657604051633250574960e11b81526001600160a01b038516600482015260240161088b565b805181602001fd5b6001600160e01b03198116630a85bd0160e11b14611b9a57604051633250574960e11b81526001600160a01b038516600482015260240161088b565b5050505050565b6060611bac826116a1565b5060008281526006602052604081208054611bc690612867565b80601f0160208091040260200160405190810160405280929190818152602001828054611bf290612867565b8015611c3f5780601f10611c1457610100808354040283529160200191611c3f565b820191906000526020600020905b815481529060010190602001808311611c2257829003601f168201915b505050505090506000611c5d60408051602081019091526000815290565b90508051600003611c6f575092915050565b815115611ca1578082604051602001611c89929190612aa6565b60405160208183030381529060405292505050919050565b6116f484611f2f565b60006001600160e01b03198216632483248360e11b1480610795575061079582611fa3565b8080611ce357506001600160a01b03821615155b15611da5576000611cf3846116a1565b90506001600160a01b03831615801590611d1f5750826001600160a01b0316816001600160a01b031614155b8015611d325750611d308184611582565b155b15611d5b5760405163a9fbf51f60e01b81526001600160a01b038416600482015260240161088b565b8115611da35783856001600160a01b0316826001600160a01b03167f8c5be1e5ebec7d5bd14f71427d1e84f3dd0314c0f7b2291e5b200ac8c7c3b92560405160405180910390a45b505b5050600090815260046020526040902080546001600160a01b0319166001600160a01b0392909216919091179055565b600080611de3858585611ff3565b90506001600160a01b038116611e4057611e3b84600a80546000838152600b60205260408120829055600182018355919091527fc65a7bb8d6351c1cf70c95a316cc6a92839c986682d98bc35f958f4883f9d2a80155565b611e63565b846001600160a01b0316816001600160a01b031614611e6357611e638185612008565b6001600160a01b038516611e7f57611e7a84612099565b6116f4565b846001600160a01b0316816001600160a01b0316146116f4576116f48585612148565b60075460ff16610c1557604051638dfc202b60e01b815260040160405180910390fd5b610861828260405180602001604052806000815250612198565b6000828152600660205260409020611ef78282612ad5565b506040518281527ff8e1a15aba9398e019f0b49df1a4fde98ee17ae345cb5f6b5e2c27f5033e8ce79060200160405180910390a15050565b6060611f3a826116a1565b506000611f5260408051602081019091526000815290565b90506000815111611f725760405180602001604052806000815250610901565b80611f7c846121af565b604051602001611f8d929190612aa6565b6040516020818303038152906040529392505050565b60006001600160e01b031982166380ac58cd60e01b1480611fd457506001600160e01b03198216635b5e139f60e01b145b8061079557506301ffc9a760e01b6001600160e01b0319831614610795565b6000611ffd61185a565b6116f4848484612242565b600061201383610d21565b600083815260096020526040902054909150808214612066576001600160a01b03841660009081526008602090815260408083208584528252808320548484528184208190558352600990915290208190555b5060009182526009602090815260408084208490556001600160a01b039094168352600881528383209183525290812055565b600a546000906120ab90600190612b95565b6000838152600b6020526040812054600a80549394509092849081106120d3576120d36128ed565b9060005260206000200154905080600a83815481106120f4576120f46128ed565b6000918252602080832090910192909255828152600b9091526040808220849055858252812055600a80548061212c5761212c612ba8565b6001900381819060005260206000200160009055905550505050565b6000600161215584610d21565b61215f9190612b95565b6001600160a01b039093166000908152600860209081526040808320868452825280832085905593825260099052919091209190915550565b6121a2838361233b565b610c326000848484611a78565b606060006121bc836123a0565b600101905060008167ffffffffffffffff8111156121dc576121dc612742565b6040519080825280601f01601f191660200182016040528015612206576020820181803683370190505b5090508181016020015b600019016f181899199a1a9b1b9c1cb0b131b232b360811b600a86061a8153600a850494508461221057509392505050565b6000828152600260205260408120546001600160a01b039081169083161561226f5761226f818486612478565b6001600160a01b038116156122ad5761228c600085600080611ccf565b6001600160a01b038116600090815260036020526040902080546000190190555b6001600160a01b038516156122dc576001600160a01b0385166000908152600360205260409020805460010190555b60008481526002602052604080822080546001600160a01b0319166001600160a01b0389811691821790925591518793918516917fddf252ad1be2c89b69c2b068fc378daa952ba7f163c4a11628f55a4df523b3ef91a4949350505050565b6001600160a01b03821661236557604051633250574960e11b81526000600482015260240161088b565b6000612373838360006116e7565b90506001600160a01b03811615610c32576040516339e3563760e11b81526000600482015260240161088b565b60008072184f03e93ff9f4daa797ed6e38ed64bf6a1f0160401b83106123df5772184f03e93ff9f4daa797ed6e38ed64bf6a1f0160401b830492506040015b6d04ee2d6d415b85acef8100000000831061240b576d04ee2d6d415b85acef8100000000830492506020015b662386f26fc10000831061242957662386f26fc10000830492506010015b6305f5e1008310612441576305f5e100830492506008015b612710831061245557612710830492506004015b60648310612467576064830492506002015b600a83106107955760010192915050565b6124838383836124dc565b610c32576001600160a01b0383166124b157604051637e27328960e01b81526004810182905260240161088b565b60405163177e802f60e01b81526001600160a01b03831660048201526024810182905260440161088b565b60006001600160a01b038316158015906116f45750826001600160a01b0316846001600160a01b0316148061251657506125168484611582565b806116f45750506000908152600460205260409020546001600160a01b03908116911614919050565b6001600160e01b03198116811461167957600080fd5b60006020828403121561256757600080fd5b81356109018161253f565b60005b8381101561258d578181015183820152602001612575565b50506000910152565b600081518084526125ae816020860160208601612572565b601f01601f19169290920160200192915050565b6020815260006109016020830184612596565b6000602082840312156125e757600080fd5b5035919050565b80356001600160a01b038116811461260557600080fd5b919050565b6000806040838503121561261d57600080fd5b612626836125ee565b946020939093013593505050565b60008060006060848603121561264957600080fd5b612652846125ee565b9250612660602085016125ee565b9150604084013590509250925092565b60006020828403121561268257600080fd5b610901826125ee565b6000806020838503121561269e57600080fd5b823567ffffffffffffffff808211156126b657600080fd5b818501915085601f8301126126ca57600080fd5b8135818111156126d957600080fd5b8660208285010111156126eb57600080fd5b60209290920196919550909350505050565b801515811461167957600080fd5b6000806040838503121561271e57600080fd5b612727836125ee565b91506020830135612737816126fd565b809150509250929050565b634e487b7160e01b600052604160045260246000fd5b6000806000806080858703121561276e57600080fd5b612777856125ee565b9350612785602086016125ee565b925060408501359150606085013567ffffffffffffffff808211156127a957600080fd5b818701915087601f8301126127bd57600080fd5b8135818111156127cf576127cf612742565b604051601f8201601f19908116603f011681019083821181831017156127f7576127f7612742565b816040528281528a602084870101111561281057600080fd5b82602086016020830137600060208483010152809550505050505092959194509250565b6000806040838503121561284757600080fd5b612850836125ee565b915061285e602084016125ee565b90509250929050565b600181811c9082168061287b57607f821691505b60208210810361289b57634e487b7160e01b600052602260045260246000fd5b50919050565b6000602082840312156128b357600080fd5b8151610901816126fd565b634e487b7160e01b600052601160045260246000fd5b6000600182016128e6576128e66128be565b5060010190565b634e487b7160e01b600052603260045260246000fd5b601f821115610c3257600081815260208120601f850160051c8101602086101561292a5750805b601f850160051c820191505b8181101561137b57828155600101612936565b67ffffffffffffffff83111561296157612961612742565b6129758361296f8354612867565b83612903565b6000601f8411600181146129a957600085156129915750838201355b600019600387901b1c1916600186901b178355611b9a565b600083815260209020601f19861690835b828110156129da57868501358255602094850194600190920191016129ba565b50868210156129f75760001960f88860031b161c19848701351681555b505060018560011b0183555050505050565b600060208284031215612a1b57600080fd5b5051919050565b8082028115828204841417610795576107956128be565b80820180821115610795576107956128be565b6001600160a01b0385811682528416602082015260408101839052608060608201819052600090612a7f90830184612596565b9695505050505050565b600060208284031215612a9b57600080fd5b81516109018161253f565b60008351612ab8818460208801612572565b835190830190612acc818360208801612572565b01949350505050565b815167ffffffffffffffff811115612aef57612aef612742565b612b0381612afd8454612867565b84612903565b602080601f831160018114612b385760008415612b205750858301515b600019600386901b1c1916600185901b17855561137b565b600085815260208120601f198616915b82811015612b6757888601518255948401946001909101908401612b48565b5085821015612b855787850151600019600388901b60f8161c191681555b5050505050600190811b01905550565b81810381811115610795576107956128be565b634e487b7160e01b600052603160045260246000fdfea2646970667358221220aff96b0caf2c9bee2bf4e2c2c545153415cebf39b0030715143f6e04f5906aa464736f6c6343000814003360806040523480156200001157600080fd5b5060405162000e4e38038062000e4e8339810160408190526200003491620000c3565b600080546001600160a01b038088166001600160a01b03199283161790925560018054928716929091169190911790556006839055600262000077838262000260565b5060055550506007805460ff19169055506200032c9050565b80516001600160a01b0381168114620000a857600080fd5b919050565b634e487b7160e01b600052604160045260246000fd5b600080600080600060a08688031215620000dc57600080fd5b620000e78662000090565b94506020620000f881880162000090565b6040880151606089015191965094506001600160401b03808211156200011d57600080fd5b818901915089601f8301126200013257600080fd5b815181811115620001475762000147620000ad565b604051601f8201601f19908116603f01168101908382118183101715620001725762000172620000ad565b816040528281528c868487010111156200018b57600080fd5b600093505b82841015620001af578484018601518185018701529285019262000190565b6000868483010152809750505050505050608086015190509295509295909350565b600181811c90821680620001e657607f821691505b6020821081036200020757634e487b7160e01b600052602260045260246000fd5b50919050565b601f8211156200025b57600081815260208120601f850160051c81016020861015620002365750805b601f850160051c820191505b81811015620002575782815560010162000242565b5050505b505050565b81516001600160401b038111156200027c576200027c620000ad565b62000294816200028d8454620001d1565b846200020d565b602080601f831160018114620002cc5760008415620002b35750858301515b600019600386901b1c1916600185901b17855562000257565b600085815260208120601f198616915b82811015620002fd57888601518255948401946001909101908401620002dc565b50858210156200031c5787850151600019600388901b60f8161c191681555b5050505050600190811b01905550565b610b12806200033c6000396000f3fe6080604052600436106100a75760003560e01c806351b42b001161006457806351b42b001461017e5780635468bc2f146101935780636d3a9016146101cb5780637ecfc93e146101eb5780638ee1f07a1461020d578063a035b1fe1461022057600080fd5b806306fdde03146100ac578063089cdd0c146100d75780630f15f4c0146100fb5780631c72ff921461011257806322f3e2d41461013f5780633ccfd60b14610169575b600080fd5b3480156100b857600080fd5b506100c1610236565b6040516100ce9190610913565b60405180910390f35b3480156100e357600080fd5b506100ed60065481565b6040519081526020016100ce565b34801561010757600080fd5b506101106102c4565b005b34801561011e57600080fd5b506100ed61012d366004610979565b60046020526000908152604090205481565b34801561014b57600080fd5b506007546101599060ff1681565b60405190151581526020016100ce565b34801561017557600080fd5b506101106103b7565b34801561018a57600080fd5b506101106104e4565b34801561019f57600080fd5b506101b36101ae36600461099d565b6105ae565b6040516001600160a01b0390911681526020016100ce565b3480156101d757600080fd5b506101106101e63660046109b6565b6105d8565b3480156101f757600080fd5b5061020061071d565b6040516100ce91906109e2565b61011061021b366004610979565b61077f565b34801561022c57600080fd5b506100ed60055481565b6002805461024390610a2f565b80601f016020809104026020016040519081016040528092919081815260200182805461026f90610a2f565b80156102bc5780601f10610291576101008083540402835291602001916102bc565b820191906000526020600020905b81548152906001019060200180831161029f57829003601f168201915b505050505081565b60065460005460405163111fd88b60e01b81526004810183905233916001600160a01b03169063111fd88b90602401602060405180830381865afa158015610310573d6000803e3d6000fd5b505050506040513d601f19601f820116820180604052508101906103349190610a69565b6001600160a01b03161461036357604051632762d31160e01b8152600481018290526024015b60405180910390fd5b60075460ff16156103a75760405162461bcd60e51b815260206004820152600e60248201526d416c72656164792061637469766560901b604482015260640161035a565b506007805460ff19166001179055565b60065460005460405163111fd88b60e01b81526004810183905233916001600160a01b03169063111fd88b90602401602060405180830381865afa158015610403573d6000803e3d6000fd5b505050506040513d601f19601f820116820180604052508101906104279190610a69565b6001600160a01b03161461045157604051632762d31160e01b81526004810182905260240161035a565b604051600090339047908381818185875af1925050503d8060008114610493576040519150601f19603f3d011682016040523d82523d6000602084013e610498565b606091505b50509050806104e05760405162461bcd60e51b81526020600482015260146024820152732330b4b632b2103a379039b2b7321022ba3432b960611b604482015260640161035a565b5050565b60065460005460405163111fd88b60e01b81526004810183905233916001600160a01b03169063111fd88b90602401602060405180830381865afa158015610530573d6000803e3d6000fd5b505050506040513d601f19601f820116820180604052508101906105549190610a69565b6001600160a01b03161461057e57604051632762d31160e01b81526004810182905260240161035a565b60075460ff166105a15760405163037c597f60e01b815260040160405180910390fd5b506007805460ff19169055565b600381815481106105be57600080fd5b6000918252602090912001546001600160a01b0316905081565b60065460005460405163111fd88b60e01b81526004810183905233916001600160a01b03169063111fd88b90602401602060405180830381865afa158015610624573d6000803e3d6000fd5b505050506040513d601f19601f820116820180604052508101906106489190610a69565b6001600160a01b03161461067257604051632762d31160e01b81526004810182905260240161035a565b60075460ff166106955760405163037c597f60e01b815260040160405180910390fd5b6001600160a01b038316600090815260046020526040812054900361070057600380546001810182556000919091527fc2575a0e9e593c00f959f8c92f12db2869c3395a3b0502d05e2516446f71f85b0180546001600160a01b0319166001600160a01b0385161790555b506001600160a01b03909116600090815260046020526040902055565b6060600380548060200260200160405190810160405280929190818152602001828054801561077557602002820191906000526020600020905b81546001600160a01b03168152600190910190602001808311610757575b5050505050905090565b600554600154604051638542bdff60e01b8152600481018390523492916000916001600160a01b0390911690638542bdff90602401602060405180830381865afa1580156107d1573d6000803e3d6000fd5b505050506040513d601f19601f820116820180604052508101906107f59190610a86565b905080831015610822576040516324299e4f60e21b8152600481018490526024810183905260440161035a565b60075460ff166108455760405163037c597f60e01b815260040160405180910390fd5b60005b60035481101561090c5760006003828154811061086757610867610a9f565b60009182526020808320909101546001600160a01b031680835260049182905260409283902054925163b587544b60e01b8152909350839263b587544b926108c6928b9291016001600160a01b03929092168252602082015260400190565b600060405180830381600087803b1580156108e057600080fd5b505af11580156108f4573d6000803e3d6000fd5b5050505050808061090490610ab5565b915050610848565b5050505050565b600060208083528351808285015260005b8181101561094057858101830151858201604001528201610924565b506000604082860101526040601f19601f8301168501019250505092915050565b6001600160a01b038116811461097657600080fd5b50565b60006020828403121561098b57600080fd5b813561099681610961565b9392505050565b6000602082840312156109af57600080fd5b5035919050565b600080604083850312156109c957600080fd5b82356109d481610961565b946020939093013593505050565b6020808252825182820181905260009190848201906040850190845b81811015610a235783516001600160a01b0316835292840192918401916001016109fe565b50909695505050505050565b600181811c90821680610a4357607f821691505b602082108103610a6357634e487b7160e01b600052602260045260246000fd5b50919050565b600060208284031215610a7b57600080fd5b815161099681610961565b600060208284031215610a9857600080fd5b5051919050565b634e487b7160e01b600052603260045260246000fd5b600060018201610ad557634e487b7160e01b600052601160045260246000fd5b506001019056fea2646970667358221220054dd8e91ee1639d18df604ee940347445ba05d6f3fbf303fb136b27afd6f6ab64736f6c63430008140033a2646970667358221220a87893173806ff5354900e4eae36672dae1dfd1606055cf69b8fda3466d100f464736f6c63430008140033",
  "linkReferences": {},
  "deployedLinkReferences": {}
}