{
  "_format": "hh-sol-artifact-1",
  "contractName": "EventCreation",
  "sourceName": "contracts/EventCreation.sol",
  "abi": [
    {
      "inputs": [
        {
          "internalType": "uint256",
          "name": "eventId",
          "type": "uint256"
        }
      ],
      "name": "NotTheAdmin",
      "type": "error"
    },
    {
      "anonymous": false,
      "inputs": [
        {
          "indexed": true,
          "internalType": "uint256",
          "name": "eventId",
          "type": "uint256"
        },
        {
          "indexed": false,
          "internalType": "string",
          "name": "newDescription",
          "type": "string"
        }
      ],
      "name": "DescriptionChanged",
      "type": "event"
    },
    {
      "anonymous": false,
      "inputs": [
        {
          "components": [
            {
              "internalType": "uint256",
              "name": "id",
              "type": "uint256"
            },
            {
              "internalType": "string",
              "name": "name",
              "type": "string"
            },
            {
              "internalType": "string",
              "name": "description",
              "type": "string"
            },
            {
              "internalType": "string",
              "name": "location",
              "type": "string"
            },
            {
              "internalType": "string",
              "name": "logoUrl",
              "type": "string"
            },
            {
              "internalType": "address",
              "name": "admin",
              "type": "address"
            },
            {
              "internalType": "uint256",
              "name": "numberOfTickets",
              "type": "uint256"
            },
            {
              "internalType": "bool",
              "name": "isActive",
              "type": "bool"
            }
          ],
          "indexed": false,
          "internalType": "struct EventCreation.Event",
          "name": "createdEvent",
          "type": "tuple"
        }
      ],
      "name": "EventCreated",
      "type": "event"
    },
    {
      "anonymous": false,
      "inputs": [
        {
          "indexed": true,
          "internalType": "uint256",
          "name": "eventId",
          "type": "uint256"
        }
      ],
      "name": "EventDeleted",
      "type": "event"
    },
    {
      "anonymous": false,
      "inputs": [
        {
          "indexed": true,
          "internalType": "uint256",
          "name": "eventId",
          "type": "uint256"
        }
      ],
      "name": "EventReactivated",
      "type": "event"
    },
    {
      "anonymous": false,
      "inputs": [
        {
          "indexed": true,
          "internalType": "uint256",
          "name": "eventId",
          "type": "uint256"
        },
        {
          "indexed": false,
          "internalType": "string",
          "name": "newLocation",
          "type": "string"
        }
      ],
      "name": "LocationChanged",
      "type": "event"
    },
    {
      "anonymous": false,
      "inputs": [
        {
          "indexed": true,
          "internalType": "uint256",
          "name": "eventId",
          "type": "uint256"
        },
        {
          "indexed": false,
          "internalType": "string",
          "name": "newLogoUrl",
          "type": "string"
        }
      ],
      "name": "LogoUrlChanged",
      "type": "event"
    },
    {
      "anonymous": false,
      "inputs": [
        {
          "indexed": true,
          "internalType": "uint256",
          "name": "eventId",
          "type": "uint256"
        },
        {
          "indexed": false,
          "internalType": "uint256",
          "name": "newNumberOfTickets",
          "type": "uint256"
        }
      ],
      "name": "NumberOfTicketsChanged",
      "type": "event"
    },
    {
      "inputs": [
        {
          "internalType": "address",
          "name": "allowedAddress",
          "type": "address"
        },
        {
          "internalType": "uint256",
          "name": "eventId",
          "type": "uint256"
        }
      ],
      "name": "addAllowedAddress",
      "outputs": [],
      "stateMutability": "nonpayable",
      "type": "function"
    },
    {
      "inputs": [
        {
          "internalType": "address",
          "name": "deployedExtraAddress",
          "type": "address"
        },
        {
          "internalType": "uint256",
          "name": "eventId",
          "type": "uint256"
        },
        {
          "internalType": "address",
          "name": "caller",
          "type": "address"
        }
      ],
      "name": "addExtra",
      "outputs": [],
      "stateMutability": "nonpayable",
      "type": "function"
    },
    {
      "inputs": [
        {
          "internalType": "uint256",
          "name": "",
          "type": "uint256"
        },
        {
          "internalType": "address",
          "name": "",
          "type": "address"
        }
      ],
      "name": "allowedList",
      "outputs": [
        {
          "internalType": "bool",
          "name": "",
          "type": "bool"
        }
      ],
      "stateMutability": "view",
      "type": "function"
    },
    {
      "inputs": [
        {
          "internalType": "string",
          "name": "newDescription",
          "type": "string"
        },
        {
          "internalType": "uint256",
          "name": "eventId",
          "type": "uint256"
        }
      ],
      "name": "changeDescription",
      "outputs": [],
      "stateMutability": "nonpayable",
      "type": "function"
    },
    {
      "inputs": [
        {
          "internalType": "string",
          "name": "newLocation",
          "type": "string"
        },
        {
          "internalType": "uint256",
          "name": "eventId",
          "type": "uint256"
        }
      ],
      "name": "changeLocation",
      "outputs": [],
      "stateMutability": "nonpayable",
      "type": "function"
    },
    {
      "inputs": [
        {
          "internalType": "string",
          "name": "newLogoUrl",
          "type": "string"
        },
        {
          "internalType": "uint256",
          "name": "eventId",
          "type": "uint256"
        }
      ],
      "name": "changeLogo",
      "outputs": [],
      "stateMutability": "nonpayable",
      "type": "function"
    },
    {
      "inputs": [
        {
          "internalType": "uint256",
          "name": "newNumberOfTickets",
          "type": "uint256"
        },
        {
          "internalType": "uint256",
          "name": "eventId",
          "type": "uint256"
        }
      ],
      "name": "changeNumberOfTickets",
      "outputs": [],
      "stateMutability": "nonpayable",
      "type": "function"
    },
    {
      "inputs": [
        {
          "internalType": "string",
          "name": "name",
          "type": "string"
        },
        {
          "internalType": "string",
          "name": "description",
          "type": "string"
        },
        {
          "internalType": "string",
          "name": "location",
          "type": "string"
        },
        {
          "internalType": "string",
          "name": "logoUrl",
          "type": "string"
        },
        {
          "internalType": "uint256",
          "name": "numberOfTickets",
          "type": "uint256"
        }
      ],
      "name": "createEvent",
      "outputs": [],
      "stateMutability": "nonpayable",
      "type": "function"
    },
    {
      "inputs": [
        {
          "internalType": "uint256",
          "name": "eventId",
          "type": "uint256"
        }
      ],
      "name": "deleteEvent",
      "outputs": [],
      "stateMutability": "nonpayable",
      "type": "function"
    },
    {
      "inputs": [],
      "name": "eventCounter",
      "outputs": [
        {
          "internalType": "uint256",
          "name": "",
          "type": "uint256"
        }
      ],
      "stateMutability": "view",
      "type": "function"
    },
    {
      "inputs": [
        {
          "internalType": "uint256",
          "name": "",
          "type": "uint256"
        }
      ],
      "name": "events",
      "outputs": [
        {
          "internalType": "uint256",
          "name": "id",
          "type": "uint256"
        },
        {
          "internalType": "string",
          "name": "name",
          "type": "string"
        },
        {
          "internalType": "string",
          "name": "description",
          "type": "string"
        },
        {
          "internalType": "string",
          "name": "location",
          "type": "string"
        },
        {
          "internalType": "string",
          "name": "logoUrl",
          "type": "string"
        },
        {
          "internalType": "address",
          "name": "admin",
          "type": "address"
        },
        {
          "internalType": "uint256",
          "name": "numberOfTickets",
          "type": "uint256"
        },
        {
          "internalType": "bool",
          "name": "isActive",
          "type": "bool"
        }
      ],
      "stateMutability": "view",
      "type": "function"
    },
    {
      "inputs": [
        {
          "internalType": "uint256",
          "name": "",
          "type": "uint256"
        },
        {
          "internalType": "uint256",
          "name": "",
          "type": "uint256"
        }
      ],
      "name": "extras",
      "outputs": [
        {
          "internalType": "address",
          "name": "",
          "type": "address"
        }
      ],
      "stateMutability": "view",
      "type": "function"
    },
    {
      "inputs": [
        {
          "internalType": "uint256",
          "name": "eventId",
          "type": "uint256"
        }
      ],
      "name": "getExtras",
      "outputs": [
        {
          "internalType": "address[]",
          "name": "",
          "type": "address[]"
        }
      ],
      "stateMutability": "view",
      "type": "function"
    },
    {
      "inputs": [
        {
          "internalType": "uint256",
          "name": "eventId",
          "type": "uint256"
        }
      ],
      "name": "getMintedTickets",
      "outputs": [
        {
          "internalType": "uint256",
          "name": "",
          "type": "uint256"
        }
      ],
      "stateMutability": "view",
      "type": "function"
    },
    {
      "inputs": [
        {
          "internalType": "uint256",
          "name": "eventId",
          "type": "uint256"
        }
      ],
      "name": "getNumberOfTickets",
      "outputs": [
        {
          "internalType": "uint256",
          "name": "",
          "type": "uint256"
        }
      ],
      "stateMutability": "view",
      "type": "function"
    },
    {
      "inputs": [
        {
          "internalType": "uint256",
          "name": "eventId",
          "type": "uint256"
        }
      ],
      "name": "increaseMintedTickets",
      "outputs": [],
      "stateMutability": "nonpayable",
      "type": "function"
    },
    {
      "inputs": [
        {
          "internalType": "uint256",
          "name": "eventId",
          "type": "uint256"
        },
        {
          "internalType": "address",
          "name": "addressToCheck",
          "type": "address"
        }
      ],
      "name": "isAllowed",
      "outputs": [
        {
          "internalType": "bool",
          "name": "",
          "type": "bool"
        }
      ],
      "stateMutability": "view",
      "type": "function"
    },
    {
      "inputs": [
        {
          "internalType": "uint256",
          "name": "",
          "type": "uint256"
        }
      ],
      "name": "mintedTickets",
      "outputs": [
        {
          "internalType": "uint256",
          "name": "",
          "type": "uint256"
        }
      ],
      "stateMutability": "view",
      "type": "function"
    },
    {
      "inputs": [
        {
          "internalType": "uint256",
          "name": "eventId",
          "type": "uint256"
        }
      ],
      "name": "reactivateEvent",
      "outputs": [],
      "stateMutability": "nonpayable",
      "type": "function"
    }
  ],
  "bytecode": "0x608060405234801561001057600080fd5b50611431806100206000396000f3fe608060405234801561001057600080fd5b50600436106101215760003560e01c80636e59b1ad116100ad578063be25238611610071578063be252386146102d5578063cd710ada146102e8578063e26c2c6b14610308578063e27923bc1461031b578063f8749a581461033b57600080fd5b80636e59b1ad14610266578063832a47dd146102895780639bc146371461029c578063b8956cd4146102af578063bdcf5b8e146102c257600080fd5b806341466b28116100f457806341466b28146101c057806352c55db9146101fe57806358528aa5146102075780635faa299a1461021a5780636e1005d31461025357600080fd5b8063098b16cb146101265780630b791430146101565780632c48a9b01461017d578063381ee22d146101ab575b600080fd5b610139610134366004610cf2565b61034e565b6040516001600160a01b0390911681526020015b60405180910390f35b610169610164366004610d14565b610386565b60405161014d989796959493929190610d73565b61019d61018b366004610d14565b60009081526003602052604090205490565b60405190815260200161014d565b6101be6101b9366004610e3e565b6105f6565b005b6101ee6101ce366004610ea6565b600260209081526000928352604080842090915290825290205460ff1681565b604051901515815260200161014d565b61019d60045481565b6101be610215366004610e3e565b610697565b6101ee610228366004610ea6565b60009182526002602090815260408084206001600160a01b0393909316845291905290205460ff1690565b6101be610261366004610ed2565b610725565b61019d610274366004610d14565b60009081526020819052604090206006015490565b6101be610297366004610d14565b6107a9565b6101be6102aa366004610f0e565b61082f565b6101be6102bd366004610e3e565b61089e565b6101be6102d0366004610f38565b61092c565b6101be6102e3366004610d14565b610b55565b61019d6102f6366004610d14565b60036020526000908152604090205481565b6101be610316366004610cf2565b610b77565b61032e610329366004610d14565b610c03565b60405161014d9190611004565b6101be610349366004610d14565b610c6f565b6001602052816000526040600020818154811061036a57600080fd5b6000918252602090912001546001600160a01b03169150829050565b600060208190529081526040902080546001820180549192916103a890611051565b80601f01602080910402602001604051908101604052809291908181526020018280546103d490611051565b80156104215780601f106103f657610100808354040283529160200191610421565b820191906000526020600020905b81548152906001019060200180831161040457829003601f168201915b50505050509080600201805461043690611051565b80601f016020809104026020016040519081016040528092919081815260200182805461046290611051565b80156104af5780601f10610484576101008083540402835291602001916104af565b820191906000526020600020905b81548152906001019060200180831161049257829003601f168201915b5050505050908060030180546104c490611051565b80601f01602080910402602001604051908101604052809291908181526020018280546104f090611051565b801561053d5780601f106105125761010080835404028352916020019161053d565b820191906000526020600020905b81548152906001019060200180831161052057829003601f168201915b50505050509080600401805461055290611051565b80601f016020809104026020016040519081016040528092919081815260200182805461057e90611051565b80156105cb5780601f106105a0576101008083540402835291602001916105cb565b820191906000526020600020905b8154815290600101906020018083116105ae57829003601f168201915b505050506005830154600684015460079094015492936001600160a01b039091169290915060ff1688565b60008181526020819052604090206005015481906001600160a01b0316331461063a57604051632762d31160e01b8152600481018290526024015b60405180910390fd5b60008281526020819052604090206003016106568486836110f0565b50817fc966a534f9ea8b5fa4b2d19a749446e4735b139324b0422bfbd6dea32940c27785856040516106899291906111b1565b60405180910390a250505050565b60008181526020819052604090206005015481906001600160a01b031633146106d657604051632762d31160e01b815260048101829052602401610631565b60008281526020819052604090206004016106f28486836110f0565b50817f50dc1995455850d4421eba1f9a31a69b14e1d2a1e25d9d3a9c91e4af1f0d1f6b85856040516106899291906111b1565b600082815260208190526040902060050154829082906001600160a01b0380831691161461076957604051632762d31160e01b815260048101839052602401610631565b505050600090815260016020818152604083208054928301815583529091200180546001600160a01b0319166001600160a01b0392909216919091179055565b60008181526020819052604090206005015481906001600160a01b031633146107e857604051632762d31160e01b815260048101829052602401610631565b600082815260208190526040808220600701805460ff191660011790555183917f5f8f608bcaab1e48c138f71ca0f381b01519122d0ffe27c0595c98db798aa97091a25050565b60008181526020819052604090206005015481906001600160a01b0316331461086e57604051632762d31160e01b815260048101829052602401610631565b5060009081526002602090815260408083206001600160a01b03909416835292905220805460ff19166001179055565b60008181526020819052604090206005015481906001600160a01b031633146108dd57604051632762d31160e01b815260048101829052602401610631565b60008281526020819052604090206002016108f98486836110f0565b50817ff2da8d33c1b28dc862c3260e93659ab53e6453f33919b9c86c39070dee2389ca85856040516106899291906111b1565b600480546000918261093d836111e0565b9190505590506040518061010001604052808281526020018b8b8080601f016020809104026020016040519081016040528093929190818152602001838380828437600092019190915250505090825250604080516020601f8c018190048102820181019092528a815291810191908b908b9081908401838280828437600092019190915250505090825250604080516020601f8a0181900481028201810190925288815291810191908990899081908401838280828437600092019190915250505090825250604080516020601f880181900481028201810190925286815291810191908790879081908401838280828437600092018290525093855250503360208085019190915260408085018890526001606090950185905286845283825290922084518155918401519192830191610a7a915082611207565b5060408201516002820190610a8f9082611207565b5060608201516003820190610aa49082611207565b5060808201516004820190610ab99082611207565b5060a08201516005820180546001600160a01b0319166001600160a01b0390921691909117905560c0820151600682015560e0909101516007909101805460ff19169115159190911790556000818152602081905260409081902090517f269cf441037a3d23c7c2f0145d868b94cbc327b7b3320cd939894628a337ab8a91610b4191611344565b60405180910390a150505050505050505050565b6000818152600360205260408120805491610b6f836111e0565b919050555050565b60008181526020819052604090206005015481906001600160a01b03163314610bb657604051632762d31160e01b815260048101829052602401610631565b60008281526020818152604091829020600601859055905184815283917fa39b234224babfe908d053ed40d3e630df1b4159a79dafa984f21ef0f395f07c910160405180910390a2505050565b600081815260016020908152604091829020805483518184028101840190945280845260609392830182828015610c6357602002820191906000526020600020905b81546001600160a01b03168152600190910190602001808311610c45575b50505050509050919050565b60008181526020819052604090206005015481906001600160a01b03163314610cae57604051632762d31160e01b815260048101829052602401610631565b600082815260208190526040808220600701805460ff191690555183917f24089da2b94d456671c6e08e154081718367fe1b3eb2bf048f9ded0b2ce2270a91a25050565b60008060408385031215610d0557600080fd5b50508035926020909101359150565b600060208284031215610d2657600080fd5b5035919050565b6000815180845260005b81811015610d5357602081850181015186830182015201610d37565b506000602082860101526020601f19601f83011685010191505092915050565b60006101008a8352806020840152610d8d8184018b610d2d565b90508281036040840152610da1818a610d2d565b90508281036060840152610db58189610d2d565b90508281036080840152610dc98188610d2d565b6001600160a01b039690961660a0840152505060c0810192909252151560e09091015295945050505050565b60008083601f840112610e0757600080fd5b50813567ffffffffffffffff811115610e1f57600080fd5b602083019150836020828501011115610e3757600080fd5b9250929050565b600080600060408486031215610e5357600080fd5b833567ffffffffffffffff811115610e6a57600080fd5b610e7686828701610df5565b909790965060209590950135949350505050565b80356001600160a01b0381168114610ea157600080fd5b919050565b60008060408385031215610eb957600080fd5b82359150610ec960208401610e8a565b90509250929050565b600080600060608486031215610ee757600080fd5b610ef084610e8a565b925060208401359150610f0560408501610e8a565b90509250925092565b60008060408385031215610f2157600080fd5b610f2a83610e8a565b946020939093013593505050565b600080600080600080600080600060a08a8c031215610f5657600080fd5b893567ffffffffffffffff80821115610f6e57600080fd5b610f7a8d838e01610df5565b909b50995060208c0135915080821115610f9357600080fd5b610f9f8d838e01610df5565b909950975060408c0135915080821115610fb857600080fd5b610fc48d838e01610df5565b909750955060608c0135915080821115610fdd57600080fd5b50610fea8c828d01610df5565b9a9d999c50979a9699959894979660800135949350505050565b6020808252825182820181905260009190848201906040850190845b818110156110455783516001600160a01b031683529284019291840191600101611020565b50909695505050505050565b600181811c9082168061106557607f821691505b60208210810361108557634e487b7160e01b600052602260045260246000fd5b50919050565b634e487b7160e01b600052604160045260246000fd5b601f8211156110eb57600081815260208120601f850160051c810160208610156110c85750805b601f850160051c820191505b818110156110e7578281556001016110d4565b5050505b505050565b67ffffffffffffffff8311156111085761110861108b565b61111c836111168354611051565b836110a1565b6000601f84116001811461115057600085156111385750838201355b600019600387901b1c1916600186901b1783556111aa565b600083815260209020601f19861690835b828110156111815786850135825560209485019460019092019101611161565b508682101561119e5760001960f88860031b161c19848701351681555b505060018560011b0183555b5050505050565b60208152816020820152818360408301376000818301604090810191909152601f909201601f19160101919050565b60006001820161120057634e487b7160e01b600052601160045260246000fd5b5060010190565b815167ffffffffffffffff8111156112215761122161108b565b6112358161122f8454611051565b846110a1565b602080601f83116001811461126a57600084156112525750858301515b600019600386901b1c1916600185901b1785556110e7565b600085815260208120601f198616915b828110156112995788860151825594840194600190910190840161127a565b50858210156112b75787850151600019600388901b60f8161c191681555b5050505050600190811b01905550565b600081546112d481611051565b8085526020600183811680156112f1576001811461130b57611339565b60ff1985168884015283151560051b880183019550611339565b866000528260002060005b858110156113315781548a8201860152908301908401611316565b890184019650505b505050505092915050565b6020815281546020820152600061010080604084015261136b6101208401600186016112c7565b601f198085830301606086015261138582600288016112c7565b91508085830301608086015261139e82600388016112c7565b9150808583030160a0860152506113b881600487016112c7565b90506113ce60058601546001600160a01b031690565b6001600160a01b031660c0850152600685015460e085015260079094015460ff161515920191909152509056fea2646970667358221220966e942074b8f64d7c29a3cf5b1e3dc259cee316f0bf6424ebaa00cf17d5c06a64736f6c63430008140033",
  "linkReferences": {},
  "deployedLinkReferences": {}
}