{
  "_format": "hh-sol-artifact-1",
  "contractName": "ExtraNft",
  "sourceName": "contracts/ExtraNft.sol",
  "abi": [
    {
      "inputs": [
        {
          "internalType": "string",
          "name": "_name",
          "type": "string"
        },
        {
          "internalType": "string",
          "name": "_symbol",
          "type": "string"
        },
        {
          "internalType": "string",
          "name": "_uri",
          "type": "string"
        },
        {
          "internalType": "uint256",
          "name": "_extraType",
          "type": "uint256"
        },
        {
          "internalType": "uint256",
          "name": "_price",
          "type": "uint256"
        },
        {
          "internalType": "address",
          "name": "_eventCreationAddress",
          "type": "address"
        },
        {
          "internalType": "uint256",
          "name": "_eventId",
          "type": "uint256"
        },
        {
          "internalType": "address",
          "name": "_priceFeedHandlerAddress",
          "type": "address"
        }
      ],
      "stateMutability": "nonpayable",
      "type": "constructor"
    },
    {
      "inputs": [],
      "name": "ERC721EnumerableForbiddenBatchMint",
      "type": "error"
    },
    {
      "inputs": [
        {
          "internalType": "address",
          "name": "sender",
          "type": "address"
        },
        {
          "internalType": "uint256",
          "name": "tokenId",
          "type": "uint256"
        },
        {
          "internalType": "address",
          "name": "owner",
          "type": "address"
        }
      ],
      "name": "ERC721IncorrectOwner",
      "type": "error"
    },
    {
      "inputs": [
        {
          "internalType": "address",
          "name": "operator",
          "type": "address"
        },
        {
          "internalType": "uint256",
          "name": "tokenId",
          "type": "uint256"
        }
      ],
      "name": "ERC721InsufficientApproval",
      "type": "error"
    },
    {
      "inputs": [
        {
          "internalType": "address",
          "name": "approver",
          "type": "address"
        }
      ],
      "name": "ERC721InvalidApprover",
      "type": "error"
    },
    {
      "inputs": [
        {
          "internalType": "address",
          "name": "operator",
          "type": "address"
        }
      ],
      "name": "ERC721InvalidOperator",
      "type": "error"
    },
    {
      "inputs": [
        {
          "internalType": "address",
          "name": "owner",
          "type": "address"
        }
      ],
      "name": "ERC721InvalidOwner",
      "type": "error"
    },
    {
      "inputs": [
        {
          "internalType": "address",
          "name": "receiver",
          "type": "address"
        }
      ],
      "name": "ERC721InvalidReceiver",
      "type": "error"
    },
    {
      "inputs": [
        {
          "internalType": "address",
          "name": "sender",
          "type": "address"
        }
      ],
      "name": "ERC721InvalidSender",
      "type": "error"
    },
    {
      "inputs": [
        {
          "internalType": "uint256",
          "name": "tokenId",
          "type": "uint256"
        }
      ],
      "name": "ERC721NonexistentToken",
      "type": "error"
    },
    {
      "inputs": [
        {
          "internalType": "address",
          "name": "owner",
          "type": "address"
        },
        {
          "internalType": "uint256",
          "name": "index",
          "type": "uint256"
        }
      ],
      "name": "ERC721OutOfBoundsIndex",
      "type": "error"
    },
    {
      "inputs": [],
      "name": "EnforcedPause",
      "type": "error"
    },
    {
      "inputs": [],
      "name": "ExpectedPause",
      "type": "error"
    },
    {
      "inputs": [
        {
          "internalType": "uint256",
          "name": "tokenId",
          "type": "uint256"
        }
      ],
      "name": "ExtraNonexistent",
      "type": "error"
    },
    {
      "inputs": [
        {
          "internalType": "uint256",
          "name": "currentMintCount",
          "type": "uint256"
        }
      ],
      "name": "MintLimitReached",
      "type": "error"
    },
    {
      "inputs": [
        {
          "internalType": "uint256",
          "name": "moneySent",
          "type": "uint256"
        },
        {
          "internalType": "uint256",
          "name": "price",
          "type": "uint256"
        }
      ],
      "name": "NotEnoughMoneySent",
      "type": "error"
    },
    {
      "inputs": [
        {
          "internalType": "address",
          "name": "_ticketOwner",
          "type": "address"
        }
      ],
      "name": "NotEnoughUnredeemedTokens",
      "type": "error"
    },
    {
      "inputs": [
        {
          "internalType": "uint256",
          "name": "eventId",
          "type": "uint256"
        },
        {
          "internalType": "address",
          "name": "sendersAddress",
          "type": "address"
        }
      ],
      "name": "NotOnAllowList",
      "type": "error"
    },
    {
      "inputs": [
        {
          "internalType": "uint256",
          "name": "eventId",
          "type": "uint256"
        }
      ],
      "name": "NumberOfTicketsLimitReached",
      "type": "error"
    },
    {
      "inputs": [
        {
          "internalType": "address",
          "name": "owner",
          "type": "address"
        }
      ],
      "name": "OwnableInvalidOwner",
      "type": "error"
    },
    {
      "inputs": [
        {
          "internalType": "address",
          "name": "account",
          "type": "address"
        }
      ],
      "name": "OwnableUnauthorizedAccount",
      "type": "error"
    },
    {
      "anonymous": false,
      "inputs": [
        {
          "indexed": true,
          "internalType": "address",
          "name": "owner",
          "type": "address"
        },
        {
          "indexed": true,
          "internalType": "address",
          "name": "approved",
          "type": "address"
        },
        {
          "indexed": true,
          "internalType": "uint256",
          "name": "tokenId",
          "type": "uint256"
        }
      ],
      "name": "Approval",
      "type": "event"
    },
    {
      "anonymous": false,
      "inputs": [
        {
          "indexed": true,
          "internalType": "address",
          "name": "owner",
          "type": "address"
        },
        {
          "indexed": true,
          "internalType": "address",
          "name": "operator",
          "type": "address"
        },
        {
          "indexed": false,
          "internalType": "bool",
          "name": "approved",
          "type": "bool"
        }
      ],
      "name": "ApprovalForAll",
      "type": "event"
    },
    {
      "anonymous": false,
      "inputs": [
        {
          "indexed": false,
          "internalType": "uint256",
          "name": "_fromTokenId",
          "type": "uint256"
        },
        {
          "indexed": false,
          "internalType": "uint256",
          "name": "_toTokenId",
          "type": "uint256"
        }
      ],
      "name": "BatchMetadataUpdate",
      "type": "event"
    },
    {
      "anonymous": false,
      "inputs": [
        {
          "indexed": false,
          "internalType": "uint256",
          "name": "_tokenId",
          "type": "uint256"
        }
      ],
      "name": "MetadataUpdate",
      "type": "event"
    },
    {
      "anonymous": false,
      "inputs": [
        {
          "indexed": true,
          "internalType": "address",
          "name": "previousOwner",
          "type": "address"
        },
        {
          "indexed": true,
          "internalType": "address",
          "name": "newOwner",
          "type": "address"
        }
      ],
      "name": "OwnershipTransferred",
      "type": "event"
    },
    {
      "anonymous": false,
      "inputs": [
        {
          "indexed": false,
          "internalType": "address",
          "name": "account",
          "type": "address"
        }
      ],
      "name": "Paused",
      "type": "event"
    },
    {
      "anonymous": false,
      "inputs": [
        {
          "indexed": true,
          "internalType": "address",
          "name": "from",
          "type": "address"
        },
        {
          "indexed": true,
          "internalType": "address",
          "name": "to",
          "type": "address"
        },
        {
          "indexed": true,
          "internalType": "uint256",
          "name": "tokenId",
          "type": "uint256"
        }
      ],
      "name": "Transfer",
      "type": "event"
    },
    {
      "anonymous": false,
      "inputs": [
        {
          "indexed": false,
          "internalType": "address",
          "name": "account",
          "type": "address"
        }
      ],
      "name": "Unpaused",
      "type": "event"
    },
    {
      "inputs": [],
      "name": "EXTRA_TYPE",
      "outputs": [
        {
          "internalType": "uint256",
          "name": "",
          "type": "uint256"
        }
      ],
      "stateMutability": "view",
      "type": "function"
    },
    {
      "inputs": [
        {
          "internalType": "address",
          "name": "chainlinkContractAddress",
          "type": "address"
        }
      ],
      "name": "addApprovedChainlinkContract",
      "outputs": [],
      "stateMutability": "nonpayable",
      "type": "function"
    },
    {
      "inputs": [
        {
          "internalType": "address",
          "name": "to",
          "type": "address"
        },
        {
          "internalType": "uint256",
          "name": "tokenId",
          "type": "uint256"
        }
      ],
      "name": "approve",
      "outputs": [],
      "stateMutability": "nonpayable",
      "type": "function"
    },
    {
      "inputs": [
        {
          "internalType": "address",
          "name": "",
          "type": "address"
        }
      ],
      "name": "approvedChainlinkContracts",
      "outputs": [
        {
          "internalType": "bool",
          "name": "",
          "type": "bool"
        }
      ],
      "stateMutability": "view",
      "type": "function"
    },
    {
      "inputs": [
        {
          "internalType": "address",
          "name": "owner",
          "type": "address"
        }
      ],
      "name": "balanceOf",
      "outputs": [
        {
          "internalType": "uint256",
          "name": "",
          "type": "uint256"
        }
      ],
      "stateMutability": "view",
      "type": "function"
    },
    {
      "inputs": [
        {
          "internalType": "address",
          "name": "_ticketOwner",
          "type": "address"
        },
        {
          "internalType": "uint256",
          "name": "_amount",
          "type": "uint256"
        }
      ],
      "name": "bulkRedeem",
      "outputs": [],
      "stateMutability": "nonpayable",
      "type": "function"
    },
    {
      "inputs": [
        {
          "internalType": "address",
          "name": "_to",
          "type": "address"
        },
        {
          "internalType": "uint256",
          "name": "_amount",
          "type": "uint256"
        }
      ],
      "name": "bulkTransferUnredeemedTokens",
      "outputs": [],
      "stateMutability": "nonpayable",
      "type": "function"
    },
    {
      "inputs": [],
      "name": "eventId",
      "outputs": [
        {
          "internalType": "uint256",
          "name": "",
          "type": "uint256"
        }
      ],
      "stateMutability": "view",
      "type": "function"
    },
    {
      "inputs": [
        {
          "internalType": "uint256",
          "name": "tokenId",
          "type": "uint256"
        }
      ],
      "name": "getApproved",
      "outputs": [
        {
          "internalType": "address",
          "name": "",
          "type": "address"
        }
      ],
      "stateMutability": "view",
      "type": "function"
    },
    {
      "inputs": [
        {
          "internalType": "address",
          "name": "_ticketOwner",
          "type": "address"
        }
      ],
      "name": "getUnredeemedBalance",
      "outputs": [
        {
          "internalType": "uint256",
          "name": "",
          "type": "uint256"
        }
      ],
      "stateMutability": "view",
      "type": "function"
    },
    {
      "inputs": [
        {
          "internalType": "address",
          "name": "owner",
          "type": "address"
        },
        {
          "internalType": "address",
          "name": "operator",
          "type": "address"
        }
      ],
      "name": "isApprovedForAll",
      "outputs": [
        {
          "internalType": "bool",
          "name": "",
          "type": "bool"
        }
      ],
      "stateMutability": "view",
      "type": "function"
    },
    {
      "inputs": [],
      "name": "mintLimit",
      "outputs": [
        {
          "internalType": "uint256",
          "name": "",
          "type": "uint256"
        }
      ],
      "stateMutability": "view",
      "type": "function"
    },
    {
      "inputs": [],
      "name": "name",
      "outputs": [
        {
          "internalType": "string",
          "name": "",
          "type": "string"
        }
      ],
      "stateMutability": "view",
      "type": "function"
    },
    {
      "inputs": [],
      "name": "owner",
      "outputs": [
        {
          "internalType": "address",
          "name": "",
          "type": "address"
        }
      ],
      "stateMutability": "view",
      "type": "function"
    },
    {
      "inputs": [
        {
          "internalType": "uint256",
          "name": "tokenId",
          "type": "uint256"
        }
      ],
      "name": "ownerOf",
      "outputs": [
        {
          "internalType": "address",
          "name": "",
          "type": "address"
        }
      ],
      "stateMutability": "view",
      "type": "function"
    },
    {
      "inputs": [],
      "name": "pause",
      "outputs": [],
      "stateMutability": "nonpayable",
      "type": "function"
    },
    {
      "inputs": [],
      "name": "paused",
      "outputs": [
        {
          "internalType": "bool",
          "name": "",
          "type": "bool"
        }
      ],
      "stateMutability": "view",
      "type": "function"
    },
    {
      "inputs": [],
      "name": "price",
      "outputs": [
        {
          "internalType": "uint256",
          "name": "",
          "type": "uint256"
        }
      ],
      "stateMutability": "view",
      "type": "function"
    },
    {
      "inputs": [],
      "name": "priceFeedHandler",
      "outputs": [
        {
          "internalType": "contract PriceFeedHandler",
          "name": "",
          "type": "address"
        }
      ],
      "stateMutability": "view",
      "type": "function"
    },
    {
      "inputs": [
        {
          "internalType": "uint256",
          "name": "tokenId",
          "type": "uint256"
        }
      ],
      "name": "redeem",
      "outputs": [],
      "stateMutability": "nonpayable",
      "type": "function"
    },
    {
      "inputs": [
        {
          "internalType": "uint256",
          "name": "",
          "type": "uint256"
        }
      ],
      "name": "redemptionMap",
      "outputs": [
        {
          "internalType": "bool",
          "name": "",
          "type": "bool"
        }
      ],
      "stateMutability": "view",
      "type": "function"
    },
    {
      "inputs": [],
      "name": "renounceOwnership",
      "outputs": [],
      "stateMutability": "nonpayable",
      "type": "function"
    },
    {
      "inputs": [
        {
          "internalType": "address",
          "name": "to",
          "type": "address"
        },
        {
          "internalType": "uint256",
          "name": "_amount",
          "type": "uint256"
        }
      ],
      "name": "safeMint",
      "outputs": [],
      "stateMutability": "payable",
      "type": "function"
    },
    {
      "inputs": [
        {
          "internalType": "address",
          "name": "from",
          "type": "address"
        },
        {
          "internalType": "address",
          "name": "to",
          "type": "address"
        },
        {
          "internalType": "uint256",
          "name": "tokenId",
          "type": "uint256"
        }
      ],
      "name": "safeTransferFrom",
      "outputs": [],
      "stateMutability": "nonpayable",
      "type": "function"
    },
    {
      "inputs": [
        {
          "internalType": "address",
          "name": "from",
          "type": "address"
        },
        {
          "internalType": "address",
          "name": "to",
          "type": "address"
        },
        {
          "internalType": "uint256",
          "name": "tokenId",
          "type": "uint256"
        },
        {
          "internalType": "bytes",
          "name": "data",
          "type": "bytes"
        }
      ],
      "name": "safeTransferFrom",
      "outputs": [],
      "stateMutability": "nonpayable",
      "type": "function"
    },
    {
      "inputs": [
        {
          "internalType": "address",
          "name": "operator",
          "type": "address"
        },
        {
          "internalType": "bool",
          "name": "approved",
          "type": "bool"
        }
      ],
      "name": "setApprovalForAll",
      "outputs": [],
      "stateMutability": "nonpayable",
      "type": "function"
    },
    {
      "inputs": [
        {
          "internalType": "bytes4",
          "name": "interfaceId",
          "type": "bytes4"
        }
      ],
      "name": "supportsInterface",
      "outputs": [
        {
          "internalType": "bool",
          "name": "",
          "type": "bool"
        }
      ],
      "stateMutability": "view",
      "type": "function"
    },
    {
      "inputs": [],
      "name": "symbol",
      "outputs": [
        {
          "internalType": "string",
          "name": "",
          "type": "string"
        }
      ],
      "stateMutability": "view",
      "type": "function"
    },
    {
      "inputs": [
        {
          "internalType": "uint256",
          "name": "index",
          "type": "uint256"
        }
      ],
      "name": "tokenByIndex",
      "outputs": [
        {
          "internalType": "uint256",
          "name": "",
          "type": "uint256"
        }
      ],
      "stateMutability": "view",
      "type": "function"
    },
    {
      "inputs": [
        {
          "internalType": "address",
          "name": "owner",
          "type": "address"
        },
        {
          "internalType": "uint256",
          "name": "index",
          "type": "uint256"
        }
      ],
      "name": "tokenOfOwnerByIndex",
      "outputs": [
        {
          "internalType": "uint256",
          "name": "",
          "type": "uint256"
        }
      ],
      "stateMutability": "view",
      "type": "function"
    },
    {
      "inputs": [
        {
          "internalType": "uint256",
          "name": "tokenId",
          "type": "uint256"
        }
      ],
      "name": "tokenURI",
      "outputs": [
        {
          "internalType": "string",
          "name": "",
          "type": "string"
        }
      ],
      "stateMutability": "view",
      "type": "function"
    },
    {
      "inputs": [],
      "name": "totalSupply",
      "outputs": [
        {
          "internalType": "uint256",
          "name": "",
          "type": "uint256"
        }
      ],
      "stateMutability": "view",
      "type": "function"
    },
    {
      "inputs": [
        {
          "internalType": "address",
          "name": "from",
          "type": "address"
        },
        {
          "internalType": "address",
          "name": "to",
          "type": "address"
        },
        {
          "internalType": "uint256",
          "name": "tokenId",
          "type": "uint256"
        }
      ],
      "name": "transferFrom",
      "outputs": [],
      "stateMutability": "nonpayable",
      "type": "function"
    },
    {
      "inputs": [
        {
          "internalType": "address",
          "name": "newOwner",
          "type": "address"
        }
      ],
      "name": "transferOwnership",
      "outputs": [],
      "stateMutability": "nonpayable",
      "type": "function"
    },
    {
      "inputs": [],
      "name": "unpause",
      "outputs": [],
      "stateMutability": "nonpayable",
      "type": "function"
    },
    {
      "inputs": [
        {
          "internalType": "uint256",
          "name": "updatedLimit",
          "type": "uint256"
        }
      ],
      "name": "updateMintLimit",
      "outputs": [],
      "stateMutability": "nonpayable",
      "type": "function"
    },
    {
      "inputs": [
        {
          "internalType": "uint256",
          "name": "updatedPrice",
          "type": "uint256"
        }
      ],
      "name": "updatePrice",
      "outputs": [],
      "stateMutability": "nonpayable",
      "type": "function"
    },
    {
      "inputs": [
        {
          "internalType": "string",
          "name": "updatedUri",
          "type": "string"
        }
      ],
      "name": "updateUri",
      "outputs": [],
      "stateMutability": "nonpayable",
      "type": "function"
    },
    {
      "inputs": [],
      "name": "uri",
      "outputs": [
        {
          "internalType": "string",
          "name": "",
          "type": "string"
        }
      ],
      "stateMutability": "view",
      "type": "function"
    },
    {
      "inputs": [],
      "name": "withdraw",
      "outputs": [],
      "stateMutability": "payable",
      "type": "function"
    }
  ],
  "bytecode": "0x60a06040526000196013553480156200001757600080fd5b5060405162002d6038038062002d608339810160408190526200003a91620002a0565b33888860006200004b838262000403565b5060016200005a828262000403565b50506007805460ff19169055506001600160a01b0381166200009657604051631e4fbdf760e01b81526000600482015260240160405180910390fd5b620000a1816200016c565b50600d80546001600160a01b0319166001600160a01b038516179055601182905560108490556012620000d5878262000403565b506080859052600e80546001600160a01b0319166001600160a01b0383811691909117909155600d54604051636e1005d360e01b815230600482015260248101859052336044820152911690636e1005d390606401600060405180830381600087803b1580156200014557600080fd5b505af11580156200015a573d6000803e3d6000fd5b505050505050505050505050620004cf565b600c80546001600160a01b038381166001600160a01b0319831681179093556040519116919082907f8be0079c531659141344cd1fd0a4f28419497f9722a3daafe3b4186f6b6457e090600090a35050565b634e487b7160e01b600052604160045260246000fd5b600082601f830112620001e657600080fd5b81516001600160401b0380821115620002035762000203620001be565b604051601f8301601f19908116603f011681019082821181831017156200022e576200022e620001be565b816040528381526020925086838588010111156200024b57600080fd5b600091505b838210156200026f578582018301518183018401529082019062000250565b600093810190920192909252949350505050565b80516001600160a01b03811681146200029b57600080fd5b919050565b600080600080600080600080610100898b031215620002be57600080fd5b88516001600160401b0380821115620002d657600080fd5b620002e48c838d01620001d4565b995060208b0151915080821115620002fb57600080fd5b620003098c838d01620001d4565b985060408b01519150808211156200032057600080fd5b506200032f8b828c01620001d4565b96505060608901519450608089015193506200034e60a08a0162000283565b925060c089015191506200036560e08a0162000283565b90509295985092959890939650565b600181811c908216806200038957607f821691505b602082108103620003aa57634e487b7160e01b600052602260045260246000fd5b50919050565b601f821115620003fe57600081815260208120601f850160051c81016020861015620003d95750805b601f850160051c820191505b81811015620003fa57828155600101620003e5565b5050505b505050565b81516001600160401b038111156200041f576200041f620001be565b620004378162000430845462000374565b84620003b0565b602080601f8311600181146200046f5760008415620004565750858301515b600019600386901b1c1916600185901b178555620003fa565b600085815260208120601f198616915b82811015620004a0578886015182559484019460019091019084016200047f565b5085821015620004bf5787850151600019600388901b60f8161c191681555b5050505050600190811b01905550565b60805161286e620004f2600039600081816105c401526110a1015261286e6000f3fe60806040526004361061023b5760003560e01c80637a7e3c121161012e578063a1448194116100ab578063db006a751161006f578063db006a751461068f578063e01d55c5146106af578063e985e9c5146106cf578063eac989f8146106ef578063f2fde38b1461070457600080fd5b8063a1448194146105fc578063a22cb4651461060f578063b88d4fde1461062f578063c6e047cf1461064f578063c87b56dd1461066f57600080fd5b806395d89b41116100f257806395d89b411461055757806396c38b0a1461056c578063996517cf1461059c5780639a008faa146105b2578063a035b1fe146105e657600080fd5b80637a7e3c12146104b45780638456cb59146104d45780638d6cc56d146104e95780638da5cb5b146105095780638faece051461052757600080fd5b80633ccfd60b116101bc5780635c975abb116101805780635c975abb146104275780635f2ec20c1461043f5780636352211e1461045f57806370a082311461047f578063715018a61461049f57600080fd5b80633ccfd60b146103aa5780633f4ba83a146103b257806342842e0e146103c75780634f6ccce7146103e7578063570b3c6a1461040757600080fd5b806318160ddd1161020357806318160ddd1461031557806323b872dd1461032a5780632f745c591461034a57806330b987011461036a5780633b446bc21461038a57600080fd5b806301ffc9a71461024057806306fdde0314610275578063081812fc14610297578063089cdd0c146102cf578063095ea7b3146102f3575b600080fd5b34801561024c57600080fd5b5061026061025b3660046121c7565b610724565b60405190151581526020015b60405180910390f35b34801561028157600080fd5b5061028a610735565b60405161026c9190612234565b3480156102a357600080fd5b506102b76102b2366004612247565b6107c7565b6040516001600160a01b03909116815260200161026c565b3480156102db57600080fd5b506102e560115481565b60405190815260200161026c565b3480156102ff57600080fd5b5061031361030e36600461227c565b6107f0565b005b34801561032157600080fd5b50600a546102e5565b34801561033657600080fd5b506103136103453660046122a6565b6107ff565b34801561035657600080fd5b506102e561036536600461227c565b61088f565b34801561037657600080fd5b5061031361038536600461227c565b6108a2565b34801561039657600080fd5b506102e56103a53660046122e2565b6109fd565b610313610a66565b3480156103be57600080fd5b50610313610b4b565b3480156103d357600080fd5b506103136103e23660046122a6565b610bb1565b3480156103f357600080fd5b506102e5610402366004612247565b610bd1565b34801561041357600080fd5b506103136104223660046122fd565b610c2a565b34801561043357600080fd5b5060075460ff16610260565b34801561044b57600080fd5b5061031361045a3660046122e2565b610c72565b34801561046b57600080fd5b506102b761047a366004612247565b610c9e565b34801561048b57600080fd5b506102e561049a3660046122e2565b610cbb565b3480156104ab57600080fd5b50610313610d03565b3480156104c057600080fd5b506103136104cf36600461227c565b610d15565b3480156104e057600080fd5b50610313610dcc565b3480156104f557600080fd5b50610313610504366004612247565b610e0f565b34801561051557600080fd5b50600c546001600160a01b03166102b7565b34801561053357600080fd5b50610260610542366004612247565b60156020526000908152604090205460ff1681565b34801561056357600080fd5b5061028a610e4f565b34801561057857600080fd5b506102606105873660046122e2565b60146020526000908152604090205460ff1681565b3480156105a857600080fd5b506102e560135481565b3480156105be57600080fd5b506102e57f000000000000000000000000000000000000000000000000000000000000000081565b3480156105f257600080fd5b506102e560105481565b61031361060a36600461227c565b610e5e565b34801561061b57600080fd5b5061031361062a36600461237d565b6111ea565b34801561063b57600080fd5b5061031361064a3660046123ca565b6111f5565b34801561065b57600080fd5b50600e546102b7906001600160a01b031681565b34801561067b57600080fd5b5061028a61068a366004612247565b61120c565b34801561069b57600080fd5b506103136106aa366004612247565b611217565b3480156106bb57600080fd5b506103136106ca366004612247565b61130f565b3480156106db57600080fd5b506102606106ea3660046124a6565b61134f565b3480156106fb57600080fd5b5061028a61137d565b34801561071057600080fd5b5061031361071f3660046122e2565b61140b565b600061072f82611449565b92915050565b606060008054610744906124d9565b80601f0160208091040260200160405190810160405280929190818152602001828054610770906124d9565b80156107bd5780601f10610792576101008083540402835291602001916107bd565b820191906000526020600020905b8154815290600101906020018083116107a057829003601f168201915b5050505050905090565b60006107d28261146e565b506000828152600460205260409020546001600160a01b031661072f565b6107fb8282336114a7565b5050565b6001600160a01b03821661082e57604051633250574960e11b8152600060048201526024015b60405180910390fd5b600061083b8383336114b4565b9050836001600160a01b0316816001600160a01b031614610889576040516364283d7b60e01b81526001600160a01b0380861660048301526024820184905282166044820152606401610825565b50505050565b600061089b83836114c9565b9392505050565b601154600d54604051632fd514cd60e11b8152600481018390523360248201526001600160a01b0390911690635faa299a90604401602060405180830381865afa1580156108f4573d6000803e3d6000fd5b505050506040513d601f19601f820116820180604052508101906109189190612513565b151560000361094757601154604051636af785e360e11b81526004810191909152336024820152604401610825565b828280610953836109fd565b101561097d5760405163352a3b5f60e21b81526001600160a01b0383166004820152602401610825565b60008061098987610cbb565b905060005b8181116109f357868310156109e15760006109a9898361088f565b60008181526015602052604081205491925060ff909116151590036109df576109d181611217565b836109db81612546565b9450505b505b806109eb81612546565b91505061098e565b5050505050505050565b60008060005b610a0c84610cbb565b811015610a5f576000610a1f858361088f565b60008181526015602052604081205491925060ff90911615159003610a4c5782610a4881612546565b9350505b5080610a5781612546565b915050610a03565b5092915050565b610a6e61152e565b4780610abc5760405162461bcd60e51b815260206004820152601960248201527f4e6f206574686572206c65667420746f207769746864726177000000000000006044820152606401610825565b604051600090339083908381818185875af1925050503d8060008114610afe576040519150601f19603f3d011682016040523d82523d6000602084013e610b03565b606091505b50509050806107fb5760405162461bcd60e51b81526020600482015260146024820152732330b4b632b2103a379039b2b7321022ba3432b960611b6044820152606401610825565b600c546001600160a01b03163314801590610b7b57503360009081526014602052604090205460ff161515600114155b15610ba757335b60405163118cdaa760e01b81526001600160a01b039091166004820152602401610825565b610baf611546565b565b610bcc838383604051806020016040528060008152506111f5565b505050565b6000610bdc600a5490565b8210610c055760405163295f44f760e21b81526000600482015260248101839052604401610825565b600a8281548110610c1857610c1861255f565b90600052602060002001549050919050565b600c546001600160a01b03163314801590610c5a57503360009081526014602052604090205460ff161515600114155b15610c655733610b82565b6012610bcc8284836125c3565b610c7a61152e565b6001600160a01b03166000908152601460205260409020805460ff19166001179055565b6000818152600260205260408120546001600160a01b031661072f565b60006001600160a01b038216610ce7576040516322718ad960e21b815260006004820152602401610825565b506001600160a01b031660009081526003602052604090205490565b610d0b61152e565b610baf6000611598565b338180610d21836109fd565b1015610d4b5760405163352a3b5f60e21b81526001600160a01b0383166004820152602401610825565b600080610d5733610cbb565b905060005b818111610dc35785831015610db1576000610d77338361088f565b60008181526015602052604081205491925060ff90911615159003610daf57610da13389836107ff565b83610dab81612546565b9450505b505b80610dbb81612546565b915050610d5c565b50505050505050565b600c546001600160a01b03163314801590610dfc57503360009081526014602052604090205460ff161515600114155b15610e075733610b82565b610baf6115ea565b600c546001600160a01b03163314801590610e3f57503360009081526014602052604090205460ff161515600114155b15610e4a5733610b82565b601055565b606060018054610744906124d9565b600e54601054604051638542bdff60e01b81526004810191909152349183916000916001600160a01b031690638542bdff90602401602060405180830381865afa158015610eb0573d6000803e3d6000fd5b505050506040513d601f19601f82011682018060405250810190610ed49190612683565b9050610ee0828261269c565b831015610f0e576010546040516324299e4f60e21b8152610825918591600401918252602082015260400190565b610f16611627565b601154600d54604051636e59b1ad60e01b81526004810183905286916001600160a01b031690636e59b1ad90602401602060405180830381865afa158015610f62573d6000803e3d6000fd5b505050506040513d601f19601f82011682018060405250810190610f869190612683565b600d546040516302c48a9b60e41b81526004810185905283916001600160a01b031690632c48a9b090602401602060405180830381865afa158015610fcf573d6000803e3d6000fd5b505050506040513d601f19601f82011682018060405250810190610ff39190612683565b610ffd91906126b3565b111561101f576040516349a94ec760e01b815260048101839052602401610825565b8560135481600f5461103191906126b3565b118015611042575060001960135414155b1561106657600f5460405163059949f560e51b815260040161082591815260200190565b60005b878110156111df57600f80546000918261108283612546565b909155506000818152601560205260408120805460ff191690559091507f0000000000000000000000000000000000000000000000000000000000000000900361112e57600d54601154604051635f1291c360e11b81526001600160a01b039092169163be252386916110fb9160040190815260200190565b600060405180830381600087803b15801561111557600080fd5b505af1158015611129573d6000803e3d6000fd5b505050505b6111388a8261164b565b6111cc8160128054611149906124d9565b80601f0160208091040260200160405190810160405280929190818152602001828054611175906124d9565b80156111c25780601f10611197576101008083540402835291602001916111c2565b820191906000526020600020905b8154815290600101906020018083116111a557829003601f168201915b5050505050611665565b50806111d781612546565b915050611069565b505050505050505050565b6107fb3383836116b5565b6112008484846107ff565b61088984848484611754565b606061072f8261187d565b601154600d54604051632fd514cd60e11b8152600481018390523360248201526001600160a01b0390911690635faa299a90604401602060405180830381865afa158015611269573d6000803e3d6000fd5b505050506040513d601f19601f8201168201806040525081019061128d9190612513565b15156000036112bc57601154604051636af785e360e11b81526004810191909152336024820152604401610825565b8160006112c882610c9e565b6001600160a01b0316036112f25760405163995996d560e01b815260048101829052602401610825565b50506000908152601560205260409020805460ff19166001179055565b600c546001600160a01b0316331480159061133f57503360009081526014602052604090205460ff161515600114155b1561134a5733610b82565b601355565b6001600160a01b03918216600090815260056020908152604080832093909416825291909152205460ff1690565b6012805461138a906124d9565b80601f01602080910402602001604051908101604052809291908181526020018280546113b6906124d9565b80156114035780601f106113d857610100808354040283529160200191611403565b820191906000526020600020905b8154815290600101906020018083116113e657829003601f168201915b505050505081565b61141361152e565b6001600160a01b03811661143d57604051631e4fbdf760e01b815260006004820152602401610825565b61144681611598565b50565b60006001600160e01b0319821663780e9d6360e01b148061072f575061072f82611986565b6000818152600260205260408120546001600160a01b03168061072f57604051637e27328960e01b815260048101849052602401610825565b610bcc83838360016119ab565b60006114c1848484611ab1565b949350505050565b60006114d483610cbb565b82106115055760405163295f44f760e21b81526001600160a01b038416600482015260248101839052604401610825565b506001600160a01b03919091166000908152600860209081526040808320938352929052205490565b600c546001600160a01b03163314610baf5733610b82565b61154e611b7e565b6007805460ff191690557f5db9ee0a495bf2e6ff9c91a7834c1ba4fdd244a5e8aa4e537bd38aeae4b073aa335b6040516001600160a01b03909116815260200160405180910390a1565b600c80546001600160a01b038381166001600160a01b0319831681179093556040519116919082907f8be0079c531659141344cd1fd0a4f28419497f9722a3daafe3b4186f6b6457e090600090a35050565b6115f2611627565b6007805460ff191660011790557f62e78cea01bee320cd4e420270b5ea74000d11b0c9f74754ebdbfc544b05a25861157b3390565b60075460ff1615610baf5760405163d93c066560e01b815260040160405180910390fd5b6107fb828260405180602001604052806000815250611ba1565b600082815260066020526040902061167d82826126c6565b506040518281527ff8e1a15aba9398e019f0b49df1a4fde98ee17ae345cb5f6b5e2c27f5033e8ce79060200160405180910390a15050565b6001600160a01b0382166116e757604051630b61174360e31b81526001600160a01b0383166004820152602401610825565b6001600160a01b03838116600081815260056020908152604080832094871680845294825291829020805460ff191686151590811790915591519182527f17307eab39ab6107e8899845ad3d59bd9653f200f220920489ca2b5937696c31910160405180910390a3505050565b6001600160a01b0383163b1561088957604051630a85bd0160e11b81526001600160a01b0384169063150b7a0290611796903390889087908790600401612786565b6020604051808303816000875af19250505080156117d1575060408051601f3d908101601f191682019092526117ce918101906127c3565b60015b61183a573d8080156117ff576040519150601f19603f3d011682016040523d82523d6000602084013e611804565b606091505b50805160000361183257604051633250574960e11b81526001600160a01b0385166004820152602401610825565b805181602001fd5b6001600160e01b03198116630a85bd0160e11b1461187657604051633250574960e11b81526001600160a01b0385166004820152602401610825565b5050505050565b60606118888261146e565b50600082815260066020526040812080546118a2906124d9565b80601f01602080910402602001604051908101604052809291908181526020018280546118ce906124d9565b801561191b5780601f106118f05761010080835404028352916020019161191b565b820191906000526020600020905b8154815290600101906020018083116118fe57829003601f168201915b50505050509050600061193960408051602081019091526000815290565b9050805160000361194b575092915050565b81511561197d5780826040516020016119659291906127e0565b60405160208183030381529060405292505050919050565b6114c184611bb8565b60006001600160e01b03198216632483248360e11b148061072f575061072f82611c2c565b80806119bf57506001600160a01b03821615155b15611a815760006119cf8461146e565b90506001600160a01b038316158015906119fb5750826001600160a01b0316816001600160a01b031614155b8015611a0e5750611a0c818461134f565b155b15611a375760405163a9fbf51f60e01b81526001600160a01b0384166004820152602401610825565b8115611a7f5783856001600160a01b0316826001600160a01b03167f8c5be1e5ebec7d5bd14f71427d1e84f3dd0314c0f7b2291e5b200ac8c7c3b92560405160405180910390a45b505b5050600090815260046020526040902080546001600160a01b0319166001600160a01b0392909216919091179055565b600080611abf858585611c7c565b90506001600160a01b038116611b1c57611b1784600a80546000838152600b60205260408120829055600182018355919091527fc65a7bb8d6351c1cf70c95a316cc6a92839c986682d98bc35f958f4883f9d2a80155565b611b3f565b846001600160a01b0316816001600160a01b031614611b3f57611b3f8185611c91565b6001600160a01b038516611b5b57611b5684611d22565b6114c1565b846001600160a01b0316816001600160a01b0316146114c1576114c18585611dd1565b60075460ff16610baf57604051638dfc202b60e01b815260040160405180910390fd5b611bab8383611e21565b610bcc6000848484611754565b6060611bc38261146e565b506000611bdb60408051602081019091526000815290565b90506000815111611bfb576040518060200160405280600081525061089b565b80611c0584611e86565b604051602001611c169291906127e0565b6040516020818303038152906040529392505050565b60006001600160e01b031982166380ac58cd60e01b1480611c5d57506001600160e01b03198216635b5e139f60e01b145b8061072f57506301ffc9a760e01b6001600160e01b031983161461072f565b6000611c86611627565b6114c1848484611f19565b6000611c9c83610cbb565b600083815260096020526040902054909150808214611cef576001600160a01b03841660009081526008602090815260408083208584528252808320548484528184208190558352600990915290208190555b5060009182526009602090815260408084208490556001600160a01b039094168352600881528383209183525290812055565b600a54600090611d349060019061280f565b6000838152600b6020526040812054600a8054939450909284908110611d5c57611d5c61255f565b9060005260206000200154905080600a8381548110611d7d57611d7d61255f565b6000918252602080832090910192909255828152600b9091526040808220849055858252812055600a805480611db557611db5612822565b6001900381819060005260206000200160009055905550505050565b60006001611dde84610cbb565b611de8919061280f565b6001600160a01b039093166000908152600860209081526040808320868452825280832085905593825260099052919091209190915550565b6001600160a01b038216611e4b57604051633250574960e11b815260006004820152602401610825565b6000611e59838360006114b4565b90506001600160a01b03811615610bcc576040516339e3563760e11b815260006004820152602401610825565b60606000611e9383612012565b600101905060008167ffffffffffffffff811115611eb357611eb36123b4565b6040519080825280601f01601f191660200182016040528015611edd576020820181803683370190505b5090508181016020015b600019016f181899199a1a9b1b9c1cb0b131b232b360811b600a86061a8153600a8504945084611ee757509392505050565b6000828152600260205260408120546001600160a01b0390811690831615611f4657611f468184866120ea565b6001600160a01b03811615611f8457611f636000856000806119ab565b6001600160a01b038116600090815260036020526040902080546000190190555b6001600160a01b03851615611fb3576001600160a01b0385166000908152600360205260409020805460010190555b60008481526002602052604080822080546001600160a01b0319166001600160a01b0389811691821790925591518793918516917fddf252ad1be2c89b69c2b068fc378daa952ba7f163c4a11628f55a4df523b3ef91a4949350505050565b60008072184f03e93ff9f4daa797ed6e38ed64bf6a1f0160401b83106120515772184f03e93ff9f4daa797ed6e38ed64bf6a1f0160401b830492506040015b6d04ee2d6d415b85acef8100000000831061207d576d04ee2d6d415b85acef8100000000830492506020015b662386f26fc10000831061209b57662386f26fc10000830492506010015b6305f5e10083106120b3576305f5e100830492506008015b61271083106120c757612710830492506004015b606483106120d9576064830492506002015b600a831061072f5760010192915050565b6120f583838361214e565b610bcc576001600160a01b03831661212357604051637e27328960e01b815260048101829052602401610825565b60405163177e802f60e01b81526001600160a01b038316600482015260248101829052604401610825565b60006001600160a01b038316158015906114c15750826001600160a01b0316846001600160a01b031614806121885750612188848461134f565b806114c15750506000908152600460205260409020546001600160a01b03908116911614919050565b6001600160e01b03198116811461144657600080fd5b6000602082840312156121d957600080fd5b813561089b816121b1565b60005b838110156121ff5781810151838201526020016121e7565b50506000910152565b600081518084526122208160208601602086016121e4565b601f01601f19169290920160200192915050565b60208152600061089b6020830184612208565b60006020828403121561225957600080fd5b5035919050565b80356001600160a01b038116811461227757600080fd5b919050565b6000806040838503121561228f57600080fd5b61229883612260565b946020939093013593505050565b6000806000606084860312156122bb57600080fd5b6122c484612260565b92506122d260208501612260565b9150604084013590509250925092565b6000602082840312156122f457600080fd5b61089b82612260565b6000806020838503121561231057600080fd5b823567ffffffffffffffff8082111561232857600080fd5b818501915085601f83011261233c57600080fd5b81358181111561234b57600080fd5b86602082850101111561235d57600080fd5b60209290920196919550909350505050565b801515811461144657600080fd5b6000806040838503121561239057600080fd5b61239983612260565b915060208301356123a98161236f565b809150509250929050565b634e487b7160e01b600052604160045260246000fd5b600080600080608085870312156123e057600080fd5b6123e985612260565b93506123f760208601612260565b925060408501359150606085013567ffffffffffffffff8082111561241b57600080fd5b818701915087601f83011261242f57600080fd5b813581811115612441576124416123b4565b604051601f8201601f19908116603f01168101908382118183101715612469576124696123b4565b816040528281528a602084870101111561248257600080fd5b82602086016020830137600060208483010152809550505050505092959194509250565b600080604083850312156124b957600080fd5b6124c283612260565b91506124d060208401612260565b90509250929050565b600181811c908216806124ed57607f821691505b60208210810361250d57634e487b7160e01b600052602260045260246000fd5b50919050565b60006020828403121561252557600080fd5b815161089b8161236f565b634e487b7160e01b600052601160045260246000fd5b60006001820161255857612558612530565b5060010190565b634e487b7160e01b600052603260045260246000fd5b601f821115610bcc57600081815260208120601f850160051c8101602086101561259c5750805b601f850160051c820191505b818110156125bb578281556001016125a8565b505050505050565b67ffffffffffffffff8311156125db576125db6123b4565b6125ef836125e983546124d9565b83612575565b6000601f841160018114612623576000851561260b5750838201355b600019600387901b1c1916600186901b178355611876565b600083815260209020601f19861690835b828110156126545786850135825560209485019460019092019101612634565b50868210156126715760001960f88860031b161c19848701351681555b505060018560011b0183555050505050565b60006020828403121561269557600080fd5b5051919050565b808202811582820484141761072f5761072f612530565b8082018082111561072f5761072f612530565b815167ffffffffffffffff8111156126e0576126e06123b4565b6126f4816126ee84546124d9565b84612575565b602080601f83116001811461272957600084156127115750858301515b600019600386901b1c1916600185901b1785556125bb565b600085815260208120601f198616915b8281101561275857888601518255948401946001909101908401612739565b50858210156127765787850151600019600388901b60f8161c191681555b5050505050600190811b01905550565b6001600160a01b03858116825284166020820152604081018390526080606082018190526000906127b990830184612208565b9695505050505050565b6000602082840312156127d557600080fd5b815161089b816121b1565b600083516127f28184602088016121e4565b8351908301906128068183602088016121e4565b01949350505050565b8181038181111561072f5761072f612530565b634e487b7160e01b600052603160045260246000fdfea2646970667358221220f8d6aed68335bc8b11841b2fffc91f5bee53e5dd9948a8e1e7b9126f1e11e07264736f6c63430008140033",
  "linkReferences": {},
  "deployedLinkReferences": {}
}