{
  "_format": "hh-sol-artifact-1",
  "contractName": "PriceAutomatedUpdate",
  "sourceName": "contracts/PriceAutomatedUpdate.sol",
  "abi": [
    {
      "inputs": [
        {
          "internalType": "address",
          "name": "_extraContract",
          "type": "address"
        },
        {
          "internalType": "contract LinkTokenInterface",
          "name": "link",
          "type": "address"
        },
        {
          "internalType": "contract AutomationRegistrarInterface",
          "name": "registrar",
          "type": "address"
        }
      ],
      "stateMutability": "nonpayable",
      "type": "constructor"
    },
    {
      "inputs": [],
      "name": "_upkeepId",
      "outputs": [
        {
          "internalType": "uint256",
          "name": "",
          "type": "uint256"
        }
      ],
      "stateMutability": "view",
      "type": "function"
    },
    {
      "inputs": [],
      "name": "admin",
      "outputs": [
        {
          "internalType": "address",
          "name": "",
          "type": "address"
        }
      ],
      "stateMutability": "view",
      "type": "function"
    },
    {
      "inputs": [
        {
          "internalType": "bytes",
          "name": "",
          "type": "bytes"
        }
      ],
      "name": "checkUpkeep",
      "outputs": [
        {
          "internalType": "bool",
          "name": "upkeepNeeded",
          "type": "bool"
        },
        {
          "internalType": "bytes",
          "name": "data",
          "type": "bytes"
        }
      ],
      "stateMutability": "view",
      "type": "function"
    },
    {
      "inputs": [],
      "name": "extraContract",
      "outputs": [
        {
          "internalType": "contract ExtraNft",
          "name": "",
          "type": "address"
        }
      ],
      "stateMutability": "view",
      "type": "function"
    },
    {
      "inputs": [],
      "name": "getContractBalance",
      "outputs": [
        {
          "internalType": "uint256",
          "name": "",
          "type": "uint256"
        }
      ],
      "stateMutability": "view",
      "type": "function"
    },
    {
      "inputs": [],
      "name": "i_link",
      "outputs": [
        {
          "internalType": "contract LinkTokenInterface",
          "name": "",
          "type": "address"
        }
      ],
      "stateMutability": "view",
      "type": "function"
    },
    {
      "inputs": [],
      "name": "i_registrar",
      "outputs": [
        {
          "internalType": "contract AutomationRegistrarInterface",
          "name": "",
          "type": "address"
        }
      ],
      "stateMutability": "view",
      "type": "function"
    },
    {
      "inputs": [],
      "name": "newPrice",
      "outputs": [
        {
          "internalType": "uint256",
          "name": "",
          "type": "uint256"
        }
      ],
      "stateMutability": "view",
      "type": "function"
    },
    {
      "inputs": [
        {
          "internalType": "bytes",
          "name": "",
          "type": "bytes"
        }
      ],
      "name": "performUpkeep",
      "outputs": [],
      "stateMutability": "nonpayable",
      "type": "function"
    },
    {
      "inputs": [
        {
          "internalType": "string",
          "name": "name",
          "type": "string"
        },
        {
          "internalType": "uint32",
          "name": "gasLimit",
          "type": "uint32"
        },
        {
          "internalType": "uint96",
          "name": "amount",
          "type": "uint96"
        }
      ],
      "name": "registerUpkeep",
      "outputs": [
        {
          "internalType": "uint256",
          "name": "",
          "type": "uint256"
        }
      ],
      "stateMutability": "nonpayable",
      "type": "function"
    },
    {
      "inputs": [
        {
          "internalType": "uint256",
          "name": "_newPrice",
          "type": "uint256"
        },
        {
          "internalType": "uint256",
          "name": "_time",
          "type": "uint256"
        }
      ],
      "name": "scheduleUpdate",
      "outputs": [],
      "stateMutability": "nonpayable",
      "type": "function"
    },
    {
      "inputs": [],
      "name": "scheduledTime",
      "outputs": [
        {
          "internalType": "uint256",
          "name": "",
          "type": "uint256"
        }
      ],
      "stateMutability": "view",
      "type": "function"
    }
  ],
  "bytecode": "0x60c060405234801561001057600080fd5b50604051610aa9380380610aa983398101604081905261002f916100f0565b600180546001600160a01b0319166001600160a01b03851690811790915560408051638da5cb5b60e01b81529051638da5cb5b916004808201926020929091908290030181865afa158015610088573d6000803e3d6000fd5b505050506040513d601f19601f820116820180604052508101906100ac919061013d565b600080546001600160a01b0319166001600160a01b039283161790559182166080521660a05250610161565b6001600160a01b03811681146100ed57600080fd5b50565b60008060006060848603121561010557600080fd5b8351610110816100d8565b6020850151909350610121816100d8565b6040850151909250610132816100d8565b809150509250925092565b60006020828403121561014f57600080fd5b815161015a816100d8565b9392505050565b60805160a0516109086101a16000396000818160da015281816104ae015261056801526000818161018f0152818161033d01526104e101526109086000f3fe608060405234801561001057600080fd5b50600436106100b45760003560e01c80636f9fb98a116100715780636f9fb98a1461016657806371f6d6541461016e57806372169c07146101815780637d253aff1461018a578063ce66440b146101b1578063f851a440146101c457600080fd5b806314153f17146100b9578063442b1278146100d55780634585e33b1461011457806351df9db9146101295780635d132052146101325780636e04ff0d14610145575b600080fd5b6100c260045481565b6040519081526020015b60405180910390f35b6100fc7f000000000000000000000000000000000000000000000000000000000000000081565b6040516001600160a01b0390911681526020016100cc565b610127610122366004610631565b6101d7565b005b6100c260035481565b610127610140366004610673565b61029e565b610158610153366004610631565b6102f2565b6040516100cc9291906106db565b6100c2610325565b6100c261017c3660046106fe565b6103b5565b6100c260025481565b6100fc7f000000000000000000000000000000000000000000000000000000000000000081565b6001546100fc906001600160a01b031681565b6000546100fc906001600160a01b031681565b60025442101561022e5760405162461bcd60e51b815260206004820152601960248201527f546f6f206561726c7920746f207570646174652070726963650000000000000060448201526064015b60405180910390fd5b600154600354604051638d6cc56d60e01b81526001600160a01b0390921691638d6cc56d916102639160040190815260200190565b600060405180830381600087803b15801561027d57600080fd5b505af1158015610291573d6000803e3d6000fd5b5050600060025550505050565b6000546001600160a01b031633146102e75760405162461bcd60e51b815260206004820152600c60248201526b155b985d5d1a1bdc9a5e995960a21b6044820152606401610225565b600391909155600255565b600060606002544210158015610309575060025415155b91506040518060200160405280600081525090505b9250929050565b6040516370a0823160e01b81523060048201526000907f00000000000000000000000000000000000000000000000000000000000000006001600160a01b0316906370a0823190602401602060405180830381865afa15801561038c573d6000803e3d6000fd5b505050506040513d601f19601f820116820180604052508101906103b0919061077b565b905090565b60008060405180610140016040528087878080601f01602080910402602001604051908101604052809392919081815260200183838082843760009201829052509385525050604080518082018252600280825261060f60f31b602080840182905280880193909352308488015263ffffffff8c16606088015285546001600160a01b03908116608089015260a08801969096528351808501855282815280840182905260c08801528351808501855282815280840182905260e088015283518085018552918252918101919091526101008501526001600160601b038881166101209586015293850151905163095ea7b360e01b81527f00000000000000000000000000000000000000000000000000000000000000008416600482015293166024840152509192507f00000000000000000000000000000000000000000000000000000000000000009091169063095ea7b3906044016020604051808303816000875af115801561052c573d6000803e3d6000fd5b505050506040513d601f19601f820116820180604052508101906105509190610794565b50604051633f678e1160e01b81526001600160a01b037f00000000000000000000000000000000000000000000000000000000000000001690633f678e119061059d9084906004016107bd565b6020604051808303816000875af11580156105bc573d6000803e3d6000fd5b505050506040513d601f19601f820116820180604052508101906105e0919061077b565b60048190559695505050505050565b60008083601f84011261060157600080fd5b50813567ffffffffffffffff81111561061957600080fd5b60208301915083602082850101111561031e57600080fd5b6000806020838503121561064457600080fd5b823567ffffffffffffffff81111561065b57600080fd5b610667858286016105ef565b90969095509350505050565b6000806040838503121561068657600080fd5b50508035926020909101359150565b6000815180845260005b818110156106bb5760208185018101518683018201520161069f565b506000602082860101526020601f19601f83011685010191505092915050565b82151581526040602082015260006106f66040830184610695565b949350505050565b6000806000806060858703121561071457600080fd5b843567ffffffffffffffff81111561072b57600080fd5b610737878288016105ef565b909550935050602085013563ffffffff8116811461075457600080fd5b915060408501356001600160601b038116811461077057600080fd5b939692955090935050565b60006020828403121561078d57600080fd5b5051919050565b6000602082840312156107a657600080fd5b815180151581146107b657600080fd5b9392505050565b60208152600082516101408060208501526107dc610160850183610695565b91506020850151601f19808685030160408701526107fa8483610695565b93506040870151915061081860608701836001600160a01b03169052565b606087015163ffffffff81166080880152915060808701516001600160a01b03811660a0880152915060a087015160ff811660c0880152915060c08701519150808685030160e087015261086c8483610695565b935060e0870151915061010081878603018188015261088b8584610695565b9450808801519250506101208187860301818801526108aa8584610695565b945080880151925050506108c8828601826001600160601b03169052565b509094935050505056fea264697066735822122096dc4c30c5287b278620d7778ff9d2ceea132f66e6e05e1f59fc2fefcd154a3964736f6c63430008140033",
  "linkReferences": {},
  "deployedLinkReferences": {}
}