{
  "_format": "hh-sol-artifact-1",
  "contractName": "PriceFeedHandler",
  "sourceName": "contracts/PriceFeedHandler.sol",
  "abi": [
    {
      "inputs": [
        {
          "internalType": "address",
          "name": "_priceFeedAddress",
          "type": "address"
        }
      ],
      "stateMutability": "nonpayable",
      "type": "constructor"
    },
    {
      "inputs": [
        {
          "internalType": "uint256",
          "name": "usdAmount",
          "type": "uint256"
        }
      ],
      "name": "calculateEthAmount",
      "outputs": [
        {
          "internalType": "uint256",
          "name": "",
          "type": "uint256"
        }
      ],
      "stateMutability": "view",
      "type": "function"
    },
    {
      "inputs": [],
      "name": "getLatestPrice",
      "outputs": [
        {
          "internalType": "uint256",
          "name": "",
          "type": "uint256"
        }
      ],
      "stateMutability": "view",
      "type": "function"
    }
  ],
  "bytecode": "0x608060405234801561001057600080fd5b5060405161030038038061030083398101604081905261002f91610054565b600080546001600160a01b0319166001600160a01b0392909216919091179055610084565b60006020828403121561006657600080fd5b81516001600160a01b038116811461007d57600080fd5b9392505050565b61026d806100936000396000f3fe608060405234801561001057600080fd5b50600436106100365760003560e01c80638542bdff1461003b5780638e15f47314610060575b600080fd5b61004e610049366004610167565b610068565b60405190815260200160405180910390f35b61004e6100a5565b6000806100736100a5565b90508061008884670de0b6b3a7640000610180565b61009291906101ab565b61009e90612710610180565b9392505050565b6000805460408051633fabe5a360e21b8152905183926001600160a01b03169163feaf968c9160048083019260a09291908290030181865afa1580156100ef573d6000803e3d6000fd5b505050506040513d601f19601f8201168201806040525081019061011391906101e7565b505050915050600081136101625760405162461bcd60e51b8152602060048201526012602482015271496e76616c6964207072696365206461746160701b604482015260640160405180910390fd5b919050565b60006020828403121561017957600080fd5b5035919050565b80820281158282048414176101a557634e487b7160e01b600052601160045260246000fd5b92915050565b6000826101c857634e487b7160e01b600052601260045260246000fd5b500490565b805169ffffffffffffffffffff8116811461016257600080fd5b600080600080600060a086880312156101ff57600080fd5b610208866101cd565b945060208601519350604086015192506060860151915061022b608087016101cd565b9050929550929590935056fea2646970667358221220a60e05674cb8823317a63a8b72bb7debbc9371b85a4e0ec4fa02d431621e2a2764736f6c63430008140033",
  "linkReferences": {},
  "deployedLinkReferences": {}
}