{
  "_format": "hh-sol-artifact-1",
  "contractName": "PauseAutomatedUpdate",
  "sourceName": "contracts/PauseAutomatedUpdate.sol",
  "abi": [
    {
      "inputs": [
        {
          "internalType": "address",
          "name": "_extraContract",
          "type": "address"
        },
        {
          "internalType": "contract LinkTokenInterface",
          "name": "link",
          "type": "address"
        },
        {
          "internalType": "contract AutomationRegistrarInterface",
          "name": "registrar",
          "type": "address"
        }
      ],
      "stateMutability": "nonpayable",
      "type": "constructor"
    },
    {
      "inputs": [],
      "name": "_upkeepId",
      "outputs": [
        {
          "internalType": "uint256",
          "name": "",
          "type": "uint256"
        }
      ],
      "stateMutability": "view",
      "type": "function"
    },
    {
      "inputs": [],
      "name": "admin",
      "outputs": [
        {
          "internalType": "address",
          "name": "",
          "type": "address"
        }
      ],
      "stateMutability": "view",
      "type": "function"
    },
    {
      "inputs": [
        {
          "internalType": "bytes",
          "name": "",
          "type": "bytes"
        }
      ],
      "name": "checkUpkeep",
      "outputs": [
        {
          "internalType": "bool",
          "name": "upkeepNeeded",
          "type": "bool"
        },
        {
          "internalType": "bytes",
          "name": "data",
          "type": "bytes"
        }
      ],
      "stateMutability": "view",
      "type": "function"
    },
    {
      "inputs": [],
      "name": "extraContract",
      "outputs": [
        {
          "internalType": "contract ExtraNft",
          "name": "",
          "type": "address"
        }
      ],
      "stateMutability": "view",
      "type": "function"
    },
    {
      "inputs": [],
      "name": "getContractBalance",
      "outputs": [
        {
          "internalType": "uint256",
          "name": "",
          "type": "uint256"
        }
      ],
      "stateMutability": "view",
      "type": "function"
    },
    {
      "inputs": [],
      "name": "i_link",
      "outputs": [
        {
          "internalType": "contract LinkTokenInterface",
          "name": "",
          "type": "address"
        }
      ],
      "stateMutability": "view",
      "type": "function"
    },
    {
      "inputs": [],
      "name": "i_registrar",
      "outputs": [
        {
          "internalType": "contract AutomationRegistrarInterface",
          "name": "",
          "type": "address"
        }
      ],
      "stateMutability": "view",
      "type": "function"
    },
    {
      "inputs": [
        {
          "internalType": "bytes",
          "name": "",
          "type": "bytes"
        }
      ],
      "name": "performUpkeep",
      "outputs": [],
      "stateMutability": "nonpayable",
      "type": "function"
    },
    {
      "inputs": [
        {
          "internalType": "string",
          "name": "name",
          "type": "string"
        },
        {
          "internalType": "uint32",
          "name": "gasLimit",
          "type": "uint32"
        },
        {
          "internalType": "uint96",
          "name": "amount",
          "type": "uint96"
        }
      ],
      "name": "registerUpkeep",
      "outputs": [
        {
          "internalType": "uint256",
          "name": "",
          "type": "uint256"
        }
      ],
      "stateMutability": "nonpayable",
      "type": "function"
    },
    {
      "inputs": [
        {
          "internalType": "uint256",
          "name": "_time",
          "type": "uint256"
        }
      ],
      "name": "scheduleUpdate",
      "outputs": [],
      "stateMutability": "nonpayable",
      "type": "function"
    },
    {
      "inputs": [],
      "name": "scheduledTime",
      "outputs": [
        {
          "internalType": "uint256",
          "name": "",
          "type": "uint256"
        }
      ],
      "stateMutability": "view",
      "type": "function"
    }
  ],
  "bytecode": "0x60c060405234801561001057600080fd5b50604051610a7c380380610a7c83398101604081905261002f916100f0565b600180546001600160a01b0319166001600160a01b03851690811790915560408051638da5cb5b60e01b81529051638da5cb5b916004808201926020929091908290030181865afa158015610088573d6000803e3d6000fd5b505050506040513d601f19601f820116820180604052508101906100ac919061013d565b600080546001600160a01b0319166001600160a01b039283161790559182166080521660a05250610161565b6001600160a01b03811681146100ed57600080fd5b50565b60008060006060848603121561010557600080fd5b8351610110816100d8565b6020850151909350610121816100d8565b6040850151909250610132816100d8565b809150509250925092565b60006020828403121561014f57600080fd5b815161015a816100d8565b9392505050565b60805160a0516108db6101a16000396000818160cf0152818161043c01526104f6015260008181610168015281816102cb015261046f01526108db6000f3fe608060405234801561001057600080fd5b50600436106100a95760003560e01c806371f6d6541161007157806371f6d6541461014757806372169c071461015a5780637d253aff14610163578063c8dc12991461018a578063ce66440b1461019d578063f851a440146101b057600080fd5b806314153f17146100ae578063442b1278146100ca5780634585e33b146101095780636e04ff0d1461011e5780636f9fb98a1461013f575b600080fd5b6100b760035481565b6040519081526020015b60405180910390f35b6100f17f000000000000000000000000000000000000000000000000000000000000000081565b6040516001600160a01b0390911681526020016100c1565b61011c61011736600461060d565b6101c3565b005b61013161012c36600461060d565b610280565b6040516100c1929190610695565b6100b76102b3565b6100b76101553660046106b8565b610343565b6100b760025481565b6100f17f000000000000000000000000000000000000000000000000000000000000000081565b61011c610198366004610735565b61057d565b6001546100f1906001600160a01b031681565b6000546100f1906001600160a01b031681565b60025442101561020f5760405162461bcd60e51b8152602060048201526012602482015271546f6f206561726c7920746f20706175736560701b60448201526064015b60405180910390fd5b600160009054906101000a90046001600160a01b03166001600160a01b0316638456cb596040518163ffffffff1660e01b8152600401600060405180830381600087803b15801561025f57600080fd5b505af1158015610273573d6000803e3d6000fd5b5050600060025550505050565b600060606002544210158015610297575060025415155b91506040518060200160405280600081525090505b9250929050565b6040516370a0823160e01b81523060048201526000907f00000000000000000000000000000000000000000000000000000000000000006001600160a01b0316906370a0823190602401602060405180830381865afa15801561031a573d6000803e3d6000fd5b505050506040513d601f19601f8201168201806040525081019061033e919061074e565b905090565b60008060405180610140016040528087878080601f01602080910402602001604051908101604052809392919081815260200183838082843760009201829052509385525050604080518082018252600280825261060f60f31b602080840182905280880193909352308488015263ffffffff8c16606088015285546001600160a01b03908116608089015260a08801969096528351808501855282815280840182905260c08801528351808501855282815280840182905260e088015283518085018552918252918101919091526101008501526001600160601b038881166101209586015293850151905163095ea7b360e01b81527f00000000000000000000000000000000000000000000000000000000000000008416600482015293166024840152509192507f00000000000000000000000000000000000000000000000000000000000000009091169063095ea7b3906044016020604051808303816000875af11580156104ba573d6000803e3d6000fd5b505050506040513d601f19601f820116820180604052508101906104de9190610767565b50604051633f678e1160e01b81526001600160a01b037f00000000000000000000000000000000000000000000000000000000000000001690633f678e119061052b908490600401610790565b6020604051808303816000875af115801561054a573d6000803e3d6000fd5b505050506040513d601f19601f8201168201806040525081019061056e919061074e565b60038190559695505050505050565b6000546001600160a01b031633146105c65760405162461bcd60e51b815260206004820152600c60248201526b155b985d5d1a1bdc9a5e995960a21b6044820152606401610206565b600255565b60008083601f8401126105dd57600080fd5b50813567ffffffffffffffff8111156105f557600080fd5b6020830191508360208285010111156102ac57600080fd5b6000806020838503121561062057600080fd5b823567ffffffffffffffff81111561063757600080fd5b610643858286016105cb565b90969095509350505050565b6000815180845260005b8181101561067557602081850181015186830182015201610659565b506000602082860101526020601f19601f83011685010191505092915050565b82151581526040602082015260006106b0604083018461064f565b949350505050565b600080600080606085870312156106ce57600080fd5b843567ffffffffffffffff8111156106e557600080fd5b6106f1878288016105cb565b909550935050602085013563ffffffff8116811461070e57600080fd5b915060408501356001600160601b038116811461072a57600080fd5b939692955090935050565b60006020828403121561074757600080fd5b5035919050565b60006020828403121561076057600080fd5b5051919050565b60006020828403121561077957600080fd5b8151801515811461078957600080fd5b9392505050565b60208152600082516101408060208501526107af61016085018361064f565b91506020850151601f19808685030160408701526107cd848361064f565b9350604087015191506107eb60608701836001600160a01b03169052565b606087015163ffffffff81166080880152915060808701516001600160a01b03811660a0880152915060a087015160ff811660c0880152915060c08701519150808685030160e087015261083f848361064f565b935060e0870151915061010081878603018188015261085e858461064f565b94508088015192505061012081878603018188015261087d858461064f565b9450808801519250505061089b828601826001600160601b03169052565b509094935050505056fea26469706673582212204494a0761dfb2a7ade658061d2d7c2324cb5aafee62c253acc61664f02049d7e64736f6c63430008140033",
  "linkReferences": {},
  "deployedLinkReferences": {}
}