{
  "_format": "hh-sol-artifact-1",
  "contractName": "BundleDiscounts",
  "sourceName": "contracts/BundleDiscounts.sol",
  "abi": [
    {
      "inputs": [
        {
          "internalType": "address",
          "name": "_eventCreationAddress",
          "type": "address"
        },
        {
          "internalType": "address",
          "name": "_priceFeedHandlerAddress",
          "type": "address"
        },
        {
          "internalType": "uint256",
          "name": "_eventId",
          "type": "uint256"
        },
        {
          "internalType": "string",
          "name": "_name",
          "type": "string"
        },
        {
          "internalType": "uint256",
          "name": "_price",
          "type": "uint256"
        }
      ],
      "stateMutability": "nonpayable",
      "type": "constructor"
    },
    {
      "inputs": [],
      "name": "NotActivated",
      "type": "error"
    },
    {
      "inputs": [
        {
          "internalType": "uint256",
          "name": "moneySent",
          "type": "uint256"
        },
        {
          "internalType": "uint256",
          "name": "price",
          "type": "uint256"
        }
      ],
      "name": "NotEnoughMoneySent",
      "type": "error"
    },
    {
      "inputs": [
        {
          "internalType": "uint256",
          "name": "eventId",
          "type": "uint256"
        }
      ],
      "name": "NotTheAdmin",
      "type": "error"
    },
    {
      "inputs": [],
      "name": "activate",
      "outputs": [],
      "stateMutability": "nonpayable",
      "type": "function"
    },
    {
      "inputs": [
        {
          "internalType": "address",
          "name": "_extraAddress",
          "type": "address"
        },
        {
          "internalType": "uint256",
          "name": "_amount",
          "type": "uint256"
        }
      ],
      "name": "addExtraToBundle",
      "outputs": [],
      "stateMutability": "nonpayable",
      "type": "function"
    },
    {
      "inputs": [],
      "name": "deactivate",
      "outputs": [],
      "stateMutability": "nonpayable",
      "type": "function"
    },
    {
      "inputs": [],
      "name": "eventId",
      "outputs": [
        {
          "internalType": "uint256",
          "name": "",
          "type": "uint256"
        }
      ],
      "stateMutability": "view",
      "type": "function"
    },
    {
      "inputs": [
        {
          "internalType": "uint256",
          "name": "",
          "type": "uint256"
        }
      ],
      "name": "extras",
      "outputs": [
        {
          "internalType": "address",
          "name": "",
          "type": "address"
        }
      ],
      "stateMutability": "view",
      "type": "function"
    },
    {
      "inputs": [
        {
          "internalType": "address",
          "name": "",
          "type": "address"
        }
      ],
      "name": "extrasWithAmounts",
      "outputs": [
        {
          "internalType": "uint256",
          "name": "",
          "type": "uint256"
        }
      ],
      "stateMutability": "view",
      "type": "function"
    },
    {
      "inputs": [],
      "name": "getExtras",
      "outputs": [
        {
          "internalType": "address[]",
          "name": "",
          "type": "address[]"
        }
      ],
      "stateMutability": "view",
      "type": "function"
    },
    {
      "inputs": [],
      "name": "isActive",
      "outputs": [
        {
          "internalType": "bool",
          "name": "",
          "type": "bool"
        }
      ],
      "stateMutability": "view",
      "type": "function"
    },
    {
      "inputs": [
        {
          "internalType": "address",
          "name": "_to",
          "type": "address"
        }
      ],
      "name": "mintBundle",
      "outputs": [],
      "stateMutability": "payable",
      "type": "function"
    },
    {
      "inputs": [],
      "name": "name",
      "outputs": [
        {
          "internalType": "string",
          "name": "",
          "type": "string"
        }
      ],
      "stateMutability": "view",
      "type": "function"
    },
    {
      "inputs": [],
      "name": "price",
      "outputs": [
        {
          "internalType": "uint256",
          "name": "",
          "type": "uint256"
        }
      ],
      "stateMutability": "view",
      "type": "function"
    },
    {
      "inputs": [],
      "name": "withdraw",
      "outputs": [],
      "stateMutability": "nonpayable",
      "type": "function"
    }
  ],
  "bytecode": "0x60806040523480156200001157600080fd5b5060405162000e4e38038062000e4e8339810160408190526200003491620000c3565b600080546001600160a01b038088166001600160a01b03199283161790925560018054928716929091169190911790556006839055600262000077838262000260565b5060055550506007805460ff19169055506200032c9050565b80516001600160a01b0381168114620000a857600080fd5b919050565b634e487b7160e01b600052604160045260246000fd5b600080600080600060a08688031215620000dc57600080fd5b620000e78662000090565b94506020620000f881880162000090565b6040880151606089015191965094506001600160401b03808211156200011d57600080fd5b818901915089601f8301126200013257600080fd5b815181811115620001475762000147620000ad565b604051601f8201601f19908116603f01168101908382118183101715620001725762000172620000ad565b816040528281528c868487010111156200018b57600080fd5b600093505b82841015620001af578484018601518185018701529285019262000190565b6000868483010152809750505050505050608086015190509295509295909350565b600181811c90821680620001e657607f821691505b6020821081036200020757634e487b7160e01b600052602260045260246000fd5b50919050565b601f8211156200025b57600081815260208120601f850160051c81016020861015620002365750805b601f850160051c820191505b81811015620002575782815560010162000242565b5050505b505050565b81516001600160401b038111156200027c576200027c620000ad565b62000294816200028d8454620001d1565b846200020d565b602080601f831160018114620002cc5760008415620002b35750858301515b600019600386901b1c1916600185901b17855562000257565b600085815260208120601f198616915b82811015620002fd57888601518255948401946001909101908401620002dc565b50858210156200031c5787850151600019600388901b60f8161c191681555b5050505050600190811b01905550565b610b12806200033c6000396000f3fe6080604052600436106100a75760003560e01c806351b42b001161006457806351b42b001461017e5780635468bc2f146101935780636d3a9016146101cb5780637ecfc93e146101eb5780638ee1f07a1461020d578063a035b1fe1461022057600080fd5b806306fdde03146100ac578063089cdd0c146100d75780630f15f4c0146100fb5780631c72ff921461011257806322f3e2d41461013f5780633ccfd60b14610169575b600080fd5b3480156100b857600080fd5b506100c1610236565b6040516100ce9190610913565b60405180910390f35b3480156100e357600080fd5b506100ed60065481565b6040519081526020016100ce565b34801561010757600080fd5b506101106102c4565b005b34801561011e57600080fd5b506100ed61012d366004610979565b60046020526000908152604090205481565b34801561014b57600080fd5b506007546101599060ff1681565b60405190151581526020016100ce565b34801561017557600080fd5b506101106103b7565b34801561018a57600080fd5b506101106104e4565b34801561019f57600080fd5b506101b36101ae36600461099d565b6105ae565b6040516001600160a01b0390911681526020016100ce565b3480156101d757600080fd5b506101106101e63660046109b6565b6105d8565b3480156101f757600080fd5b5061020061071d565b6040516100ce91906109e2565b61011061021b366004610979565b61077f565b34801561022c57600080fd5b506100ed60055481565b6002805461024390610a2f565b80601f016020809104026020016040519081016040528092919081815260200182805461026f90610a2f565b80156102bc5780601f10610291576101008083540402835291602001916102bc565b820191906000526020600020905b81548152906001019060200180831161029f57829003601f168201915b505050505081565b60065460005460405163111fd88b60e01b81526004810183905233916001600160a01b03169063111fd88b90602401602060405180830381865afa158015610310573d6000803e3d6000fd5b505050506040513d601f19601f820116820180604052508101906103349190610a69565b6001600160a01b03161461036357604051632762d31160e01b8152600481018290526024015b60405180910390fd5b60075460ff16156103a75760405162461bcd60e51b815260206004820152600e60248201526d416c72656164792061637469766560901b604482015260640161035a565b506007805460ff19166001179055565b60065460005460405163111fd88b60e01b81526004810183905233916001600160a01b03169063111fd88b90602401602060405180830381865afa158015610403573d6000803e3d6000fd5b505050506040513d601f19601f820116820180604052508101906104279190610a69565b6001600160a01b03161461045157604051632762d31160e01b81526004810182905260240161035a565b604051600090339047908381818185875af1925050503d8060008114610493576040519150601f19603f3d011682016040523d82523d6000602084013e610498565b606091505b50509050806104e05760405162461bcd60e51b81526020600482015260146024820152732330b4b632b2103a379039b2b7321022ba3432b960611b604482015260640161035a565b5050565b60065460005460405163111fd88b60e01b81526004810183905233916001600160a01b03169063111fd88b90602401602060405180830381865afa158015610530573d6000803e3d6000fd5b505050506040513d601f19601f820116820180604052508101906105549190610a69565b6001600160a01b03161461057e57604051632762d31160e01b81526004810182905260240161035a565b60075460ff166105a15760405163037c597f60e01b815260040160405180910390fd5b506007805460ff19169055565b600381815481106105be57600080fd5b6000918252602090912001546001600160a01b0316905081565b60065460005460405163111fd88b60e01b81526004810183905233916001600160a01b03169063111fd88b90602401602060405180830381865afa158015610624573d6000803e3d6000fd5b505050506040513d601f19601f820116820180604052508101906106489190610a69565b6001600160a01b03161461067257604051632762d31160e01b81526004810182905260240161035a565b60075460ff166106955760405163037c597f60e01b815260040160405180910390fd5b6001600160a01b038316600090815260046020526040812054900361070057600380546001810182556000919091527fc2575a0e9e593c00f959f8c92f12db2869c3395a3b0502d05e2516446f71f85b0180546001600160a01b0319166001600160a01b0385161790555b506001600160a01b03909116600090815260046020526040902055565b6060600380548060200260200160405190810160405280929190818152602001828054801561077557602002820191906000526020600020905b81546001600160a01b03168152600190910190602001808311610757575b5050505050905090565b600554600154604051638542bdff60e01b8152600481018390523492916000916001600160a01b0390911690638542bdff90602401602060405180830381865afa1580156107d1573d6000803e3d6000fd5b505050506040513d601f19601f820116820180604052508101906107f59190610a86565b905080831015610822576040516324299e4f60e21b8152600481018490526024810183905260440161035a565b60075460ff166108455760405163037c597f60e01b815260040160405180910390fd5b60005b60035481101561090c5760006003828154811061086757610867610a9f565b60009182526020808320909101546001600160a01b031680835260049182905260409283902054925163b587544b60e01b8152909350839263b587544b926108c6928b9291016001600160a01b03929092168252602082015260400190565b600060405180830381600087803b1580156108e057600080fd5b505af11580156108f4573d6000803e3d6000fd5b5050505050808061090490610ab5565b915050610848565b5050505050565b600060208083528351808285015260005b8181101561094057858101830151858201604001528201610924565b506000604082860101526040601f19601f8301168501019250505092915050565b6001600160a01b038116811461097657600080fd5b50565b60006020828403121561098b57600080fd5b813561099681610961565b9392505050565b6000602082840312156109af57600080fd5b5035919050565b600080604083850312156109c957600080fd5b82356109d481610961565b946020939093013593505050565b6020808252825182820181905260009190848201906040850190845b81811015610a235783516001600160a01b0316835292840192918401916001016109fe565b50909695505050505050565b600181811c90821680610a4357607f821691505b602082108103610a6357634e487b7160e01b600052602260045260246000fd5b50919050565b600060208284031215610a7b57600080fd5b815161099681610961565b600060208284031215610a9857600080fd5b5051919050565b634e487b7160e01b600052603260045260246000fd5b600060018201610ad557634e487b7160e01b600052601160045260246000fd5b506001019056fea2646970667358221220054dd8e91ee1639d18df604ee940347445ba05d6f3fbf303fb136b27afd6f6ab64736f6c63430008140033",
  "linkReferences": {},
  "deployedLinkReferences": {}
}