{
  "_format": "hh-sol-artifact-1",
  "contractName": "Participants",
  "sourceName": "contracts/Participants.sol",
  "abi": [
    {
      "inputs": [
        {
          "internalType": "address",
          "name": "_eventCreationAddress",
          "type": "address"
        }
      ],
      "stateMutability": "nonpayable",
      "type": "constructor"
    },
    {
      "inputs": [
        {
          "internalType": "uint256",
          "name": "eventId",
          "type": "uint256"
        }
      ],
      "name": "NotFromExtraContract",
      "type": "error"
    },
    {
      "inputs": [
        {
          "internalType": "uint256",
          "name": "eventId",
          "type": "uint256"
        },
        {
          "internalType": "address",
          "name": "participant",
          "type": "address"
        },
        {
          "internalType": "address",
          "name": "extraAddress",
          "type": "address"
        }
      ],
      "name": "addParticipantWithTicket",
      "outputs": [],
      "stateMutability": "nonpayable",
      "type": "function"
    },
    {
      "inputs": [
        {
          "internalType": "uint256",
          "name": "eventId",
          "type": "uint256"
        }
      ],
      "name": "getNumberOfParticipants",
      "outputs": [
        {
          "internalType": "uint256",
          "name": "",
          "type": "uint256"
        }
      ],
      "stateMutability": "view",
      "type": "function"
    },
    {
      "inputs": [
        {
          "internalType": "uint256",
          "name": "eventId",
          "type": "uint256"
        }
      ],
      "name": "getParticipants",
      "outputs": [
        {
          "internalType": "address[]",
          "name": "",
          "type": "address[]"
        }
      ],
      "stateMutability": "view",
      "type": "function"
    },
    {
      "inputs": [
        {
          "internalType": "address",
          "name": "participantAddress",
          "type": "address"
        }
      ],
      "name": "getReedemedTicketsOfParticipant",
      "outputs": [
        {
          "internalType": "address[]",
          "name": "",
          "type": "address[]"
        }
      ],
      "stateMutability": "view",
      "type": "function"
    },
    {
      "inputs": [
        {
          "internalType": "uint256",
          "name": "",
          "type": "uint256"
        },
        {
          "internalType": "uint256",
          "name": "",
          "type": "uint256"
        }
      ],
      "name": "participants",
      "outputs": [
        {
          "internalType": "address",
          "name": "",
          "type": "address"
        }
      ],
      "stateMutability": "view",
      "type": "function"
    },
    {
      "inputs": [
        {
          "internalType": "address",
          "name": "",
          "type": "address"
        },
        {
          "internalType": "uint256",
          "name": "",
          "type": "uint256"
        }
      ],
      "name": "participantsTickets",
      "outputs": [
        {
          "internalType": "address",
          "name": "",
          "type": "address"
        }
      ],
      "stateMutability": "view",
      "type": "function"
    }
  ],
  "bytecode": "0x608060405234801561001057600080fd5b5060405161059d38038061059d83398101604081905261002f91610054565b600080546001600160a01b0319166001600160a01b0392909216919091179055610084565b60006020828403121561006657600080fd5b81516001600160a01b038116811461007d57600080fd5b9392505050565b61050a806100936000396000f3fe608060405234801561001057600080fd5b50600436106100625760003560e01c80635d19cea61461006757806364ead1eb1461009757806378db9cd7146100c557806381fb1fb4146100da578063c1e3bd3e146100ed578063e6b584991461010d575b600080fd5b61007a6100753660046103a2565b610120565b6040516001600160a01b0390911681526020015b60405180910390f35b6100b76100a53660046103cc565b60009081526001602052604090205490565b60405190815260200161008e565b6100d86100d33660046103e5565b610158565b005b61007a6100e8366004610421565b61028a565b6101006100fb3660046103cc565b6102a6565b60405161008e9190610443565b61010061011b366004610490565b610312565b6002602052816000526040600020818154811061013c57600080fd5b6000918252602090912001546001600160a01b03169150829050565b60005460405163d6920c8f60e01b81526004810185905233602482015284916001600160a01b03169063d6920c8f90604401602060405180830381865afa1580156101a7573d6000803e3d6000fd5b505050506040513d601f19601f820116820180604052508101906101cb91906104b2565b15156000036101f45760405163935aa0e960e01b81526004810182905260240160405180910390fd5b6001600160a01b038316600090815260026020526040812054900361024a57600084815260016020818152604083208054928301815583529091200180546001600160a01b0319166001600160a01b0385161790555b506001600160a01b0391821660009081526002602090815260408220805460018101825590835291200180546001600160a01b0319169190921617905550565b6001602052816000526040600020818154811061013c57600080fd5b60008181526001602090815260409182902080548351818402810184019094528084526060939283018282801561030657602002820191906000526020600020905b81546001600160a01b031681526001909101906020018083116102e8575b50505050509050919050565b6001600160a01b038116600090815260026020908152604091829020805483518184028101840190945280845260609392830182828015610306576020028201919060005260206000209081546001600160a01b031681526001909101906020018083116102e85750505050509050919050565b80356001600160a01b038116811461039d57600080fd5b919050565b600080604083850312156103b557600080fd5b6103be83610386565b946020939093013593505050565b6000602082840312156103de57600080fd5b5035919050565b6000806000606084860312156103fa57600080fd5b8335925061040a60208501610386565b915061041860408501610386565b90509250925092565b6000806040838503121561043457600080fd5b50508035926020909101359150565b6020808252825182820181905260009190848201906040850190845b818110156104845783516001600160a01b03168352928401929184019160010161045f565b50909695505050505050565b6000602082840312156104a257600080fd5b6104ab82610386565b9392505050565b6000602082840312156104c457600080fd5b815180151581146104ab57600080fdfea2646970667358221220a43180ee35a3f48cfbc3c959f38432e4a1d30e927fa22be5e094b529ce0afac864736f6c63430008140033",
  "linkReferences": {},
  "deployedLinkReferences": {}
}